{
	"DeFiLending.sol": {
		"SimpleLending": {
			"abi": [
				{
					"inputs": [
						{
							"internalType": "address",
							"name": "_stablecoin",
							"type": "address"
						}
					],
					"stateMutability": "nonpayable",
					"type": "constructor"
				},
				{
					"inputs": [
						{
							"internalType": "address",
							"name": "owner",
							"type": "address"
						}
					],
					"name": "OwnableInvalidOwner",
					"type": "error"
				},
				{
					"inputs": [
						{
							"internalType": "address",
							"name": "account",
							"type": "address"
						}
					],
					"name": "OwnableUnauthorizedAccount",
					"type": "error"
				},
				{
					"anonymous": false,
					"inputs": [
						{
							"indexed": true,
							"internalType": "address",
							"name": "previousOwner",
							"type": "address"
						},
						{
							"indexed": true,
							"internalType": "address",
							"name": "newOwner",
							"type": "address"
						}
					],
					"name": "OwnershipTransferred",
					"type": "event"
				},
				{
					"inputs": [],
					"name": "COLLATERAL_RATIO",
					"outputs": [
						{
							"internalType": "uint256",
							"name": "",
							"type": "uint256"
						}
					],
					"stateMutability": "view",
					"type": "function"
				},
				{
					"inputs": [
						{
							"internalType": "uint256",
							"name": "amountStableCoin",
							"type": "uint256"
						}
					],
					"name": "borrow",
					"outputs": [],
					"stateMutability": "nonpayable",
					"type": "function"
				},
				{
					"inputs": [
						{
							"internalType": "address",
							"name": "",
							"type": "address"
						}
					],
					"name": "collateralNative",
					"outputs": [
						{
							"internalType": "uint256",
							"name": "",
							"type": "uint256"
						}
					],
					"stateMutability": "view",
					"type": "function"
				},
				{
					"inputs": [
						{
							"internalType": "address",
							"name": "",
							"type": "address"
						}
					],
					"name": "debtStableCoin",
					"outputs": [
						{
							"internalType": "uint256",
							"name": "",
							"type": "uint256"
						}
					],
					"stateMutability": "view",
					"type": "function"
				},
				{
					"inputs": [],
					"name": "depositCollateral",
					"outputs": [],
					"stateMutability": "payable",
					"type": "function"
				},
				{
					"inputs": [],
					"name": "getLatestPrice",
					"outputs": [
						{
							"internalType": "uint256",
							"name": "",
							"type": "uint256"
						}
					],
					"stateMutability": "view",
					"type": "function"
				},
				{
					"inputs": [
						{
							"internalType": "uint256",
							"name": "amountStableCoin",
							"type": "uint256"
						}
					],
					"name": "minimumCollateral",
					"outputs": [
						{
							"internalType": "uint256",
							"name": "",
							"type": "uint256"
						}
					],
					"stateMutability": "view",
					"type": "function"
				},
				{
					"inputs": [],
					"name": "owner",
					"outputs": [
						{
							"internalType": "address",
							"name": "",
							"type": "address"
						}
					],
					"stateMutability": "view",
					"type": "function"
				},
				{
					"inputs": [],
					"name": "priceFeed",
					"outputs": [
						{
							"internalType": "contract AggregatorV3Interface",
							"name": "",
							"type": "address"
						}
					],
					"stateMutability": "view",
					"type": "function"
				},
				{
					"inputs": [],
					"name": "renounceOwnership",
					"outputs": [],
					"stateMutability": "nonpayable",
					"type": "function"
				},
				{
					"inputs": [
						{
							"internalType": "uint256",
							"name": "amountStableCoin",
							"type": "uint256"
						}
					],
					"name": "repay",
					"outputs": [],
					"stateMutability": "nonpayable",
					"type": "function"
				},
				{
					"inputs": [
						{
							"internalType": "address",
							"name": "token",
							"type": "address"
						},
						{
							"internalType": "uint256",
							"name": "amount",
							"type": "uint256"
						}
					],
					"name": "rescueTokens",
					"outputs": [],
					"stateMutability": "nonpayable",
					"type": "function"
				},
				{
					"inputs": [],
					"name": "stablecoin",
					"outputs": [
						{
							"internalType": "contract TokenInterface",
							"name": "",
							"type": "address"
						}
					],
					"stateMutability": "view",
					"type": "function"
				},
				{
					"inputs": [],
					"name": "tokenDecimals",
					"outputs": [
						{
							"internalType": "uint8",
							"name": "",
							"type": "uint8"
						}
					],
					"stateMutability": "view",
					"type": "function"
				},
				{
					"inputs": [
						{
							"internalType": "address",
							"name": "newOwner",
							"type": "address"
						}
					],
					"name": "transferOwnership",
					"outputs": [],
					"stateMutability": "nonpayable",
					"type": "function"
				},
				{
					"inputs": [
						{
							"internalType": "uint256",
							"name": "amount",
							"type": "uint256"
						}
					],
					"name": "withdrawCollateral",
					"outputs": [],
					"stateMutability": "nonpayable",
					"type": "function"
				},
				{
					"stateMutability": "payable",
					"type": "receive"
				}
			],
			"devdoc": {
				"errors": {
					"OwnableInvalidOwner(address)": [
						{
							"details": "The owner is not a valid owner account. (eg. `address(0)`)"
						}
					],
					"OwnableUnauthorizedAccount(address)": [
						{
							"details": "The caller account is not authorized to perform an operation."
						}
					]
				},
				"kind": "dev",
				"methods": {
					"owner()": {
						"details": "Returns the address of the current owner."
					},
					"renounceOwnership()": {
						"details": "Leaves the contract without owner. It will not be possible to call `onlyOwner` functions. Can only be called by the current owner. NOTE: Renouncing ownership will leave the contract without an owner, thereby disabling any functionality that is only available to the owner."
					},
					"transferOwnership(address)": {
						"details": "Transfers ownership of the contract to a new account (`newOwner`). Can only be called by the current owner."
					}
				},
				"version": 1
			},
			"evm": {
				"assembly": "    /* \"DeFiLending.sol\":749:4045  contract SimpleLending is Ownable {... */\n  mstore(0x40, 0x80)\n    /* \"DeFiLending.sol\":1139:1619  constructor(address _stablecoin) Ownable(msg.sender){... */\n  callvalue\n  dup1\n  iszero\n  tag_1\n  jumpi\n  0x00\n  dup1\n  revert\ntag_1:\n  pop\n  mload(0x40)\n  sub(codesize, bytecodeSize)\n  dup1\n  bytecodeSize\n  dup4\n  codecopy\n  dup2\n  dup2\n  add\n  0x40\n  mstore\n  dup2\n  add\n  swap1\n  tag_2\n  swap2\n  swap1\n  tag_3\n  jump\t// in\ntag_2:\n    /* \"DeFiLending.sol\":1180:1190  msg.sender */\n  caller\n    /* \"@openzeppelin/contracts/access/Ownable.sol\":1297:1298  0 */\n  0x00\n    /* \"@openzeppelin/contracts/access/Ownable.sol\":1273:1299  initialOwner == address(0) */\n  0xffffffffffffffffffffffffffffffffffffffff\n  and\n    /* \"@openzeppelin/contracts/access/Ownable.sol\":1273:1285  initialOwner */\n  dup2\n    /* \"@openzeppelin/contracts/access/Ownable.sol\":1273:1299  initialOwner == address(0) */\n  0xffffffffffffffffffffffffffffffffffffffff\n  and\n  sub\n    /* \"@openzeppelin/contracts/access/Ownable.sol\":1269:1364  if (initialOwner == address(0)) {... */\n  tag_7\n  jumpi\n    /* \"@openzeppelin/contracts/access/Ownable.sol\":1350:1351  0 */\n  0x00\n    /* \"@openzeppelin/contracts/access/Ownable.sol\":1322:1353  OwnableInvalidOwner(address(0)) */\n  mload(0x40)\n  0x1e4fbdf700000000000000000000000000000000000000000000000000000000\n  dup2\n  mstore\n  0x04\n  add\n  tag_8\n  swap2\n  swap1\n  tag_9\n  jump\t// in\ntag_8:\n  mload(0x40)\n  dup1\n  swap2\n  sub\n  swap1\n  revert\n    /* \"@openzeppelin/contracts/access/Ownable.sol\":1269:1364  if (initialOwner == address(0)) {... */\ntag_7:\n    /* \"@openzeppelin/contracts/access/Ownable.sol\":1373:1405  _transferOwnership(initialOwner) */\n  tag_10\n    /* \"@openzeppelin/contracts/access/Ownable.sol\":1392:1404  initialOwner */\n  dup2\n    /* \"@openzeppelin/contracts/access/Ownable.sol\":1373:1391  _transferOwnership */\n  shl(0x20, tag_11)\n    /* \"@openzeppelin/contracts/access/Ownable.sol\":1373:1405  _transferOwnership(initialOwner) */\n  0x20\n  shr\n  jump\t// in\ntag_10:\n    /* \"@openzeppelin/contracts/access/Ownable.sol\":1225:1412  constructor(address initialOwner) {... */\n  pop\n    /* \"DeFiLending.sol\":1377:1402  address _priceFeedAddress */\n  0x00\n    /* \"DeFiLending.sol\":1405:1447  0xBaA0AfA2f390349e0074bE787509a098e3044fc8 */\n  0xbaa0afa2f390349e0074be787509a098e3044fc8\n    /* \"DeFiLending.sol\":1377:1447  address _priceFeedAddress = 0xBaA0AfA2f390349e0074bE787509a098e3044fc8 */\n  swap1\n  pop\n    /* \"DeFiLending.sol\":1492:1509  _priceFeedAddress */\n  dup1\n    /* \"DeFiLending.sol\":1458:1467  priceFeed */\n  0x01\n  0x00\n    /* \"DeFiLending.sol\":1458:1510  priceFeed = AggregatorV3Interface(_priceFeedAddress) */\n  0x0100\n  exp\n  dup2\n  sload\n  dup2\n  0xffffffffffffffffffffffffffffffffffffffff\n  mul\n  not\n  and\n  swap1\n  dup4\n  0xffffffffffffffffffffffffffffffffffffffff\n  and\n  mul\n  or\n  swap1\n  sstore\n  pop\n    /* \"DeFiLending.sol\":1551:1562  _stablecoin */\n  dup2\n    /* \"DeFiLending.sol\":1523:1533  stablecoin */\n  0x02\n  0x00\n    /* \"DeFiLending.sol\":1523:1563  stablecoin = TokenInterface(_stablecoin) */\n  0x0100\n  exp\n  dup2\n  sload\n  dup2\n  0xffffffffffffffffffffffffffffffffffffffff\n  mul\n  not\n  and\n  swap1\n  dup4\n  0xffffffffffffffffffffffffffffffffffffffff\n  and\n  mul\n  or\n  swap1\n  sstore\n  pop\n    /* \"DeFiLending.sol\":1590:1600  stablecoin */\n  0x02\n  0x00\n  swap1\n  sload\n  swap1\n  0x0100\n  exp\n  swap1\n  div\n  0xffffffffffffffffffffffffffffffffffffffff\n  and\n    /* \"DeFiLending.sol\":1590:1609  stablecoin.decimals */\n  0xffffffffffffffffffffffffffffffffffffffff\n  and\n  0x313ce567\n    /* \"DeFiLending.sol\":1590:1611  stablecoin.decimals() */\n  mload(0x40)\n  dup2\n  0xffffffff\n  and\n  0xe0\n  shl\n  dup2\n  mstore\n  0x04\n  add\n  0x20\n  mload(0x40)\n  dup1\n  dup4\n  sub\n  dup2\n  dup7\n  gas\n  staticcall\n  iszero\n  dup1\n  iszero\n  tag_14\n  jumpi\n  returndatasize\n  0x00\n  dup1\n  returndatacopy\n  revert(0x00, returndatasize)\ntag_14:\n  pop\n  pop\n  pop\n  pop\n  mload(0x40)\n  returndatasize\n  not(0x1f)\n  0x1f\n  dup3\n  add\n  and\n  dup3\n  add\n  dup1\n  0x40\n  mstore\n  pop\n  dup2\n  add\n  swap1\n  tag_15\n  swap2\n  swap1\n  tag_16\n  jump\t// in\ntag_15:\n    /* \"DeFiLending.sol\":1574:1587  tokenDecimals */\n  0x02\n  0x14\n    /* \"DeFiLending.sol\":1574:1611  tokenDecimals = stablecoin.decimals() */\n  0x0100\n  exp\n  dup2\n  sload\n  dup2\n  0xff\n  mul\n  not\n  and\n  swap1\n  dup4\n  0xff\n  and\n  mul\n  or\n  swap1\n  sstore\n  pop\n    /* \"DeFiLending.sol\":1191:1619  {... */\n  pop\n    /* \"DeFiLending.sol\":1139:1619  constructor(address _stablecoin) Ownable(msg.sender){... */\n  pop\n    /* \"DeFiLending.sol\":749:4045  contract SimpleLending is Ownable {... */\n  jump(tag_17)\n    /* \"@openzeppelin/contracts/access/Ownable.sol\":2912:3099  function _transferOwnership(address newOwner) internal virtual {... */\ntag_11:\n    /* \"@openzeppelin/contracts/access/Ownable.sol\":2985:3001  address oldOwner */\n  0x00\n    /* \"@openzeppelin/contracts/access/Ownable.sol\":3004:3010  _owner */\n  dup1\n  0x00\n  swap1\n  sload\n  swap1\n  0x0100\n  exp\n  swap1\n  div\n  0xffffffffffffffffffffffffffffffffffffffff\n  and\n    /* \"@openzeppelin/contracts/access/Ownable.sol\":2985:3010  address oldOwner = _owner */\n  swap1\n  pop\n    /* \"@openzeppelin/contracts/access/Ownable.sol\":3029:3037  newOwner */\n  dup2\n    /* \"@openzeppelin/contracts/access/Ownable.sol\":3020:3026  _owner */\n  0x00\n  dup1\n    /* \"@openzeppelin/contracts/access/Ownable.sol\":3020:3037  _owner = newOwner */\n  0x0100\n  exp\n  dup2\n  sload\n  dup2\n  0xffffffffffffffffffffffffffffffffffffffff\n  mul\n  not\n  and\n  swap1\n  dup4\n  0xffffffffffffffffffffffffffffffffffffffff\n  and\n  mul\n  or\n  swap1\n  sstore\n  pop\n    /* \"@openzeppelin/contracts/access/Ownable.sol\":3083:3091  newOwner */\n  dup2\n    /* \"@openzeppelin/contracts/access/Ownable.sol\":3052:3092  OwnershipTransferred(oldOwner, newOwner) */\n  0xffffffffffffffffffffffffffffffffffffffff\n  and\n    /* \"@openzeppelin/contracts/access/Ownable.sol\":3073:3081  oldOwner */\n  dup2\n    /* \"@openzeppelin/contracts/access/Ownable.sol\":3052:3092  OwnershipTransferred(oldOwner, newOwner) */\n  0xffffffffffffffffffffffffffffffffffffffff\n  and\n  0x8be0079c531659141344cd1fd0a4f28419497f9722a3daafe3b4186f6b6457e0\n  mload(0x40)\n  mload(0x40)\n  dup1\n  swap2\n  sub\n  swap1\n  log3\n    /* \"@openzeppelin/contracts/access/Ownable.sol\":2975:3099  {... */\n  pop\n    /* \"@openzeppelin/contracts/access/Ownable.sol\":2912:3099  function _transferOwnership(address newOwner) internal virtual {... */\n  pop\n  jump\t// out\n    /* \"#utility.yul\":88:205   */\ntag_20:\n    /* \"#utility.yul\":197:198   */\n  0x00\n    /* \"#utility.yul\":194:195   */\n  dup1\n    /* \"#utility.yul\":187:199   */\n  revert\n    /* \"#utility.yul\":334:460   */\ntag_22:\n    /* \"#utility.yul\":371:378   */\n  0x00\n    /* \"#utility.yul\":411:453   */\n  0xffffffffffffffffffffffffffffffffffffffff\n    /* \"#utility.yul\":404:409   */\n  dup3\n    /* \"#utility.yul\":400:454   */\n  and\n    /* \"#utility.yul\":389:454   */\n  swap1\n  pop\n    /* \"#utility.yul\":334:460   */\n  swap2\n  swap1\n  pop\n  jump\t// out\n    /* \"#utility.yul\":466:562   */\ntag_23:\n    /* \"#utility.yul\":503:510   */\n  0x00\n    /* \"#utility.yul\":532:556   */\n  tag_36\n    /* \"#utility.yul\":550:555   */\n  dup3\n    /* \"#utility.yul\":532:556   */\n  tag_22\n  jump\t// in\ntag_36:\n    /* \"#utility.yul\":521:556   */\n  swap1\n  pop\n    /* \"#utility.yul\":466:562   */\n  swap2\n  swap1\n  pop\n  jump\t// out\n    /* \"#utility.yul\":568:690   */\ntag_24:\n    /* \"#utility.yul\":641:665   */\n  tag_38\n    /* \"#utility.yul\":659:664   */\n  dup2\n    /* \"#utility.yul\":641:665   */\n  tag_23\n  jump\t// in\ntag_38:\n    /* \"#utility.yul\":634:639   */\n  dup2\n    /* \"#utility.yul\":631:666   */\n  eq\n    /* \"#utility.yul\":621:684   */\n  tag_39\n  jumpi\n    /* \"#utility.yul\":680:681   */\n  0x00\n    /* \"#utility.yul\":677:678   */\n  dup1\n    /* \"#utility.yul\":670:682   */\n  revert\n    /* \"#utility.yul\":621:684   */\ntag_39:\n    /* \"#utility.yul\":568:690   */\n  pop\n  jump\t// out\n    /* \"#utility.yul\":696:839   */\ntag_25:\n    /* \"#utility.yul\":753:758   */\n  0x00\n    /* \"#utility.yul\":784:790   */\n  dup2\n    /* \"#utility.yul\":778:791   */\n  mload\n    /* \"#utility.yul\":769:791   */\n  swap1\n  pop\n    /* \"#utility.yul\":800:833   */\n  tag_41\n    /* \"#utility.yul\":827:832   */\n  dup2\n    /* \"#utility.yul\":800:833   */\n  tag_24\n  jump\t// in\ntag_41:\n    /* \"#utility.yul\":696:839   */\n  swap3\n  swap2\n  pop\n  pop\n  jump\t// out\n    /* \"#utility.yul\":845:1196   */\ntag_3:\n    /* \"#utility.yul\":915:921   */\n  0x00\n    /* \"#utility.yul\":964:966   */\n  0x20\n    /* \"#utility.yul\":952:961   */\n  dup3\n    /* \"#utility.yul\":943:950   */\n  dup5\n    /* \"#utility.yul\":939:962   */\n  sub\n    /* \"#utility.yul\":935:967   */\n  slt\n    /* \"#utility.yul\":932:1051   */\n  iszero\n  tag_43\n  jumpi\n    /* \"#utility.yul\":970:1049   */\n  tag_44\n  tag_20\n  jump\t// in\ntag_44:\n    /* \"#utility.yul\":932:1051   */\ntag_43:\n    /* \"#utility.yul\":1090:1091   */\n  0x00\n    /* \"#utility.yul\":1115:1179   */\n  tag_45\n    /* \"#utility.yul\":1171:1178   */\n  dup5\n    /* \"#utility.yul\":1162:1168   */\n  dup3\n    /* \"#utility.yul\":1151:1160   */\n  dup6\n    /* \"#utility.yul\":1147:1169   */\n  add\n    /* \"#utility.yul\":1115:1179   */\n  tag_25\n  jump\t// in\ntag_45:\n    /* \"#utility.yul\":1105:1179   */\n  swap2\n  pop\n    /* \"#utility.yul\":1061:1189   */\n  pop\n    /* \"#utility.yul\":845:1196   */\n  swap3\n  swap2\n  pop\n  pop\n  jump\t// out\n    /* \"#utility.yul\":1202:1320   */\ntag_26:\n    /* \"#utility.yul\":1289:1313   */\n  tag_47\n    /* \"#utility.yul\":1307:1312   */\n  dup2\n    /* \"#utility.yul\":1289:1313   */\n  tag_23\n  jump\t// in\ntag_47:\n    /* \"#utility.yul\":1284:1287   */\n  dup3\n    /* \"#utility.yul\":1277:1314   */\n  mstore\n    /* \"#utility.yul\":1202:1320   */\n  pop\n  pop\n  jump\t// out\n    /* \"#utility.yul\":1326:1548   */\ntag_9:\n    /* \"#utility.yul\":1419:1423   */\n  0x00\n    /* \"#utility.yul\":1457:1459   */\n  0x20\n    /* \"#utility.yul\":1446:1455   */\n  dup3\n    /* \"#utility.yul\":1442:1460   */\n  add\n    /* \"#utility.yul\":1434:1460   */\n  swap1\n  pop\n    /* \"#utility.yul\":1470:1541   */\n  tag_49\n    /* \"#utility.yul\":1538:1539   */\n  0x00\n    /* \"#utility.yul\":1527:1536   */\n  dup4\n    /* \"#utility.yul\":1523:1540   */\n  add\n    /* \"#utility.yul\":1514:1520   */\n  dup5\n    /* \"#utility.yul\":1470:1541   */\n  tag_26\n  jump\t// in\ntag_49:\n    /* \"#utility.yul\":1326:1548   */\n  swap3\n  swap2\n  pop\n  pop\n  jump\t// out\n    /* \"#utility.yul\":1554:1640   */\ntag_27:\n    /* \"#utility.yul\":1589:1596   */\n  0x00\n    /* \"#utility.yul\":1629:1633   */\n  0xff\n    /* \"#utility.yul\":1622:1627   */\n  dup3\n    /* \"#utility.yul\":1618:1634   */\n  and\n    /* \"#utility.yul\":1607:1634   */\n  swap1\n  pop\n    /* \"#utility.yul\":1554:1640   */\n  swap2\n  swap1\n  pop\n  jump\t// out\n    /* \"#utility.yul\":1646:1764   */\ntag_28:\n    /* \"#utility.yul\":1717:1739   */\n  tag_52\n    /* \"#utility.yul\":1733:1738   */\n  dup2\n    /* \"#utility.yul\":1717:1739   */\n  tag_27\n  jump\t// in\ntag_52:\n    /* \"#utility.yul\":1710:1715   */\n  dup2\n    /* \"#utility.yul\":1707:1740   */\n  eq\n    /* \"#utility.yul\":1697:1758   */\n  tag_53\n  jumpi\n    /* \"#utility.yul\":1754:1755   */\n  0x00\n    /* \"#utility.yul\":1751:1752   */\n  dup1\n    /* \"#utility.yul\":1744:1756   */\n  revert\n    /* \"#utility.yul\":1697:1758   */\ntag_53:\n    /* \"#utility.yul\":1646:1764   */\n  pop\n  jump\t// out\n    /* \"#utility.yul\":1770:1909   */\ntag_29:\n    /* \"#utility.yul\":1825:1830   */\n  0x00\n    /* \"#utility.yul\":1856:1862   */\n  dup2\n    /* \"#utility.yul\":1850:1863   */\n  mload\n    /* \"#utility.yul\":1841:1863   */\n  swap1\n  pop\n    /* \"#utility.yul\":1872:1903   */\n  tag_55\n    /* \"#utility.yul\":1897:1902   */\n  dup2\n    /* \"#utility.yul\":1872:1903   */\n  tag_28\n  jump\t// in\ntag_55:\n    /* \"#utility.yul\":1770:1909   */\n  swap3\n  swap2\n  pop\n  pop\n  jump\t// out\n    /* \"#utility.yul\":1915:2262   */\ntag_16:\n    /* \"#utility.yul\":1983:1989   */\n  0x00\n    /* \"#utility.yul\":2032:2034   */\n  0x20\n    /* \"#utility.yul\":2020:2029   */\n  dup3\n    /* \"#utility.yul\":2011:2018   */\n  dup5\n    /* \"#utility.yul\":2007:2030   */\n  sub\n    /* \"#utility.yul\":2003:2035   */\n  slt\n    /* \"#utility.yul\":2000:2119   */\n  iszero\n  tag_57\n  jumpi\n    /* \"#utility.yul\":2038:2117   */\n  tag_58\n  tag_20\n  jump\t// in\ntag_58:\n    /* \"#utility.yul\":2000:2119   */\ntag_57:\n    /* \"#utility.yul\":2158:2159   */\n  0x00\n    /* \"#utility.yul\":2183:2245   */\n  tag_59\n    /* \"#utility.yul\":2237:2244   */\n  dup5\n    /* \"#utility.yul\":2228:2234   */\n  dup3\n    /* \"#utility.yul\":2217:2226   */\n  dup6\n    /* \"#utility.yul\":2213:2235   */\n  add\n    /* \"#utility.yul\":2183:2245   */\n  tag_29\n  jump\t// in\ntag_59:\n    /* \"#utility.yul\":2173:2245   */\n  swap2\n  pop\n    /* \"#utility.yul\":2129:2255   */\n  pop\n    /* \"#utility.yul\":1915:2262   */\n  swap3\n  swap2\n  pop\n  pop\n  jump\t// out\n    /* \"DeFiLending.sol\":749:4045  contract SimpleLending is Ownable {... */\ntag_17:\n  dataSize(sub_0)\n  dup1\n  dataOffset(sub_0)\n  0x00\n  codecopy\n  0x00\n  return\nstop\n\nsub_0: assembly {\n        /* \"DeFiLending.sol\":749:4045  contract SimpleLending is Ownable {... */\n      mstore(0x40, 0x80)\n      jumpi(tag_1, lt(calldatasize, 0x04))\n      shr(0xe0, calldataload(0x00))\n      dup1\n      0x741bef1a\n      gt\n      tag_19\n      jumpi\n      dup1\n      0xd9e69a05\n      gt\n      tag_20\n      jumpi\n      dup1\n      0xd9e69a05\n      eq\n      tag_15\n      jumpi\n      dup1\n      0xe9cbd822\n      eq\n      tag_16\n      jumpi\n      dup1\n      0xf2fde38b\n      eq\n      tag_17\n      jumpi\n      dup1\n      0xf571180b\n      eq\n      tag_18\n      jumpi\n      jump(tag_2)\n    tag_20:\n      dup1\n      0x741bef1a\n      eq\n      tag_11\n      jumpi\n      dup1\n      0x8da5cb5b\n      eq\n      tag_12\n      jumpi\n      dup1\n      0x8e15f473\n      eq\n      tag_13\n      jumpi\n      dup1\n      0xc5ebeaec\n      eq\n      tag_14\n      jumpi\n      jump(tag_2)\n    tag_19:\n      dup1\n      0x57376198\n      gt\n      tag_21\n      jumpi\n      dup1\n      0x57376198\n      eq\n      tag_7\n      jumpi\n      dup1\n      0x6112fe2e\n      eq\n      tag_8\n      jumpi\n      dup1\n      0x6f758140\n      eq\n      tag_9\n      jumpi\n      dup1\n      0x715018a6\n      eq\n      tag_10\n      jumpi\n      jump(tag_2)\n    tag_21:\n      dup1\n      0x05f287fe\n      eq\n      tag_3\n      jumpi\n      dup1\n      0x066bff28\n      eq\n      tag_4\n      jumpi\n      dup1\n      0x371fd8e6\n      eq\n      tag_5\n      jumpi\n      dup1\n      0x3b97e856\n      eq\n      tag_6\n      jumpi\n      jump(tag_2)\n    tag_1:\n      jumpi(tag_2, calldatasize)\n      stop\n    tag_2:\n      0x00\n      dup1\n      revert\n        /* \"DeFiLending.sol\":3055:3568  function minimumCollateral(uint256 amountStableCoin) public view returns (uint256) {... */\n    tag_3:\n      callvalue\n      dup1\n      iszero\n      tag_24\n      jumpi\n      0x00\n      dup1\n      revert\n    tag_24:\n      pop\n      tag_25\n      0x04\n      dup1\n      calldatasize\n      sub\n      dup2\n      add\n      swap1\n      tag_26\n      swap2\n      swap1\n      tag_27\n      jump\t// in\n    tag_26:\n      tag_28\n      jump\t// in\n    tag_25:\n      mload(0x40)\n      tag_29\n      swap2\n      swap1\n      tag_30\n      jump\t// in\n    tag_29:\n      mload(0x40)\n      dup1\n      swap2\n      sub\n      swap1\n      return\n        /* \"DeFiLending.sol\":1081:1130  mapping(address => uint256) public debtStableCoin */\n    tag_4:\n      callvalue\n      dup1\n      iszero\n      tag_31\n      jumpi\n      0x00\n      dup1\n      revert\n    tag_31:\n      pop\n      tag_32\n      0x04\n      dup1\n      calldatasize\n      sub\n      dup2\n      add\n      swap1\n      tag_33\n      swap2\n      swap1\n      tag_34\n      jump\t// in\n    tag_33:\n      tag_35\n      jump\t// in\n    tag_32:\n      mload(0x40)\n      tag_36\n      swap2\n      swap1\n      tag_30\n      jump\t// in\n    tag_36:\n      mload(0x40)\n      dup1\n      swap2\n      sub\n      swap1\n      return\n        /* \"DeFiLending.sol\":2262:2574  function repay(uint256 amountStableCoin) external {... */\n    tag_5:\n      callvalue\n      dup1\n      iszero\n      tag_37\n      jumpi\n      0x00\n      dup1\n      revert\n    tag_37:\n      pop\n      tag_38\n      0x04\n      dup1\n      calldatasize\n      sub\n      dup2\n      add\n      swap1\n      tag_39\n      swap2\n      swap1\n      tag_27\n      jump\t// in\n    tag_39:\n      tag_40\n      jump\t// in\n    tag_38:\n      stop\n        /* \"DeFiLending.sol\":988:1014  uint8 public tokenDecimals */\n    tag_6:\n      callvalue\n      dup1\n      iszero\n      tag_41\n      jumpi\n      0x00\n      dup1\n      revert\n    tag_41:\n      pop\n      tag_42\n      tag_43\n      jump\t// in\n    tag_42:\n      mload(0x40)\n      tag_44\n      swap2\n      swap1\n      tag_45\n      jump\t// in\n    tag_44:\n      mload(0x40)\n      dup1\n      swap2\n      sub\n      swap1\n      return\n        /* \"DeFiLending.sol\":3867:4005  function rescueTokens(address token, uint256 amount) external onlyOwner {... */\n    tag_7:\n      callvalue\n      dup1\n      iszero\n      tag_46\n      jumpi\n      0x00\n      dup1\n      revert\n    tag_46:\n      pop\n      tag_47\n      0x04\n      dup1\n      calldatasize\n      sub\n      dup2\n      add\n      swap1\n      tag_48\n      swap2\n      swap1\n      tag_49\n      jump\t// in\n    tag_48:\n      tag_50\n      jump\t// in\n    tag_47:\n      stop\n        /* \"DeFiLending.sol\":2644:2959  function withdrawCollateral(uint256 amount) external {... */\n    tag_8:\n      callvalue\n      dup1\n      iszero\n      tag_51\n      jumpi\n      0x00\n      dup1\n      revert\n    tag_51:\n      pop\n      tag_52\n      0x04\n      dup1\n      calldatasize\n      sub\n      dup2\n      add\n      swap1\n      tag_53\n      swap2\n      swap1\n      tag_27\n      jump\t// in\n    tag_53:\n      tag_54\n      jump\t// in\n    tag_52:\n      stop\n        /* \"DeFiLending.sol\":1679:1844  function depositCollateral() external payable {... */\n    tag_9:\n      tag_55\n      tag_56\n      jump\t// in\n    tag_55:\n      stop\n        /* \"@openzeppelin/contracts/access/Ownable.sol\":2293:2394  function renounceOwnership() public virtual onlyOwner {... */\n    tag_10:\n      callvalue\n      dup1\n      iszero\n      tag_57\n      jumpi\n      0x00\n      dup1\n      revert\n    tag_57:\n      pop\n      tag_58\n      tag_59\n      jump\t// in\n    tag_58:\n      stop\n        /* \"DeFiLending.sol\":790:828  AggregatorV3Interface public priceFeed */\n    tag_11:\n      callvalue\n      dup1\n      iszero\n      tag_60\n      jumpi\n      0x00\n      dup1\n      revert\n    tag_60:\n      pop\n      tag_61\n      tag_62\n      jump\t// in\n    tag_61:\n      mload(0x40)\n      tag_63\n      swap2\n      swap1\n      tag_64\n      jump\t// in\n    tag_63:\n      mload(0x40)\n      dup1\n      swap2\n      sub\n      swap1\n      return\n        /* \"@openzeppelin/contracts/access/Ownable.sol\":1638:1723  function owner() public view virtual returns (address) {... */\n    tag_12:\n      callvalue\n      dup1\n      iszero\n      tag_65\n      jumpi\n      0x00\n      dup1\n      revert\n    tag_65:\n      pop\n      tag_66\n      tag_67\n      jump\t// in\n    tag_66:\n      mload(0x40)\n      tag_68\n      swap2\n      swap1\n      tag_69\n      jump\t// in\n    tag_68:\n      mload(0x40)\n      dup1\n      swap2\n      sub\n      swap1\n      return\n        /* \"DeFiLending.sol\":3655:3822  function getLatestPrice() public view returns (uint256) {... */\n    tag_13:\n      callvalue\n      dup1\n      iszero\n      tag_70\n      jumpi\n      0x00\n      dup1\n      revert\n    tag_70:\n      pop\n      tag_71\n      tag_72\n      jump\t// in\n    tag_71:\n      mload(0x40)\n      tag_73\n      swap2\n      swap1\n      tag_30\n      jump\t// in\n    tag_73:\n      mload(0x40)\n      dup1\n      swap2\n      sub\n      swap1\n      return\n        /* \"DeFiLending.sol\":1906:2226  function borrow(uint256 amountStableCoin) external {... */\n    tag_14:\n      callvalue\n      dup1\n      iszero\n      tag_74\n      jumpi\n      0x00\n      dup1\n      revert\n    tag_74:\n      pop\n      tag_75\n      0x04\n      dup1\n      calldatasize\n      sub\n      dup2\n      add\n      swap1\n      tag_76\n      swap2\n      swap1\n      tag_27\n      jump\t// in\n    tag_76:\n      tag_77\n      jump\t// in\n    tag_75:\n      stop\n        /* \"DeFiLending.sol\":876:922  uint256 public constant COLLATERAL_RATIO = 150 */\n    tag_15:\n      callvalue\n      dup1\n      iszero\n      tag_78\n      jumpi\n      0x00\n      dup1\n      revert\n    tag_78:\n      pop\n      tag_79\n      tag_80\n      jump\t// in\n    tag_79:\n      mload(0x40)\n      tag_81\n      swap2\n      swap1\n      tag_30\n      jump\t// in\n    tag_81:\n      mload(0x40)\n      dup1\n      swap2\n      sub\n      swap1\n      return\n        /* \"DeFiLending.sol\":835:867  TokenInterface public stablecoin */\n    tag_16:\n      callvalue\n      dup1\n      iszero\n      tag_82\n      jumpi\n      0x00\n      dup1\n      revert\n    tag_82:\n      pop\n      tag_83\n      tag_84\n      jump\t// in\n    tag_83:\n      mload(0x40)\n      tag_85\n      swap2\n      swap1\n      tag_86\n      jump\t// in\n    tag_85:\n      mload(0x40)\n      dup1\n      swap2\n      sub\n      swap1\n      return\n        /* \"@openzeppelin/contracts/access/Ownable.sol\":2543:2758  function transferOwnership(address newOwner) public virtual onlyOwner {... */\n    tag_17:\n      callvalue\n      dup1\n      iszero\n      tag_87\n      jumpi\n      0x00\n      dup1\n      revert\n    tag_87:\n      pop\n      tag_88\n      0x04\n      dup1\n      calldatasize\n      sub\n      dup2\n      add\n      swap1\n      tag_89\n      swap2\n      swap1\n      tag_34\n      jump\t// in\n    tag_89:\n      tag_90\n      jump\t// in\n    tag_88:\n      stop\n        /* \"DeFiLending.sol\":1023:1074  mapping(address => uint256) public collateralNative */\n    tag_18:\n      callvalue\n      dup1\n      iszero\n      tag_91\n      jumpi\n      0x00\n      dup1\n      revert\n    tag_91:\n      pop\n      tag_92\n      0x04\n      dup1\n      calldatasize\n      sub\n      dup2\n      add\n      swap1\n      tag_93\n      swap2\n      swap1\n      tag_34\n      jump\t// in\n    tag_93:\n      tag_94\n      jump\t// in\n    tag_92:\n      mload(0x40)\n      tag_95\n      swap2\n      swap1\n      tag_30\n      jump\t// in\n    tag_95:\n      mload(0x40)\n      dup1\n      swap2\n      sub\n      swap1\n      return\n        /* \"DeFiLending.sol\":3055:3568  function minimumCollateral(uint256 amountStableCoin) public view returns (uint256) {... */\n    tag_28:\n        /* \"DeFiLending.sol\":3129:3136  uint256 */\n      0x00\n        /* \"DeFiLending.sol\":3149:3165  uint256 ethPrice */\n      dup1\n        /* \"DeFiLending.sol\":3168:3184  getLatestPrice() */\n      tag_97\n        /* \"DeFiLending.sol\":3168:3182  getLatestPrice */\n      tag_72\n        /* \"DeFiLending.sol\":3168:3184  getLatestPrice() */\n      jump\t// in\n    tag_97:\n        /* \"DeFiLending.sol\":3149:3184  uint256 ethPrice = getLatestPrice() */\n      swap1\n      pop\n        /* \"DeFiLending.sol\":3241:3267  uint256 decimalsAdjustment */\n      0x00\n        /* \"DeFiLending.sol\":3311:3324  tokenDecimals */\n      0x02\n      0x14\n      swap1\n      sload\n      swap1\n      0x0100\n      exp\n      swap1\n      div\n      0xff\n      and\n        /* \"DeFiLending.sol\":3303:3325  uint256(tokenDecimals) */\n      0xff\n      and\n        /* \"DeFiLending.sol\":980:981  8 */\n      0x08\n        /* \"DeFiLending.sol\":3277:3325  DATAFEED_PRICE_DECIMALS - uint256(tokenDecimals) */\n      tag_98\n      swap2\n      swap1\n      tag_99\n      jump\t// in\n    tag_98:\n        /* \"DeFiLending.sol\":3270:3272  10 */\n      0x0a\n        /* \"DeFiLending.sol\":3270:3326  10 ** (DATAFEED_PRICE_DECIMALS - uint256(tokenDecimals)) */\n      tag_100\n      swap2\n      swap1\n      tag_101\n      jump\t// in\n    tag_100:\n        /* \"DeFiLending.sol\":3241:3326  uint256 decimalsAdjustment = 10 ** (DATAFEED_PRICE_DECIMALS - uint256(tokenDecimals)) */\n      swap1\n      pop\n        /* \"DeFiLending.sol\":3337:3362  uint256 amountNativeToken */\n      0x00\n        /* \"DeFiLending.sol\":3414:3422  ethPrice */\n      dup3\n        /* \"DeFiLending.sol\":3407:3411  1e18 */\n      0x0de0b6b3a7640000\n        /* \"DeFiLending.sol\":3385:3403  decimalsAdjustment */\n      dup4\n        /* \"DeFiLending.sol\":3366:3382  amountStableCoin */\n      dup8\n        /* \"DeFiLending.sol\":3366:3403  amountStableCoin * decimalsAdjustment */\n      tag_102\n      swap2\n      swap1\n      tag_103\n      jump\t// in\n    tag_102:\n        /* \"DeFiLending.sol\":3365:3411  (amountStableCoin * decimalsAdjustment) * 1e18 */\n      tag_104\n      swap2\n      swap1\n      tag_103\n      jump\t// in\n    tag_104:\n        /* \"DeFiLending.sol\":3365:3422  (amountStableCoin * decimalsAdjustment) * 1e18 / ethPrice */\n      tag_105\n      swap2\n      swap1\n      tag_106\n      jump\t// in\n    tag_105:\n        /* \"DeFiLending.sol\":3337:3422  uint256 amountNativeToken = (amountStableCoin * decimalsAdjustment) * 1e18 / ethPrice */\n      swap1\n      pop\n        /* \"DeFiLending.sol\":3443:3469  uint256 requiredCollateral */\n      0x00\n        /* \"DeFiLending.sol\":3513:3516  100 */\n      0x64\n        /* \"DeFiLending.sol\":919:922  150 */\n      0x96\n        /* \"DeFiLending.sol\":3473:3490  amountNativeToken */\n      dup4\n        /* \"DeFiLending.sol\":3473:3509  amountNativeToken * COLLATERAL_RATIO */\n      tag_107\n      swap2\n      swap1\n      tag_103\n      jump\t// in\n    tag_107:\n        /* \"DeFiLending.sol\":3472:3516  (amountNativeToken * COLLATERAL_RATIO) / 100 */\n      tag_108\n      swap2\n      swap1\n      tag_106\n      jump\t// in\n    tag_108:\n        /* \"DeFiLending.sol\":3443:3516  uint256 requiredCollateral = (amountNativeToken * COLLATERAL_RATIO) / 100 */\n      swap1\n      pop\n        /* \"DeFiLending.sol\":3542:3560  requiredCollateral */\n      dup1\n        /* \"DeFiLending.sol\":3535:3560  return requiredCollateral */\n      swap5\n      pop\n      pop\n      pop\n      pop\n      pop\n        /* \"DeFiLending.sol\":3055:3568  function minimumCollateral(uint256 amountStableCoin) public view returns (uint256) {... */\n      swap2\n      swap1\n      pop\n      jump\t// out\n        /* \"DeFiLending.sol\":1081:1130  mapping(address => uint256) public debtStableCoin */\n    tag_35:\n      mstore(0x20, 0x04)\n      dup1\n      0x00\n      mstore\n      keccak256(0x00, 0x40)\n      0x00\n      swap2\n      pop\n      swap1\n      pop\n      sload\n      dup2\n      jump\t// out\n        /* \"DeFiLending.sol\":2262:2574  function repay(uint256 amountStableCoin) external {... */\n    tag_40:\n        /* \"DeFiLending.sol\":2361:2377  amountStableCoin */\n      dup1\n        /* \"DeFiLending.sol\":2331:2345  debtStableCoin */\n      0x04\n        /* \"DeFiLending.sol\":2331:2357  debtStableCoin[msg.sender] */\n      0x00\n        /* \"DeFiLending.sol\":2346:2356  msg.sender */\n      caller\n        /* \"DeFiLending.sol\":2331:2357  debtStableCoin[msg.sender] */\n      0xffffffffffffffffffffffffffffffffffffffff\n      and\n      0xffffffffffffffffffffffffffffffffffffffff\n      and\n      dup2\n      mstore\n      0x20\n      add\n      swap1\n      dup2\n      mstore\n      0x20\n      add\n      0x00\n      keccak256\n      sload\n        /* \"DeFiLending.sol\":2331:2377  debtStableCoin[msg.sender] >= amountStableCoin */\n      lt\n      iszero\n        /* \"DeFiLending.sol\":2323:2400  require(debtStableCoin[msg.sender] >= amountStableCoin, \"Too much repayment\") */\n      tag_110\n      jumpi\n      mload(0x40)\n      0x08c379a000000000000000000000000000000000000000000000000000000000\n      dup2\n      mstore\n      0x04\n      add\n      tag_111\n      swap1\n      tag_112\n      jump\t// in\n    tag_111:\n      mload(0x40)\n      dup1\n      swap2\n      sub\n      swap1\n      revert\n    tag_110:\n        /* \"DeFiLending.sol\":2443:2459  amountStableCoin */\n      dup1\n        /* \"DeFiLending.sol\":2413:2427  debtStableCoin */\n      0x04\n        /* \"DeFiLending.sol\":2413:2439  debtStableCoin[msg.sender] */\n      0x00\n        /* \"DeFiLending.sol\":2428:2438  msg.sender */\n      caller\n        /* \"DeFiLending.sol\":2413:2439  debtStableCoin[msg.sender] */\n      0xffffffffffffffffffffffffffffffffffffffff\n      and\n      0xffffffffffffffffffffffffffffffffffffffff\n      and\n      dup2\n      mstore\n      0x20\n      add\n      swap1\n      dup2\n      mstore\n      0x20\n      add\n      0x00\n      keccak256\n      0x00\n        /* \"DeFiLending.sol\":2413:2459  debtStableCoin[msg.sender] -= amountStableCoin */\n      dup3\n      dup3\n      sload\n      tag_113\n      swap2\n      swap1\n      tag_99\n      jump\t// in\n    tag_113:\n      swap3\n      pop\n      pop\n      dup2\n      swap1\n      sstore\n      pop\n        /* \"DeFiLending.sol\":2478:2488  stablecoin */\n      0x02\n      0x00\n      swap1\n      sload\n      swap1\n      0x0100\n      exp\n      swap1\n      div\n      0xffffffffffffffffffffffffffffffffffffffff\n      and\n        /* \"DeFiLending.sol\":2478:2501  stablecoin.transferFrom */\n      0xffffffffffffffffffffffffffffffffffffffff\n      and\n      0x23b872dd\n        /* \"DeFiLending.sol\":2502:2512  msg.sender */\n      caller\n        /* \"DeFiLending.sol\":2522:2526  this */\n      address\n        /* \"DeFiLending.sol\":2529:2545  amountStableCoin */\n      dup5\n        /* \"DeFiLending.sol\":2478:2546  stablecoin.transferFrom(msg.sender, address(this), amountStableCoin) */\n      mload(0x40)\n      dup5\n      0xffffffff\n      and\n      0xe0\n      shl\n      dup2\n      mstore\n      0x04\n      add\n      tag_114\n      swap4\n      swap3\n      swap2\n      swap1\n      tag_115\n      jump\t// in\n    tag_114:\n      0x20\n      mload(0x40)\n      dup1\n      dup4\n      sub\n      dup2\n      0x00\n      dup8\n      gas\n      call\n      iszero\n      dup1\n      iszero\n      tag_117\n      jumpi\n      returndatasize\n      0x00\n      dup1\n      returndatacopy\n      revert(0x00, returndatasize)\n    tag_117:\n      pop\n      pop\n      pop\n      pop\n      mload(0x40)\n      returndatasize\n      not(0x1f)\n      0x1f\n      dup3\n      add\n      and\n      dup3\n      add\n      dup1\n      0x40\n      mstore\n      pop\n      dup2\n      add\n      swap1\n      tag_118\n      swap2\n      swap1\n      tag_119\n      jump\t// in\n    tag_118:\n        /* \"DeFiLending.sol\":2470:2566  require(stablecoin.transferFrom(msg.sender, address(this), amountStableCoin), \"Transfer failed\") */\n      tag_120\n      jumpi\n      mload(0x40)\n      0x08c379a000000000000000000000000000000000000000000000000000000000\n      dup2\n      mstore\n      0x04\n      add\n      tag_121\n      swap1\n      tag_122\n      jump\t// in\n    tag_121:\n      mload(0x40)\n      dup1\n      swap2\n      sub\n      swap1\n      revert\n    tag_120:\n        /* \"DeFiLending.sol\":2262:2574  function repay(uint256 amountStableCoin) external {... */\n      pop\n      jump\t// out\n        /* \"DeFiLending.sol\":988:1014  uint8 public tokenDecimals */\n    tag_43:\n      0x02\n      0x14\n      swap1\n      sload\n      swap1\n      0x0100\n      exp\n      swap1\n      div\n      0xff\n      and\n      dup2\n      jump\t// out\n        /* \"DeFiLending.sol\":3867:4005  function rescueTokens(address token, uint256 amount) external onlyOwner {... */\n    tag_50:\n        /* \"@openzeppelin/contracts/access/Ownable.sol\":1531:1544  _checkOwner() */\n      tag_124\n        /* \"@openzeppelin/contracts/access/Ownable.sol\":1531:1542  _checkOwner */\n      tag_125\n        /* \"@openzeppelin/contracts/access/Ownable.sol\":1531:1544  _checkOwner() */\n      jump\t// in\n    tag_124:\n        /* \"DeFiLending.sol\":3965:3970  token */\n      dup2\n        /* \"DeFiLending.sol\":3950:3980  TokenInterface(token).transfer */\n      0xffffffffffffffffffffffffffffffffffffffff\n      and\n      0xa9059cbb\n        /* \"DeFiLending.sol\":3981:3988  owner() */\n      tag_127\n        /* \"DeFiLending.sol\":3981:3986  owner */\n      tag_67\n        /* \"DeFiLending.sol\":3981:3988  owner() */\n      jump\t// in\n    tag_127:\n        /* \"DeFiLending.sol\":3990:3996  amount */\n      dup4\n        /* \"DeFiLending.sol\":3950:3997  TokenInterface(token).transfer(owner(), amount) */\n      mload(0x40)\n      dup4\n      0xffffffff\n      and\n      0xe0\n      shl\n      dup2\n      mstore\n      0x04\n      add\n      tag_128\n      swap3\n      swap2\n      swap1\n      tag_129\n      jump\t// in\n    tag_128:\n      0x20\n      mload(0x40)\n      dup1\n      dup4\n      sub\n      dup2\n      0x00\n      dup8\n      gas\n      call\n      iszero\n      dup1\n      iszero\n      tag_131\n      jumpi\n      returndatasize\n      0x00\n      dup1\n      returndatacopy\n      revert(0x00, returndatasize)\n    tag_131:\n      pop\n      pop\n      pop\n      pop\n      mload(0x40)\n      returndatasize\n      not(0x1f)\n      0x1f\n      dup3\n      add\n      and\n      dup3\n      add\n      dup1\n      0x40\n      mstore\n      pop\n      dup2\n      add\n      swap1\n      tag_132\n      swap2\n      swap1\n      tag_119\n      jump\t// in\n    tag_132:\n      pop\n        /* \"DeFiLending.sol\":3867:4005  function rescueTokens(address token, uint256 amount) external onlyOwner {... */\n      pop\n      pop\n      jump\t// out\n        /* \"DeFiLending.sol\":2644:2959  function withdrawCollateral(uint256 amount) external {... */\n    tag_54:\n        /* \"DeFiLending.sol\":2746:2747  0 */\n      0x00\n        /* \"DeFiLending.sol\":2716:2730  debtStableCoin */\n      0x04\n        /* \"DeFiLending.sol\":2716:2742  debtStableCoin[msg.sender] */\n      0x00\n        /* \"DeFiLending.sol\":2731:2741  msg.sender */\n      caller\n        /* \"DeFiLending.sol\":2716:2742  debtStableCoin[msg.sender] */\n      0xffffffffffffffffffffffffffffffffffffffff\n      and\n      0xffffffffffffffffffffffffffffffffffffffff\n      and\n      dup2\n      mstore\n      0x20\n      add\n      swap1\n      dup2\n      mstore\n      0x20\n      add\n      0x00\n      keccak256\n      sload\n        /* \"DeFiLending.sol\":2716:2747  debtStableCoin[msg.sender] == 0 */\n      eq\n        /* \"DeFiLending.sol\":2708:2770  require(debtStableCoin[msg.sender] == 0, \"Pay all debt first\") */\n      tag_134\n      jumpi\n      mload(0x40)\n      0x08c379a000000000000000000000000000000000000000000000000000000000\n      dup2\n      mstore\n      0x04\n      add\n      tag_135\n      swap1\n      tag_136\n      jump\t// in\n    tag_135:\n      mload(0x40)\n      dup1\n      swap2\n      sub\n      swap1\n      revert\n    tag_134:\n        /* \"DeFiLending.sol\":2821:2827  amount */\n      dup1\n        /* \"DeFiLending.sol\":2789:2805  collateralNative */\n      0x03\n        /* \"DeFiLending.sol\":2789:2817  collateralNative[msg.sender] */\n      0x00\n        /* \"DeFiLending.sol\":2806:2816  msg.sender */\n      caller\n        /* \"DeFiLending.sol\":2789:2817  collateralNative[msg.sender] */\n      0xffffffffffffffffffffffffffffffffffffffff\n      and\n      0xffffffffffffffffffffffffffffffffffffffff\n      and\n      dup2\n      mstore\n      0x20\n      add\n      swap1\n      dup2\n      mstore\n      0x20\n      add\n      0x00\n      keccak256\n      sload\n        /* \"DeFiLending.sol\":2789:2827  collateralNative[msg.sender] >= amount */\n      lt\n      iszero\n        /* \"DeFiLending.sol\":2781:2853  require(collateralNative[msg.sender] >= amount, \"Not enough collateral\") */\n      tag_137\n      jumpi\n      mload(0x40)\n      0x08c379a000000000000000000000000000000000000000000000000000000000\n      dup2\n      mstore\n      0x04\n      add\n      tag_138\n      swap1\n      tag_139\n      jump\t// in\n    tag_138:\n      mload(0x40)\n      dup1\n      swap2\n      sub\n      swap1\n      revert\n    tag_137:\n        /* \"DeFiLending.sol\":2898:2904  amount */\n      dup1\n        /* \"DeFiLending.sol\":2866:2882  collateralNative */\n      0x03\n        /* \"DeFiLending.sol\":2866:2894  collateralNative[msg.sender] */\n      0x00\n        /* \"DeFiLending.sol\":2883:2893  msg.sender */\n      caller\n        /* \"DeFiLending.sol\":2866:2894  collateralNative[msg.sender] */\n      0xffffffffffffffffffffffffffffffffffffffff\n      and\n      0xffffffffffffffffffffffffffffffffffffffff\n      and\n      dup2\n      mstore\n      0x20\n      add\n      swap1\n      dup2\n      mstore\n      0x20\n      add\n      0x00\n      keccak256\n      0x00\n        /* \"DeFiLending.sol\":2866:2904  collateralNative[msg.sender] -= amount */\n      dup3\n      dup3\n      sload\n      tag_140\n      swap2\n      swap1\n      tag_99\n      jump\t// in\n    tag_140:\n      swap3\n      pop\n      pop\n      dup2\n      swap1\n      sstore\n      pop\n        /* \"DeFiLending.sol\":2923:2933  msg.sender */\n      caller\n        /* \"DeFiLending.sol\":2915:2943  payable(msg.sender).transfer */\n      0xffffffffffffffffffffffffffffffffffffffff\n      and\n        /* \"DeFiLending.sol\":2915:2951  payable(msg.sender).transfer(amount) */\n      0x08fc\n        /* \"DeFiLending.sol\":2944:2950  amount */\n      dup3\n        /* \"DeFiLending.sol\":2915:2951  payable(msg.sender).transfer(amount) */\n      swap1\n      dup2\n      iszero\n      mul\n      swap1\n      mload(0x40)\n      0x00\n      mload(0x40)\n      dup1\n      dup4\n      sub\n      dup2\n      dup6\n      dup9\n      dup9\n      call\n      swap4\n      pop\n      pop\n      pop\n      pop\n      iszero\n      dup1\n      iszero\n      tag_142\n      jumpi\n      returndatasize\n      0x00\n      dup1\n      returndatacopy\n      revert(0x00, returndatasize)\n    tag_142:\n      pop\n        /* \"DeFiLending.sol\":2644:2959  function withdrawCollateral(uint256 amount) external {... */\n      pop\n      jump\t// out\n        /* \"DeFiLending.sol\":1679:1844  function depositCollateral() external payable {... */\n    tag_56:\n        /* \"DeFiLending.sol\":1756:1757  0 */\n      0x00\n        /* \"DeFiLending.sol\":1744:1753  msg.value */\n      callvalue\n        /* \"DeFiLending.sol\":1744:1757  msg.value > 0 */\n      gt\n        /* \"DeFiLending.sol\":1736:1784  require(msg.value > 0, \"Must send Native Token\") */\n      tag_144\n      jumpi\n      mload(0x40)\n      0x08c379a000000000000000000000000000000000000000000000000000000000\n      dup2\n      mstore\n      0x04\n      add\n      tag_145\n      swap1\n      tag_146\n      jump\t// in\n    tag_145:\n      mload(0x40)\n      dup1\n      swap2\n      sub\n      swap1\n      revert\n    tag_144:\n        /* \"DeFiLending.sol\":1827:1836  msg.value */\n      callvalue\n        /* \"DeFiLending.sol\":1795:1811  collateralNative */\n      0x03\n        /* \"DeFiLending.sol\":1795:1823  collateralNative[msg.sender] */\n      0x00\n        /* \"DeFiLending.sol\":1812:1822  msg.sender */\n      caller\n        /* \"DeFiLending.sol\":1795:1823  collateralNative[msg.sender] */\n      0xffffffffffffffffffffffffffffffffffffffff\n      and\n      0xffffffffffffffffffffffffffffffffffffffff\n      and\n      dup2\n      mstore\n      0x20\n      add\n      swap1\n      dup2\n      mstore\n      0x20\n      add\n      0x00\n      keccak256\n      0x00\n        /* \"DeFiLending.sol\":1795:1836  collateralNative[msg.sender] += msg.value */\n      dup3\n      dup3\n      sload\n      tag_147\n      swap2\n      swap1\n      tag_148\n      jump\t// in\n    tag_147:\n      swap3\n      pop\n      pop\n      dup2\n      swap1\n      sstore\n      pop\n        /* \"DeFiLending.sol\":1679:1844  function depositCollateral() external payable {... */\n      jump\t// out\n        /* \"@openzeppelin/contracts/access/Ownable.sol\":2293:2394  function renounceOwnership() public virtual onlyOwner {... */\n    tag_59:\n        /* \"@openzeppelin/contracts/access/Ownable.sol\":1531:1544  _checkOwner() */\n      tag_150\n        /* \"@openzeppelin/contracts/access/Ownable.sol\":1531:1542  _checkOwner */\n      tag_125\n        /* \"@openzeppelin/contracts/access/Ownable.sol\":1531:1544  _checkOwner() */\n      jump\t// in\n    tag_150:\n        /* \"@openzeppelin/contracts/access/Ownable.sol\":2357:2387  _transferOwnership(address(0)) */\n      tag_152\n        /* \"@openzeppelin/contracts/access/Ownable.sol\":2384:2385  0 */\n      0x00\n        /* \"@openzeppelin/contracts/access/Ownable.sol\":2357:2375  _transferOwnership */\n      tag_153\n        /* \"@openzeppelin/contracts/access/Ownable.sol\":2357:2387  _transferOwnership(address(0)) */\n      jump\t// in\n    tag_152:\n        /* \"@openzeppelin/contracts/access/Ownable.sol\":2293:2394  function renounceOwnership() public virtual onlyOwner {... */\n      jump\t// out\n        /* \"DeFiLending.sol\":790:828  AggregatorV3Interface public priceFeed */\n    tag_62:\n      0x01\n      0x00\n      swap1\n      sload\n      swap1\n      0x0100\n      exp\n      swap1\n      div\n      0xffffffffffffffffffffffffffffffffffffffff\n      and\n      dup2\n      jump\t// out\n        /* \"@openzeppelin/contracts/access/Ownable.sol\":1638:1723  function owner() public view virtual returns (address) {... */\n    tag_67:\n        /* \"@openzeppelin/contracts/access/Ownable.sol\":1684:1691  address */\n      0x00\n        /* \"@openzeppelin/contracts/access/Ownable.sol\":1710:1716  _owner */\n      dup1\n      0x00\n      swap1\n      sload\n      swap1\n      0x0100\n      exp\n      swap1\n      div\n      0xffffffffffffffffffffffffffffffffffffffff\n      and\n        /* \"@openzeppelin/contracts/access/Ownable.sol\":1703:1716  return _owner */\n      swap1\n      pop\n        /* \"@openzeppelin/contracts/access/Ownable.sol\":1638:1723  function owner() public view virtual returns (address) {... */\n      swap1\n      jump\t// out\n        /* \"DeFiLending.sol\":3655:3822  function getLatestPrice() public view returns (uint256) {... */\n    tag_72:\n        /* \"DeFiLending.sol\":3702:3709  uint256 */\n      0x00\n        /* \"DeFiLending.sol\":3725:3734  int price */\n      dup1\n        /* \"DeFiLending.sol\":3741:3750  priceFeed */\n      0x01\n      0x00\n      swap1\n      sload\n      swap1\n      0x0100\n      exp\n      swap1\n      div\n      0xffffffffffffffffffffffffffffffffffffffff\n      and\n        /* \"DeFiLending.sol\":3741:3766  priceFeed.latestRoundData */\n      0xffffffffffffffffffffffffffffffffffffffff\n      and\n      0xfeaf968c\n        /* \"DeFiLending.sol\":3741:3768  priceFeed.latestRoundData() */\n      mload(0x40)\n      dup2\n      0xffffffff\n      and\n      0xe0\n      shl\n      dup2\n      mstore\n      0x04\n      add\n      0xa0\n      mload(0x40)\n      dup1\n      dup4\n      sub\n      dup2\n      dup7\n      gas\n      staticcall\n      iszero\n      dup1\n      iszero\n      tag_157\n      jumpi\n      returndatasize\n      0x00\n      dup1\n      returndatacopy\n      revert(0x00, returndatasize)\n    tag_157:\n      pop\n      pop\n      pop\n      pop\n      mload(0x40)\n      returndatasize\n      not(0x1f)\n      0x1f\n      dup3\n      add\n      and\n      dup3\n      add\n      dup1\n      0x40\n      mstore\n      pop\n      dup2\n      add\n      swap1\n      tag_158\n      swap2\n      swap1\n      tag_159\n      jump\t// in\n    tag_158:\n        /* \"DeFiLending.sol\":3722:3768  (, int price,,,) = priceFeed.latestRoundData() */\n      pop\n      pop\n      pop\n      swap2\n      pop\n      pop\n        /* \"DeFiLending.sol\":3794:3799  price */\n      dup1\n        /* \"DeFiLending.sol\":3779:3800  return uint256(price) */\n      swap2\n      pop\n      pop\n        /* \"DeFiLending.sol\":3655:3822  function getLatestPrice() public view returns (uint256) {... */\n      swap1\n      jump\t// out\n        /* \"DeFiLending.sol\":1906:2226  function borrow(uint256 amountStableCoin) external {... */\n    tag_77:\n        /* \"DeFiLending.sol\":2008:2043  minimumCollateral(amountStableCoin) */\n      tag_161\n        /* \"DeFiLending.sol\":2026:2042  amountStableCoin */\n      dup2\n        /* \"DeFiLending.sol\":2008:2025  minimumCollateral */\n      tag_28\n        /* \"DeFiLending.sol\":2008:2043  minimumCollateral(amountStableCoin) */\n      jump\t// in\n    tag_161:\n        /* \"DeFiLending.sol\":1976:1992  collateralNative */\n      0x03\n        /* \"DeFiLending.sol\":1976:2004  collateralNative[msg.sender] */\n      0x00\n        /* \"DeFiLending.sol\":1993:2003  msg.sender */\n      caller\n        /* \"DeFiLending.sol\":1976:2004  collateralNative[msg.sender] */\n      0xffffffffffffffffffffffffffffffffffffffff\n      and\n      0xffffffffffffffffffffffffffffffffffffffff\n      and\n      dup2\n      mstore\n      0x20\n      add\n      swap1\n      dup2\n      mstore\n      0x20\n      add\n      0x00\n      keccak256\n      sload\n        /* \"DeFiLending.sol\":1976:2043  collateralNative[msg.sender] >= minimumCollateral(amountStableCoin) */\n      lt\n      iszero\n        /* \"DeFiLending.sol\":1968:2071  require(collateralNative[msg.sender] >= minimumCollateral(amountStableCoin), \"Insufficient collateral\") */\n      tag_162\n      jumpi\n      mload(0x40)\n      0x08c379a000000000000000000000000000000000000000000000000000000000\n      dup2\n      mstore\n      0x04\n      add\n      tag_163\n      swap1\n      tag_164\n      jump\t// in\n    tag_163:\n      mload(0x40)\n      dup1\n      swap2\n      sub\n      swap1\n      revert\n    tag_162:\n        /* \"DeFiLending.sol\":2114:2130  amountStableCoin */\n      dup1\n        /* \"DeFiLending.sol\":2084:2098  debtStableCoin */\n      0x04\n        /* \"DeFiLending.sol\":2084:2110  debtStableCoin[msg.sender] */\n      0x00\n        /* \"DeFiLending.sol\":2099:2109  msg.sender */\n      caller\n        /* \"DeFiLending.sol\":2084:2110  debtStableCoin[msg.sender] */\n      0xffffffffffffffffffffffffffffffffffffffff\n      and\n      0xffffffffffffffffffffffffffffffffffffffff\n      and\n      dup2\n      mstore\n      0x20\n      add\n      swap1\n      dup2\n      mstore\n      0x20\n      add\n      0x00\n      keccak256\n      0x00\n        /* \"DeFiLending.sol\":2084:2130  debtStableCoin[msg.sender] += amountStableCoin */\n      dup3\n      dup3\n      sload\n      tag_165\n      swap2\n      swap1\n      tag_148\n      jump\t// in\n    tag_165:\n      swap3\n      pop\n      pop\n      dup2\n      swap1\n      sstore\n      pop\n        /* \"DeFiLending.sol\":2149:2159  stablecoin */\n      0x02\n      0x00\n      swap1\n      sload\n      swap1\n      0x0100\n      exp\n      swap1\n      div\n      0xffffffffffffffffffffffffffffffffffffffff\n      and\n        /* \"DeFiLending.sol\":2149:2168  stablecoin.transfer */\n      0xffffffffffffffffffffffffffffffffffffffff\n      and\n      0xa9059cbb\n        /* \"DeFiLending.sol\":2169:2179  msg.sender */\n      caller\n        /* \"DeFiLending.sol\":2181:2197  amountStableCoin */\n      dup4\n        /* \"DeFiLending.sol\":2149:2198  stablecoin.transfer(msg.sender, amountStableCoin) */\n      mload(0x40)\n      dup4\n      0xffffffff\n      and\n      0xe0\n      shl\n      dup2\n      mstore\n      0x04\n      add\n      tag_166\n      swap3\n      swap2\n      swap1\n      tag_129\n      jump\t// in\n    tag_166:\n      0x20\n      mload(0x40)\n      dup1\n      dup4\n      sub\n      dup2\n      0x00\n      dup8\n      gas\n      call\n      iszero\n      dup1\n      iszero\n      tag_168\n      jumpi\n      returndatasize\n      0x00\n      dup1\n      returndatacopy\n      revert(0x00, returndatasize)\n    tag_168:\n      pop\n      pop\n      pop\n      pop\n      mload(0x40)\n      returndatasize\n      not(0x1f)\n      0x1f\n      dup3\n      add\n      and\n      dup3\n      add\n      dup1\n      0x40\n      mstore\n      pop\n      dup2\n      add\n      swap1\n      tag_169\n      swap2\n      swap1\n      tag_119\n      jump\t// in\n    tag_169:\n        /* \"DeFiLending.sol\":2141:2218  require(stablecoin.transfer(msg.sender, amountStableCoin), \"Transfer failed\") */\n      tag_170\n      jumpi\n      mload(0x40)\n      0x08c379a000000000000000000000000000000000000000000000000000000000\n      dup2\n      mstore\n      0x04\n      add\n      tag_171\n      swap1\n      tag_122\n      jump\t// in\n    tag_171:\n      mload(0x40)\n      dup1\n      swap2\n      sub\n      swap1\n      revert\n    tag_170:\n        /* \"DeFiLending.sol\":1906:2226  function borrow(uint256 amountStableCoin) external {... */\n      pop\n      jump\t// out\n        /* \"DeFiLending.sol\":876:922  uint256 public constant COLLATERAL_RATIO = 150 */\n    tag_80:\n        /* \"DeFiLending.sol\":919:922  150 */\n      0x96\n        /* \"DeFiLending.sol\":876:922  uint256 public constant COLLATERAL_RATIO = 150 */\n      dup2\n      jump\t// out\n        /* \"DeFiLending.sol\":835:867  TokenInterface public stablecoin */\n    tag_84:\n      0x02\n      0x00\n      swap1\n      sload\n      swap1\n      0x0100\n      exp\n      swap1\n      div\n      0xffffffffffffffffffffffffffffffffffffffff\n      and\n      dup2\n      jump\t// out\n        /* \"@openzeppelin/contracts/access/Ownable.sol\":2543:2758  function transferOwnership(address newOwner) public virtual onlyOwner {... */\n    tag_90:\n        /* \"@openzeppelin/contracts/access/Ownable.sol\":1531:1544  _checkOwner() */\n      tag_173\n        /* \"@openzeppelin/contracts/access/Ownable.sol\":1531:1542  _checkOwner */\n      tag_125\n        /* \"@openzeppelin/contracts/access/Ownable.sol\":1531:1544  _checkOwner() */\n      jump\t// in\n    tag_173:\n        /* \"@openzeppelin/contracts/access/Ownable.sol\":2647:2648  0 */\n      0x00\n        /* \"@openzeppelin/contracts/access/Ownable.sol\":2627:2649  newOwner == address(0) */\n      0xffffffffffffffffffffffffffffffffffffffff\n      and\n        /* \"@openzeppelin/contracts/access/Ownable.sol\":2627:2635  newOwner */\n      dup2\n        /* \"@openzeppelin/contracts/access/Ownable.sol\":2627:2649  newOwner == address(0) */\n      0xffffffffffffffffffffffffffffffffffffffff\n      and\n      sub\n        /* \"@openzeppelin/contracts/access/Ownable.sol\":2623:2714  if (newOwner == address(0)) {... */\n      tag_175\n      jumpi\n        /* \"@openzeppelin/contracts/access/Ownable.sol\":2700:2701  0 */\n      0x00\n        /* \"@openzeppelin/contracts/access/Ownable.sol\":2672:2703  OwnableInvalidOwner(address(0)) */\n      mload(0x40)\n      0x1e4fbdf700000000000000000000000000000000000000000000000000000000\n      dup2\n      mstore\n      0x04\n      add\n      tag_176\n      swap2\n      swap1\n      tag_69\n      jump\t// in\n    tag_176:\n      mload(0x40)\n      dup1\n      swap2\n      sub\n      swap1\n      revert\n        /* \"@openzeppelin/contracts/access/Ownable.sol\":2623:2714  if (newOwner == address(0)) {... */\n    tag_175:\n        /* \"@openzeppelin/contracts/access/Ownable.sol\":2723:2751  _transferOwnership(newOwner) */\n      tag_177\n        /* \"@openzeppelin/contracts/access/Ownable.sol\":2742:2750  newOwner */\n      dup2\n        /* \"@openzeppelin/contracts/access/Ownable.sol\":2723:2741  _transferOwnership */\n      tag_153\n        /* \"@openzeppelin/contracts/access/Ownable.sol\":2723:2751  _transferOwnership(newOwner) */\n      jump\t// in\n    tag_177:\n        /* \"@openzeppelin/contracts/access/Ownable.sol\":2543:2758  function transferOwnership(address newOwner) public virtual onlyOwner {... */\n      pop\n      jump\t// out\n        /* \"DeFiLending.sol\":1023:1074  mapping(address => uint256) public collateralNative */\n    tag_94:\n      mstore(0x20, 0x03)\n      dup1\n      0x00\n      mstore\n      keccak256(0x00, 0x40)\n      0x00\n      swap2\n      pop\n      swap1\n      pop\n      sload\n      dup2\n      jump\t// out\n        /* \"@openzeppelin/contracts/access/Ownable.sol\":1796:1958  function _checkOwner() internal view virtual {... */\n    tag_125:\n        /* \"@openzeppelin/contracts/access/Ownable.sol\":1866:1878  _msgSender() */\n      tag_179\n        /* \"@openzeppelin/contracts/access/Ownable.sol\":1866:1876  _msgSender */\n      tag_180\n        /* \"@openzeppelin/contracts/access/Ownable.sol\":1866:1878  _msgSender() */\n      jump\t// in\n    tag_179:\n        /* \"@openzeppelin/contracts/access/Ownable.sol\":1855:1878  owner() != _msgSender() */\n      0xffffffffffffffffffffffffffffffffffffffff\n      and\n        /* \"@openzeppelin/contracts/access/Ownable.sol\":1855:1862  owner() */\n      tag_181\n        /* \"@openzeppelin/contracts/access/Ownable.sol\":1855:1860  owner */\n      tag_67\n        /* \"@openzeppelin/contracts/access/Ownable.sol\":1855:1862  owner() */\n      jump\t// in\n    tag_181:\n        /* \"@openzeppelin/contracts/access/Ownable.sol\":1855:1878  owner() != _msgSender() */\n      0xffffffffffffffffffffffffffffffffffffffff\n      and\n      eq\n        /* \"@openzeppelin/contracts/access/Ownable.sol\":1851:1952  if (owner() != _msgSender()) {... */\n      tag_182\n      jumpi\n        /* \"@openzeppelin/contracts/access/Ownable.sol\":1928:1940  _msgSender() */\n      tag_183\n        /* \"@openzeppelin/contracts/access/Ownable.sol\":1928:1938  _msgSender */\n      tag_180\n        /* \"@openzeppelin/contracts/access/Ownable.sol\":1928:1940  _msgSender() */\n      jump\t// in\n    tag_183:\n        /* \"@openzeppelin/contracts/access/Ownable.sol\":1901:1941  OwnableUnauthorizedAccount(_msgSender()) */\n      mload(0x40)\n      0x118cdaa700000000000000000000000000000000000000000000000000000000\n      dup2\n      mstore\n      0x04\n      add\n      tag_184\n      swap2\n      swap1\n      tag_69\n      jump\t// in\n    tag_184:\n      mload(0x40)\n      dup1\n      swap2\n      sub\n      swap1\n      revert\n        /* \"@openzeppelin/contracts/access/Ownable.sol\":1851:1952  if (owner() != _msgSender()) {... */\n    tag_182:\n        /* \"@openzeppelin/contracts/access/Ownable.sol\":1796:1958  function _checkOwner() internal view virtual {... */\n      jump\t// out\n        /* \"@openzeppelin/contracts/access/Ownable.sol\":2912:3099  function _transferOwnership(address newOwner) internal virtual {... */\n    tag_153:\n        /* \"@openzeppelin/contracts/access/Ownable.sol\":2985:3001  address oldOwner */\n      0x00\n        /* \"@openzeppelin/contracts/access/Ownable.sol\":3004:3010  _owner */\n      dup1\n      0x00\n      swap1\n      sload\n      swap1\n      0x0100\n      exp\n      swap1\n      div\n      0xffffffffffffffffffffffffffffffffffffffff\n      and\n        /* \"@openzeppelin/contracts/access/Ownable.sol\":2985:3010  address oldOwner = _owner */\n      swap1\n      pop\n        /* \"@openzeppelin/contracts/access/Ownable.sol\":3029:3037  newOwner */\n      dup2\n        /* \"@openzeppelin/contracts/access/Ownable.sol\":3020:3026  _owner */\n      0x00\n      dup1\n        /* \"@openzeppelin/contracts/access/Ownable.sol\":3020:3037  _owner = newOwner */\n      0x0100\n      exp\n      dup2\n      sload\n      dup2\n      0xffffffffffffffffffffffffffffffffffffffff\n      mul\n      not\n      and\n      swap1\n      dup4\n      0xffffffffffffffffffffffffffffffffffffffff\n      and\n      mul\n      or\n      swap1\n      sstore\n      pop\n        /* \"@openzeppelin/contracts/access/Ownable.sol\":3083:3091  newOwner */\n      dup2\n        /* \"@openzeppelin/contracts/access/Ownable.sol\":3052:3092  OwnershipTransferred(oldOwner, newOwner) */\n      0xffffffffffffffffffffffffffffffffffffffff\n      and\n        /* \"@openzeppelin/contracts/access/Ownable.sol\":3073:3081  oldOwner */\n      dup2\n        /* \"@openzeppelin/contracts/access/Ownable.sol\":3052:3092  OwnershipTransferred(oldOwner, newOwner) */\n      0xffffffffffffffffffffffffffffffffffffffff\n      and\n      0x8be0079c531659141344cd1fd0a4f28419497f9722a3daafe3b4186f6b6457e0\n      mload(0x40)\n      mload(0x40)\n      dup1\n      swap2\n      sub\n      swap1\n      log3\n        /* \"@openzeppelin/contracts/access/Ownable.sol\":2975:3099  {... */\n      pop\n        /* \"@openzeppelin/contracts/access/Ownable.sol\":2912:3099  function _transferOwnership(address newOwner) internal virtual {... */\n      pop\n      jump\t// out\n        /* \"@openzeppelin/contracts/utils/Context.sol\":656:752  function _msgSender() internal view virtual returns (address) {... */\n    tag_180:\n        /* \"@openzeppelin/contracts/utils/Context.sol\":709:716  address */\n      0x00\n        /* \"@openzeppelin/contracts/utils/Context.sol\":735:745  msg.sender */\n      caller\n        /* \"@openzeppelin/contracts/utils/Context.sol\":728:745  return msg.sender */\n      swap1\n      pop\n        /* \"@openzeppelin/contracts/utils/Context.sol\":656:752  function _msgSender() internal view virtual returns (address) {... */\n      swap1\n      jump\t// out\n        /* \"#utility.yul\":88:205   */\n    tag_188:\n        /* \"#utility.yul\":197:198   */\n      0x00\n        /* \"#utility.yul\":194:195   */\n      dup1\n        /* \"#utility.yul\":187:199   */\n      revert\n        /* \"#utility.yul\":334:411   */\n    tag_190:\n        /* \"#utility.yul\":371:378   */\n      0x00\n        /* \"#utility.yul\":400:405   */\n      dup2\n        /* \"#utility.yul\":389:405   */\n      swap1\n      pop\n        /* \"#utility.yul\":334:411   */\n      swap2\n      swap1\n      pop\n      jump\t// out\n        /* \"#utility.yul\":417:539   */\n    tag_191:\n        /* \"#utility.yul\":490:514   */\n      tag_242\n        /* \"#utility.yul\":508:513   */\n      dup2\n        /* \"#utility.yul\":490:514   */\n      tag_190\n      jump\t// in\n    tag_242:\n        /* \"#utility.yul\":483:488   */\n      dup2\n        /* \"#utility.yul\":480:515   */\n      eq\n        /* \"#utility.yul\":470:533   */\n      tag_243\n      jumpi\n        /* \"#utility.yul\":529:530   */\n      0x00\n        /* \"#utility.yul\":526:527   */\n      dup1\n        /* \"#utility.yul\":519:531   */\n      revert\n        /* \"#utility.yul\":470:533   */\n    tag_243:\n        /* \"#utility.yul\":417:539   */\n      pop\n      jump\t// out\n        /* \"#utility.yul\":545:684   */\n    tag_192:\n        /* \"#utility.yul\":591:596   */\n      0x00\n        /* \"#utility.yul\":629:635   */\n      dup2\n        /* \"#utility.yul\":616:636   */\n      calldataload\n        /* \"#utility.yul\":607:636   */\n      swap1\n      pop\n        /* \"#utility.yul\":645:678   */\n      tag_245\n        /* \"#utility.yul\":672:677   */\n      dup2\n        /* \"#utility.yul\":645:678   */\n      tag_191\n      jump\t// in\n    tag_245:\n        /* \"#utility.yul\":545:684   */\n      swap3\n      swap2\n      pop\n      pop\n      jump\t// out\n        /* \"#utility.yul\":690:1019   */\n    tag_27:\n        /* \"#utility.yul\":749:755   */\n      0x00\n        /* \"#utility.yul\":798:800   */\n      0x20\n        /* \"#utility.yul\":786:795   */\n      dup3\n        /* \"#utility.yul\":777:784   */\n      dup5\n        /* \"#utility.yul\":773:796   */\n      sub\n        /* \"#utility.yul\":769:801   */\n      slt\n        /* \"#utility.yul\":766:885   */\n      iszero\n      tag_247\n      jumpi\n        /* \"#utility.yul\":804:883   */\n      tag_248\n      tag_188\n      jump\t// in\n    tag_248:\n        /* \"#utility.yul\":766:885   */\n    tag_247:\n        /* \"#utility.yul\":924:925   */\n      0x00\n        /* \"#utility.yul\":949:1002   */\n      tag_249\n        /* \"#utility.yul\":994:1001   */\n      dup5\n        /* \"#utility.yul\":985:991   */\n      dup3\n        /* \"#utility.yul\":974:983   */\n      dup6\n        /* \"#utility.yul\":970:992   */\n      add\n        /* \"#utility.yul\":949:1002   */\n      tag_192\n      jump\t// in\n    tag_249:\n        /* \"#utility.yul\":939:1002   */\n      swap2\n      pop\n        /* \"#utility.yul\":895:1012   */\n      pop\n        /* \"#utility.yul\":690:1019   */\n      swap3\n      swap2\n      pop\n      pop\n      jump\t// out\n        /* \"#utility.yul\":1025:1143   */\n    tag_193:\n        /* \"#utility.yul\":1112:1136   */\n      tag_251\n        /* \"#utility.yul\":1130:1135   */\n      dup2\n        /* \"#utility.yul\":1112:1136   */\n      tag_190\n      jump\t// in\n    tag_251:\n        /* \"#utility.yul\":1107:1110   */\n      dup3\n        /* \"#utility.yul\":1100:1137   */\n      mstore\n        /* \"#utility.yul\":1025:1143   */\n      pop\n      pop\n      jump\t// out\n        /* \"#utility.yul\":1149:1371   */\n    tag_30:\n        /* \"#utility.yul\":1242:1246   */\n      0x00\n        /* \"#utility.yul\":1280:1282   */\n      0x20\n        /* \"#utility.yul\":1269:1278   */\n      dup3\n        /* \"#utility.yul\":1265:1283   */\n      add\n        /* \"#utility.yul\":1257:1283   */\n      swap1\n      pop\n        /* \"#utility.yul\":1293:1364   */\n      tag_253\n        /* \"#utility.yul\":1361:1362   */\n      0x00\n        /* \"#utility.yul\":1350:1359   */\n      dup4\n        /* \"#utility.yul\":1346:1363   */\n      add\n        /* \"#utility.yul\":1337:1343   */\n      dup5\n        /* \"#utility.yul\":1293:1364   */\n      tag_193\n      jump\t// in\n    tag_253:\n        /* \"#utility.yul\":1149:1371   */\n      swap3\n      swap2\n      pop\n      pop\n      jump\t// out\n        /* \"#utility.yul\":1377:1503   */\n    tag_194:\n        /* \"#utility.yul\":1414:1421   */\n      0x00\n        /* \"#utility.yul\":1454:1496   */\n      0xffffffffffffffffffffffffffffffffffffffff\n        /* \"#utility.yul\":1447:1452   */\n      dup3\n        /* \"#utility.yul\":1443:1497   */\n      and\n        /* \"#utility.yul\":1432:1497   */\n      swap1\n      pop\n        /* \"#utility.yul\":1377:1503   */\n      swap2\n      swap1\n      pop\n      jump\t// out\n        /* \"#utility.yul\":1509:1605   */\n    tag_195:\n        /* \"#utility.yul\":1546:1553   */\n      0x00\n        /* \"#utility.yul\":1575:1599   */\n      tag_256\n        /* \"#utility.yul\":1593:1598   */\n      dup3\n        /* \"#utility.yul\":1575:1599   */\n      tag_194\n      jump\t// in\n    tag_256:\n        /* \"#utility.yul\":1564:1599   */\n      swap1\n      pop\n        /* \"#utility.yul\":1509:1605   */\n      swap2\n      swap1\n      pop\n      jump\t// out\n        /* \"#utility.yul\":1611:1733   */\n    tag_196:\n        /* \"#utility.yul\":1684:1708   */\n      tag_258\n        /* \"#utility.yul\":1702:1707   */\n      dup2\n        /* \"#utility.yul\":1684:1708   */\n      tag_195\n      jump\t// in\n    tag_258:\n        /* \"#utility.yul\":1677:1682   */\n      dup2\n        /* \"#utility.yul\":1674:1709   */\n      eq\n        /* \"#utility.yul\":1664:1727   */\n      tag_259\n      jumpi\n        /* \"#utility.yul\":1723:1724   */\n      0x00\n        /* \"#utility.yul\":1720:1721   */\n      dup1\n        /* \"#utility.yul\":1713:1725   */\n      revert\n        /* \"#utility.yul\":1664:1727   */\n    tag_259:\n        /* \"#utility.yul\":1611:1733   */\n      pop\n      jump\t// out\n        /* \"#utility.yul\":1739:1878   */\n    tag_197:\n        /* \"#utility.yul\":1785:1790   */\n      0x00\n        /* \"#utility.yul\":1823:1829   */\n      dup2\n        /* \"#utility.yul\":1810:1830   */\n      calldataload\n        /* \"#utility.yul\":1801:1830   */\n      swap1\n      pop\n        /* \"#utility.yul\":1839:1872   */\n      tag_261\n        /* \"#utility.yul\":1866:1871   */\n      dup2\n        /* \"#utility.yul\":1839:1872   */\n      tag_196\n      jump\t// in\n    tag_261:\n        /* \"#utility.yul\":1739:1878   */\n      swap3\n      swap2\n      pop\n      pop\n      jump\t// out\n        /* \"#utility.yul\":1884:2213   */\n    tag_34:\n        /* \"#utility.yul\":1943:1949   */\n      0x00\n        /* \"#utility.yul\":1992:1994   */\n      0x20\n        /* \"#utility.yul\":1980:1989   */\n      dup3\n        /* \"#utility.yul\":1971:1978   */\n      dup5\n        /* \"#utility.yul\":1967:1990   */\n      sub\n        /* \"#utility.yul\":1963:1995   */\n      slt\n        /* \"#utility.yul\":1960:2079   */\n      iszero\n      tag_263\n      jumpi\n        /* \"#utility.yul\":1998:2077   */\n      tag_264\n      tag_188\n      jump\t// in\n    tag_264:\n        /* \"#utility.yul\":1960:2079   */\n    tag_263:\n        /* \"#utility.yul\":2118:2119   */\n      0x00\n        /* \"#utility.yul\":2143:2196   */\n      tag_265\n        /* \"#utility.yul\":2188:2195   */\n      dup5\n        /* \"#utility.yul\":2179:2185   */\n      dup3\n        /* \"#utility.yul\":2168:2177   */\n      dup6\n        /* \"#utility.yul\":2164:2186   */\n      add\n        /* \"#utility.yul\":2143:2196   */\n      tag_197\n      jump\t// in\n    tag_265:\n        /* \"#utility.yul\":2133:2196   */\n      swap2\n      pop\n        /* \"#utility.yul\":2089:2206   */\n      pop\n        /* \"#utility.yul\":1884:2213   */\n      swap3\n      swap2\n      pop\n      pop\n      jump\t// out\n        /* \"#utility.yul\":2219:2305   */\n    tag_198:\n        /* \"#utility.yul\":2254:2261   */\n      0x00\n        /* \"#utility.yul\":2294:2298   */\n      0xff\n        /* \"#utility.yul\":2287:2292   */\n      dup3\n        /* \"#utility.yul\":2283:2299   */\n      and\n        /* \"#utility.yul\":2272:2299   */\n      swap1\n      pop\n        /* \"#utility.yul\":2219:2305   */\n      swap2\n      swap1\n      pop\n      jump\t// out\n        /* \"#utility.yul\":2311:2423   */\n    tag_199:\n        /* \"#utility.yul\":2394:2416   */\n      tag_268\n        /* \"#utility.yul\":2410:2415   */\n      dup2\n        /* \"#utility.yul\":2394:2416   */\n      tag_198\n      jump\t// in\n    tag_268:\n        /* \"#utility.yul\":2389:2392   */\n      dup3\n        /* \"#utility.yul\":2382:2417   */\n      mstore\n        /* \"#utility.yul\":2311:2423   */\n      pop\n      pop\n      jump\t// out\n        /* \"#utility.yul\":2429:2643   */\n    tag_45:\n        /* \"#utility.yul\":2518:2522   */\n      0x00\n        /* \"#utility.yul\":2556:2558   */\n      0x20\n        /* \"#utility.yul\":2545:2554   */\n      dup3\n        /* \"#utility.yul\":2541:2559   */\n      add\n        /* \"#utility.yul\":2533:2559   */\n      swap1\n      pop\n        /* \"#utility.yul\":2569:2636   */\n      tag_270\n        /* \"#utility.yul\":2633:2634   */\n      0x00\n        /* \"#utility.yul\":2622:2631   */\n      dup4\n        /* \"#utility.yul\":2618:2635   */\n      add\n        /* \"#utility.yul\":2609:2615   */\n      dup5\n        /* \"#utility.yul\":2569:2636   */\n      tag_199\n      jump\t// in\n    tag_270:\n        /* \"#utility.yul\":2429:2643   */\n      swap3\n      swap2\n      pop\n      pop\n      jump\t// out\n        /* \"#utility.yul\":2649:3123   */\n    tag_49:\n        /* \"#utility.yul\":2717:2723   */\n      0x00\n        /* \"#utility.yul\":2725:2731   */\n      dup1\n        /* \"#utility.yul\":2774:2776   */\n      0x40\n        /* \"#utility.yul\":2762:2771   */\n      dup4\n        /* \"#utility.yul\":2753:2760   */\n      dup6\n        /* \"#utility.yul\":2749:2772   */\n      sub\n        /* \"#utility.yul\":2745:2777   */\n      slt\n        /* \"#utility.yul\":2742:2861   */\n      iszero\n      tag_272\n      jumpi\n        /* \"#utility.yul\":2780:2859   */\n      tag_273\n      tag_188\n      jump\t// in\n    tag_273:\n        /* \"#utility.yul\":2742:2861   */\n    tag_272:\n        /* \"#utility.yul\":2900:2901   */\n      0x00\n        /* \"#utility.yul\":2925:2978   */\n      tag_274\n        /* \"#utility.yul\":2970:2977   */\n      dup6\n        /* \"#utility.yul\":2961:2967   */\n      dup3\n        /* \"#utility.yul\":2950:2959   */\n      dup7\n        /* \"#utility.yul\":2946:2968   */\n      add\n        /* \"#utility.yul\":2925:2978   */\n      tag_197\n      jump\t// in\n    tag_274:\n        /* \"#utility.yul\":2915:2978   */\n      swap3\n      pop\n        /* \"#utility.yul\":2871:2988   */\n      pop\n        /* \"#utility.yul\":3027:3029   */\n      0x20\n        /* \"#utility.yul\":3053:3106   */\n      tag_275\n        /* \"#utility.yul\":3098:3105   */\n      dup6\n        /* \"#utility.yul\":3089:3095   */\n      dup3\n        /* \"#utility.yul\":3078:3087   */\n      dup7\n        /* \"#utility.yul\":3074:3096   */\n      add\n        /* \"#utility.yul\":3053:3106   */\n      tag_192\n      jump\t// in\n    tag_275:\n        /* \"#utility.yul\":3043:3106   */\n      swap2\n      pop\n        /* \"#utility.yul\":2998:3116   */\n      pop\n        /* \"#utility.yul\":2649:3123   */\n      swap3\n      pop\n      swap3\n      swap1\n      pop\n      jump\t// out\n        /* \"#utility.yul\":3129:3189   */\n    tag_200:\n        /* \"#utility.yul\":3157:3160   */\n      0x00\n        /* \"#utility.yul\":3178:3183   */\n      dup2\n        /* \"#utility.yul\":3171:3183   */\n      swap1\n      pop\n        /* \"#utility.yul\":3129:3189   */\n      swap2\n      swap1\n      pop\n      jump\t// out\n        /* \"#utility.yul\":3195:3337   */\n    tag_201:\n        /* \"#utility.yul\":3245:3254   */\n      0x00\n        /* \"#utility.yul\":3278:3331   */\n      tag_278\n        /* \"#utility.yul\":3296:3330   */\n      tag_279\n        /* \"#utility.yul\":3305:3329   */\n      tag_280\n        /* \"#utility.yul\":3323:3328   */\n      dup5\n        /* \"#utility.yul\":3305:3329   */\n      tag_194\n      jump\t// in\n    tag_280:\n        /* \"#utility.yul\":3296:3330   */\n      tag_200\n      jump\t// in\n    tag_279:\n        /* \"#utility.yul\":3278:3331   */\n      tag_194\n      jump\t// in\n    tag_278:\n        /* \"#utility.yul\":3265:3331   */\n      swap1\n      pop\n        /* \"#utility.yul\":3195:3337   */\n      swap2\n      swap1\n      pop\n      jump\t// out\n        /* \"#utility.yul\":3343:3469   */\n    tag_202:\n        /* \"#utility.yul\":3393:3402   */\n      0x00\n        /* \"#utility.yul\":3426:3463   */\n      tag_282\n        /* \"#utility.yul\":3457:3462   */\n      dup3\n        /* \"#utility.yul\":3426:3463   */\n      tag_201\n      jump\t// in\n    tag_282:\n        /* \"#utility.yul\":3413:3463   */\n      swap1\n      pop\n        /* \"#utility.yul\":3343:3469   */\n      swap2\n      swap1\n      pop\n      jump\t// out\n        /* \"#utility.yul\":3475:3629   */\n    tag_203:\n        /* \"#utility.yul\":3553:3562   */\n      0x00\n        /* \"#utility.yul\":3586:3623   */\n      tag_284\n        /* \"#utility.yul\":3617:3622   */\n      dup3\n        /* \"#utility.yul\":3586:3623   */\n      tag_202\n      jump\t// in\n    tag_284:\n        /* \"#utility.yul\":3573:3623   */\n      swap1\n      pop\n        /* \"#utility.yul\":3475:3629   */\n      swap2\n      swap1\n      pop\n      jump\t// out\n        /* \"#utility.yul\":3635:3822   */\n    tag_204:\n        /* \"#utility.yul\":3750:3815   */\n      tag_286\n        /* \"#utility.yul\":3809:3814   */\n      dup2\n        /* \"#utility.yul\":3750:3815   */\n      tag_203\n      jump\t// in\n    tag_286:\n        /* \"#utility.yul\":3745:3748   */\n      dup3\n        /* \"#utility.yul\":3738:3816   */\n      mstore\n        /* \"#utility.yul\":3635:3822   */\n      pop\n      pop\n      jump\t// out\n        /* \"#utility.yul\":3828:4106   */\n    tag_64:\n        /* \"#utility.yul\":3949:3953   */\n      0x00\n        /* \"#utility.yul\":3987:3989   */\n      0x20\n        /* \"#utility.yul\":3976:3985   */\n      dup3\n        /* \"#utility.yul\":3972:3990   */\n      add\n        /* \"#utility.yul\":3964:3990   */\n      swap1\n      pop\n        /* \"#utility.yul\":4000:4099   */\n      tag_288\n        /* \"#utility.yul\":4096:4097   */\n      0x00\n        /* \"#utility.yul\":4085:4094   */\n      dup4\n        /* \"#utility.yul\":4081:4098   */\n      add\n        /* \"#utility.yul\":4072:4078   */\n      dup5\n        /* \"#utility.yul\":4000:4099   */\n      tag_204\n      jump\t// in\n    tag_288:\n        /* \"#utility.yul\":3828:4106   */\n      swap3\n      swap2\n      pop\n      pop\n      jump\t// out\n        /* \"#utility.yul\":4112:4230   */\n    tag_205:\n        /* \"#utility.yul\":4199:4223   */\n      tag_290\n        /* \"#utility.yul\":4217:4222   */\n      dup2\n        /* \"#utility.yul\":4199:4223   */\n      tag_195\n      jump\t// in\n    tag_290:\n        /* \"#utility.yul\":4194:4197   */\n      dup3\n        /* \"#utility.yul\":4187:4224   */\n      mstore\n        /* \"#utility.yul\":4112:4230   */\n      pop\n      pop\n      jump\t// out\n        /* \"#utility.yul\":4236:4458   */\n    tag_69:\n        /* \"#utility.yul\":4329:4333   */\n      0x00\n        /* \"#utility.yul\":4367:4369   */\n      0x20\n        /* \"#utility.yul\":4356:4365   */\n      dup3\n        /* \"#utility.yul\":4352:4370   */\n      add\n        /* \"#utility.yul\":4344:4370   */\n      swap1\n      pop\n        /* \"#utility.yul\":4380:4451   */\n      tag_292\n        /* \"#utility.yul\":4448:4449   */\n      0x00\n        /* \"#utility.yul\":4437:4446   */\n      dup4\n        /* \"#utility.yul\":4433:4450   */\n      add\n        /* \"#utility.yul\":4424:4430   */\n      dup5\n        /* \"#utility.yul\":4380:4451   */\n      tag_205\n      jump\t// in\n    tag_292:\n        /* \"#utility.yul\":4236:4458   */\n      swap3\n      swap2\n      pop\n      pop\n      jump\t// out\n        /* \"#utility.yul\":4464:4612   */\n    tag_206:\n        /* \"#utility.yul\":4536:4545   */\n      0x00\n        /* \"#utility.yul\":4569:4606   */\n      tag_294\n        /* \"#utility.yul\":4600:4605   */\n      dup3\n        /* \"#utility.yul\":4569:4606   */\n      tag_202\n      jump\t// in\n    tag_294:\n        /* \"#utility.yul\":4556:4606   */\n      swap1\n      pop\n        /* \"#utility.yul\":4464:4612   */\n      swap2\n      swap1\n      pop\n      jump\t// out\n        /* \"#utility.yul\":4618:4793   */\n    tag_207:\n        /* \"#utility.yul\":4727:4786   */\n      tag_296\n        /* \"#utility.yul\":4780:4785   */\n      dup2\n        /* \"#utility.yul\":4727:4786   */\n      tag_206\n      jump\t// in\n    tag_296:\n        /* \"#utility.yul\":4722:4725   */\n      dup3\n        /* \"#utility.yul\":4715:4787   */\n      mstore\n        /* \"#utility.yul\":4618:4793   */\n      pop\n      pop\n      jump\t// out\n        /* \"#utility.yul\":4799:5065   */\n    tag_86:\n        /* \"#utility.yul\":4914:4918   */\n      0x00\n        /* \"#utility.yul\":4952:4954   */\n      0x20\n        /* \"#utility.yul\":4941:4950   */\n      dup3\n        /* \"#utility.yul\":4937:4955   */\n      add\n        /* \"#utility.yul\":4929:4955   */\n      swap1\n      pop\n        /* \"#utility.yul\":4965:5058   */\n      tag_298\n        /* \"#utility.yul\":5055:5056   */\n      0x00\n        /* \"#utility.yul\":5044:5053   */\n      dup4\n        /* \"#utility.yul\":5040:5057   */\n      add\n        /* \"#utility.yul\":5031:5037   */\n      dup5\n        /* \"#utility.yul\":4965:5058   */\n      tag_207\n      jump\t// in\n    tag_298:\n        /* \"#utility.yul\":4799:5065   */\n      swap3\n      swap2\n      pop\n      pop\n      jump\t// out\n        /* \"#utility.yul\":5071:5251   */\n    tag_208:\n        /* \"#utility.yul\":5119:5196   */\n      0x4e487b7100000000000000000000000000000000000000000000000000000000\n        /* \"#utility.yul\":5116:5117   */\n      0x00\n        /* \"#utility.yul\":5109:5197   */\n      mstore\n        /* \"#utility.yul\":5216:5220   */\n      0x11\n        /* \"#utility.yul\":5213:5214   */\n      0x04\n        /* \"#utility.yul\":5206:5221   */\n      mstore\n        /* \"#utility.yul\":5240:5244   */\n      0x24\n        /* \"#utility.yul\":5237:5238   */\n      0x00\n        /* \"#utility.yul\":5230:5245   */\n      revert\n        /* \"#utility.yul\":5257:5451   */\n    tag_99:\n        /* \"#utility.yul\":5297:5301   */\n      0x00\n        /* \"#utility.yul\":5317:5337   */\n      tag_301\n        /* \"#utility.yul\":5335:5336   */\n      dup3\n        /* \"#utility.yul\":5317:5337   */\n      tag_190\n      jump\t// in\n    tag_301:\n        /* \"#utility.yul\":5312:5337   */\n      swap2\n      pop\n        /* \"#utility.yul\":5351:5371   */\n      tag_302\n        /* \"#utility.yul\":5369:5370   */\n      dup4\n        /* \"#utility.yul\":5351:5371   */\n      tag_190\n      jump\t// in\n    tag_302:\n        /* \"#utility.yul\":5346:5371   */\n      swap3\n      pop\n        /* \"#utility.yul\":5395:5396   */\n      dup3\n        /* \"#utility.yul\":5392:5393   */\n      dup3\n        /* \"#utility.yul\":5388:5397   */\n      sub\n        /* \"#utility.yul\":5380:5397   */\n      swap1\n      pop\n        /* \"#utility.yul\":5419:5420   */\n      dup2\n        /* \"#utility.yul\":5413:5417   */\n      dup2\n        /* \"#utility.yul\":5410:5421   */\n      gt\n        /* \"#utility.yul\":5407:5444   */\n      iszero\n      tag_303\n      jumpi\n        /* \"#utility.yul\":5424:5442   */\n      tag_304\n      tag_208\n      jump\t// in\n    tag_304:\n        /* \"#utility.yul\":5407:5444   */\n    tag_303:\n        /* \"#utility.yul\":5257:5451   */\n      swap3\n      swap2\n      pop\n      pop\n      jump\t// out\n        /* \"#utility.yul\":5457:5559   */\n    tag_209:\n        /* \"#utility.yul\":5499:5507   */\n      0x00\n        /* \"#utility.yul\":5546:5551   */\n      dup2\n        /* \"#utility.yul\":5543:5544   */\n      0x01\n        /* \"#utility.yul\":5539:5552   */\n      shr\n        /* \"#utility.yul\":5518:5552   */\n      swap1\n      pop\n        /* \"#utility.yul\":5457:5559   */\n      swap2\n      swap1\n      pop\n      jump\t// out\n        /* \"#utility.yul\":5565:6413   */\n    tag_210:\n        /* \"#utility.yul\":5626:5631   */\n      0x00\n        /* \"#utility.yul\":5633:5637   */\n      dup1\n        /* \"#utility.yul\":5657:5663   */\n      dup3\n        /* \"#utility.yul\":5648:5663   */\n      swap2\n      pop\n        /* \"#utility.yul\":5681:5686   */\n      dup4\n        /* \"#utility.yul\":5672:5686   */\n      swap1\n      pop\n        /* \"#utility.yul\":5695:6407   */\n    tag_307:\n        /* \"#utility.yul\":5716:5717   */\n      0x01\n        /* \"#utility.yul\":5706:5714   */\n      dup6\n        /* \"#utility.yul\":5703:5718   */\n      gt\n        /* \"#utility.yul\":5695:6407   */\n      iszero\n      tag_309\n      jumpi\n        /* \"#utility.yul\":5811:5815   */\n      dup1\n        /* \"#utility.yul\":5806:5809   */\n      dup7\n        /* \"#utility.yul\":5802:5816   */\n      div\n        /* \"#utility.yul\":5796:5800   */\n      dup2\n        /* \"#utility.yul\":5793:5817   */\n      gt\n        /* \"#utility.yul\":5790:5840   */\n      iszero\n      tag_310\n      jumpi\n        /* \"#utility.yul\":5820:5838   */\n      tag_311\n      tag_208\n      jump\t// in\n    tag_311:\n        /* \"#utility.yul\":5790:5840   */\n    tag_310:\n        /* \"#utility.yul\":5870:5871   */\n      0x01\n        /* \"#utility.yul\":5860:5868   */\n      dup6\n        /* \"#utility.yul\":5856:5872   */\n      and\n        /* \"#utility.yul\":5853:6304   */\n      iszero\n      tag_312\n      jumpi\n        /* \"#utility.yul\":6285:6289   */\n      dup1\n        /* \"#utility.yul\":6278:6283   */\n      dup3\n        /* \"#utility.yul\":6274:6290   */\n      mul\n        /* \"#utility.yul\":6265:6290   */\n      swap2\n      pop\n        /* \"#utility.yul\":5853:6304   */\n    tag_312:\n        /* \"#utility.yul\":6335:6339   */\n      dup1\n        /* \"#utility.yul\":6329:6333   */\n      dup2\n        /* \"#utility.yul\":6325:6340   */\n      mul\n        /* \"#utility.yul\":6317:6340   */\n      swap1\n      pop\n        /* \"#utility.yul\":6365:6397   */\n      tag_313\n        /* \"#utility.yul\":6388:6396   */\n      dup6\n        /* \"#utility.yul\":6365:6397   */\n      tag_209\n      jump\t// in\n    tag_313:\n        /* \"#utility.yul\":6353:6397   */\n      swap5\n      pop\n        /* \"#utility.yul\":5695:6407   */\n      jump(tag_307)\n    tag_309:\n        /* \"#utility.yul\":5565:6413   */\n      swap5\n      pop\n      swap5\n      swap3\n      pop\n      pop\n      pop\n      jump\t// out\n        /* \"#utility.yul\":6419:7492   */\n    tag_211:\n        /* \"#utility.yul\":6473:6478   */\n      0x00\n        /* \"#utility.yul\":6664:6672   */\n      dup3\n        /* \"#utility.yul\":6654:6694   */\n      tag_315\n      jumpi\n        /* \"#utility.yul\":6685:6686   */\n      0x01\n        /* \"#utility.yul\":6676:6686   */\n      swap1\n      pop\n        /* \"#utility.yul\":6687:6692   */\n      jump(tag_314)\n        /* \"#utility.yul\":6654:6694   */\n    tag_315:\n        /* \"#utility.yul\":6713:6717   */\n      dup2\n        /* \"#utility.yul\":6703:6739   */\n      tag_316\n      jumpi\n        /* \"#utility.yul\":6730:6731   */\n      0x00\n        /* \"#utility.yul\":6721:6731   */\n      swap1\n      pop\n        /* \"#utility.yul\":6732:6737   */\n      jump(tag_314)\n        /* \"#utility.yul\":6703:6739   */\n    tag_316:\n        /* \"#utility.yul\":6799:6803   */\n      dup2\n        /* \"#utility.yul\":6847:6848   */\n      0x01\n        /* \"#utility.yul\":6842:6869   */\n      dup2\n      eq\n      tag_318\n      jumpi\n        /* \"#utility.yul\":6883:6884   */\n      0x02\n        /* \"#utility.yul\":6878:7069   */\n      dup2\n      eq\n      tag_319\n      jumpi\n        /* \"#utility.yul\":6792:7069   */\n      jump(tag_317)\n        /* \"#utility.yul\":6842:6869   */\n    tag_318:\n        /* \"#utility.yul\":6860:6861   */\n      0x01\n        /* \"#utility.yul\":6851:6861   */\n      swap2\n      pop\n        /* \"#utility.yul\":6862:6867   */\n      pop\n      jump(tag_314)\n        /* \"#utility.yul\":6878:7069   */\n    tag_319:\n        /* \"#utility.yul\":6923:6926   */\n      0xff\n        /* \"#utility.yul\":6913:6921   */\n      dup5\n        /* \"#utility.yul\":6910:6927   */\n      gt\n        /* \"#utility.yul\":6907:6950   */\n      iszero\n      tag_320\n      jumpi\n        /* \"#utility.yul\":6930:6948   */\n      tag_321\n      tag_208\n      jump\t// in\n    tag_321:\n        /* \"#utility.yul\":6907:6950   */\n    tag_320:\n        /* \"#utility.yul\":6979:6987   */\n      dup4\n        /* \"#utility.yul\":6976:6977   */\n      0x02\n        /* \"#utility.yul\":6972:6988   */\n      exp\n        /* \"#utility.yul\":6963:6988   */\n      swap2\n      pop\n        /* \"#utility.yul\":7014:7017   */\n      dup5\n        /* \"#utility.yul\":7007:7012   */\n      dup3\n        /* \"#utility.yul\":7004:7018   */\n      gt\n        /* \"#utility.yul\":7001:7041   */\n      iszero\n      tag_322\n      jumpi\n        /* \"#utility.yul\":7021:7039   */\n      tag_323\n      tag_208\n      jump\t// in\n    tag_323:\n        /* \"#utility.yul\":7001:7041   */\n    tag_322:\n        /* \"#utility.yul\":7054:7059   */\n      pop\n      jump(tag_314)\n        /* \"#utility.yul\":6792:7069   */\n    tag_317:\n      pop\n        /* \"#utility.yul\":7178:7180   */\n      0x20\n        /* \"#utility.yul\":7168:7176   */\n      dup4\n        /* \"#utility.yul\":7165:7181   */\n      lt\n        /* \"#utility.yul\":7159:7162   */\n      0x0133\n        /* \"#utility.yul\":7153:7157   */\n      dup4\n        /* \"#utility.yul\":7150:7163   */\n      lt\n        /* \"#utility.yul\":7146:7182   */\n      and\n        /* \"#utility.yul\":7128:7130   */\n      0x4e\n        /* \"#utility.yul\":7118:7126   */\n      dup5\n        /* \"#utility.yul\":7115:7131   */\n      lt\n        /* \"#utility.yul\":7110:7112   */\n      0x0b\n        /* \"#utility.yul\":7104:7108   */\n      dup5\n        /* \"#utility.yul\":7101:7113   */\n      lt\n        /* \"#utility.yul\":7097:7132   */\n      and\n        /* \"#utility.yul\":7081:7192   */\n      or\n        /* \"#utility.yul\":7078:7324   */\n      iszero\n      tag_324\n      jumpi\n        /* \"#utility.yul\":7234:7242   */\n      dup3\n        /* \"#utility.yul\":7228:7232   */\n      dup3\n        /* \"#utility.yul\":7224:7243   */\n      exp\n        /* \"#utility.yul\":7215:7243   */\n      swap1\n      pop\n        /* \"#utility.yul\":7269:7272   */\n      dup4\n        /* \"#utility.yul\":7262:7267   */\n      dup2\n        /* \"#utility.yul\":7259:7273   */\n      gt\n        /* \"#utility.yul\":7256:7296   */\n      iszero\n      tag_325\n      jumpi\n        /* \"#utility.yul\":7276:7294   */\n      tag_326\n      tag_208\n      jump\t// in\n    tag_326:\n        /* \"#utility.yul\":7256:7296   */\n    tag_325:\n        /* \"#utility.yul\":7309:7314   */\n      jump(tag_314)\n        /* \"#utility.yul\":7078:7324   */\n    tag_324:\n        /* \"#utility.yul\":7349:7391   */\n      tag_327\n        /* \"#utility.yul\":7387:7390   */\n      dup5\n        /* \"#utility.yul\":7377:7385   */\n      dup5\n        /* \"#utility.yul\":7371:7375   */\n      dup5\n        /* \"#utility.yul\":7368:7369   */\n      0x01\n        /* \"#utility.yul\":7349:7391   */\n      tag_210\n      jump\t// in\n    tag_327:\n        /* \"#utility.yul\":7334:7391   */\n      swap3\n      pop\n      swap1\n      pop\n        /* \"#utility.yul\":7423:7427   */\n      dup2\n        /* \"#utility.yul\":7418:7421   */\n      dup5\n        /* \"#utility.yul\":7414:7428   */\n      div\n        /* \"#utility.yul\":7407:7412   */\n      dup2\n        /* \"#utility.yul\":7404:7429   */\n      gt\n        /* \"#utility.yul\":7401:7452   */\n      iszero\n      tag_328\n      jumpi\n        /* \"#utility.yul\":7432:7450   */\n      tag_329\n      tag_208\n      jump\t// in\n    tag_329:\n        /* \"#utility.yul\":7401:7452   */\n    tag_328:\n        /* \"#utility.yul\":7481:7485   */\n      dup2\n        /* \"#utility.yul\":7474:7479   */\n      dup2\n        /* \"#utility.yul\":7470:7486   */\n      mul\n        /* \"#utility.yul\":7461:7486   */\n      swap1\n      pop\n        /* \"#utility.yul\":6419:7492   */\n    tag_314:\n      swap4\n      swap3\n      pop\n      pop\n      pop\n      jump\t// out\n        /* \"#utility.yul\":7498:7783   */\n    tag_101:\n        /* \"#utility.yul\":7558:7563   */\n      0x00\n        /* \"#utility.yul\":7582:7605   */\n      tag_331\n        /* \"#utility.yul\":7600:7604   */\n      dup3\n        /* \"#utility.yul\":7582:7605   */\n      tag_190\n      jump\t// in\n    tag_331:\n        /* \"#utility.yul\":7574:7605   */\n      swap2\n      pop\n        /* \"#utility.yul\":7626:7653   */\n      tag_332\n        /* \"#utility.yul\":7644:7652   */\n      dup4\n        /* \"#utility.yul\":7626:7653   */\n      tag_190\n      jump\t// in\n    tag_332:\n        /* \"#utility.yul\":7614:7653   */\n      swap3\n      pop\n        /* \"#utility.yul\":7672:7776   */\n      tag_333\n        /* \"#utility.yul\":7709:7775   */\n      0xffffffffffffffffffffffffffffffffffffffffffffffffffffffffffffffff\n        /* \"#utility.yul\":7699:7707   */\n      dup5\n        /* \"#utility.yul\":7693:7697   */\n      dup5\n        /* \"#utility.yul\":7672:7776   */\n      tag_211\n      jump\t// in\n    tag_333:\n        /* \"#utility.yul\":7663:7776   */\n      swap1\n      pop\n        /* \"#utility.yul\":7498:7783   */\n      swap3\n      swap2\n      pop\n      pop\n      jump\t// out\n        /* \"#utility.yul\":7789:8199   */\n    tag_103:\n        /* \"#utility.yul\":7829:7836   */\n      0x00\n        /* \"#utility.yul\":7852:7872   */\n      tag_335\n        /* \"#utility.yul\":7870:7871   */\n      dup3\n        /* \"#utility.yul\":7852:7872   */\n      tag_190\n      jump\t// in\n    tag_335:\n        /* \"#utility.yul\":7847:7872   */\n      swap2\n      pop\n        /* \"#utility.yul\":7886:7906   */\n      tag_336\n        /* \"#utility.yul\":7904:7905   */\n      dup4\n        /* \"#utility.yul\":7886:7906   */\n      tag_190\n      jump\t// in\n    tag_336:\n        /* \"#utility.yul\":7881:7906   */\n      swap3\n      pop\n        /* \"#utility.yul\":7941:7942   */\n      dup3\n        /* \"#utility.yul\":7938:7939   */\n      dup3\n        /* \"#utility.yul\":7934:7943   */\n      mul\n        /* \"#utility.yul\":7963:7993   */\n      tag_337\n        /* \"#utility.yul\":7981:7992   */\n      dup2\n        /* \"#utility.yul\":7963:7993   */\n      tag_190\n      jump\t// in\n    tag_337:\n        /* \"#utility.yul\":7952:7993   */\n      swap2\n      pop\n        /* \"#utility.yul\":8142:8143   */\n      dup3\n        /* \"#utility.yul\":8133:8140   */\n      dup3\n        /* \"#utility.yul\":8129:8144   */\n      div\n        /* \"#utility.yul\":8126:8127   */\n      dup5\n        /* \"#utility.yul\":8123:8145   */\n      eq\n        /* \"#utility.yul\":8103:8104   */\n      dup4\n        /* \"#utility.yul\":8096:8105   */\n      iszero\n        /* \"#utility.yul\":8076:8159   */\n      or\n        /* \"#utility.yul\":8053:8192   */\n      tag_338\n      jumpi\n        /* \"#utility.yul\":8172:8190   */\n      tag_339\n      tag_208\n      jump\t// in\n    tag_339:\n        /* \"#utility.yul\":8053:8192   */\n    tag_338:\n        /* \"#utility.yul\":7837:8199   */\n      pop\n        /* \"#utility.yul\":7789:8199   */\n      swap3\n      swap2\n      pop\n      pop\n      jump\t// out\n        /* \"#utility.yul\":8205:8385   */\n    tag_212:\n        /* \"#utility.yul\":8253:8330   */\n      0x4e487b7100000000000000000000000000000000000000000000000000000000\n        /* \"#utility.yul\":8250:8251   */\n      0x00\n        /* \"#utility.yul\":8243:8331   */\n      mstore\n        /* \"#utility.yul\":8350:8354   */\n      0x12\n        /* \"#utility.yul\":8347:8348   */\n      0x04\n        /* \"#utility.yul\":8340:8355   */\n      mstore\n        /* \"#utility.yul\":8374:8378   */\n      0x24\n        /* \"#utility.yul\":8371:8372   */\n      0x00\n        /* \"#utility.yul\":8364:8379   */\n      revert\n        /* \"#utility.yul\":8391:8576   */\n    tag_106:\n        /* \"#utility.yul\":8431:8432   */\n      0x00\n        /* \"#utility.yul\":8448:8468   */\n      tag_342\n        /* \"#utility.yul\":8466:8467   */\n      dup3\n        /* \"#utility.yul\":8448:8468   */\n      tag_190\n      jump\t// in\n    tag_342:\n        /* \"#utility.yul\":8443:8468   */\n      swap2\n      pop\n        /* \"#utility.yul\":8482:8502   */\n      tag_343\n        /* \"#utility.yul\":8500:8501   */\n      dup4\n        /* \"#utility.yul\":8482:8502   */\n      tag_190\n      jump\t// in\n    tag_343:\n        /* \"#utility.yul\":8477:8502   */\n      swap3\n      pop\n        /* \"#utility.yul\":8521:8522   */\n      dup3\n        /* \"#utility.yul\":8511:8546   */\n      tag_344\n      jumpi\n        /* \"#utility.yul\":8526:8544   */\n      tag_345\n      tag_212\n      jump\t// in\n    tag_345:\n        /* \"#utility.yul\":8511:8546   */\n    tag_344:\n        /* \"#utility.yul\":8568:8569   */\n      dup3\n        /* \"#utility.yul\":8565:8566   */\n      dup3\n        /* \"#utility.yul\":8561:8570   */\n      div\n        /* \"#utility.yul\":8556:8570   */\n      swap1\n      pop\n        /* \"#utility.yul\":8391:8576   */\n      swap3\n      swap2\n      pop\n      pop\n      jump\t// out\n        /* \"#utility.yul\":8582:8751   */\n    tag_213:\n        /* \"#utility.yul\":8666:8677   */\n      0x00\n        /* \"#utility.yul\":8700:8706   */\n      dup3\n        /* \"#utility.yul\":8695:8698   */\n      dup3\n        /* \"#utility.yul\":8688:8707   */\n      mstore\n        /* \"#utility.yul\":8740:8744   */\n      0x20\n        /* \"#utility.yul\":8735:8738   */\n      dup3\n        /* \"#utility.yul\":8731:8745   */\n      add\n        /* \"#utility.yul\":8716:8745   */\n      swap1\n      pop\n        /* \"#utility.yul\":8582:8751   */\n      swap3\n      swap2\n      pop\n      pop\n      jump\t// out\n        /* \"#utility.yul\":8757:8925   */\n    tag_214:\n        /* \"#utility.yul\":8897:8917   */\n      0x546f6f206d7563682072657061796d656e740000000000000000000000000000\n        /* \"#utility.yul\":8893:8894   */\n      0x00\n        /* \"#utility.yul\":8885:8891   */\n      dup3\n        /* \"#utility.yul\":8881:8895   */\n      add\n        /* \"#utility.yul\":8874:8918   */\n      mstore\n        /* \"#utility.yul\":8757:8925   */\n      pop\n      jump\t// out\n        /* \"#utility.yul\":8931:9297   */\n    tag_215:\n        /* \"#utility.yul\":9073:9076   */\n      0x00\n        /* \"#utility.yul\":9094:9161   */\n      tag_349\n        /* \"#utility.yul\":9158:9160   */\n      0x12\n        /* \"#utility.yul\":9153:9156   */\n      dup4\n        /* \"#utility.yul\":9094:9161   */\n      tag_213\n      jump\t// in\n    tag_349:\n        /* \"#utility.yul\":9087:9161   */\n      swap2\n      pop\n        /* \"#utility.yul\":9170:9263   */\n      tag_350\n        /* \"#utility.yul\":9259:9262   */\n      dup3\n        /* \"#utility.yul\":9170:9263   */\n      tag_214\n      jump\t// in\n    tag_350:\n        /* \"#utility.yul\":9288:9290   */\n      0x20\n        /* \"#utility.yul\":9283:9286   */\n      dup3\n        /* \"#utility.yul\":9279:9291   */\n      add\n        /* \"#utility.yul\":9272:9291   */\n      swap1\n      pop\n        /* \"#utility.yul\":8931:9297   */\n      swap2\n      swap1\n      pop\n      jump\t// out\n        /* \"#utility.yul\":9303:9722   */\n    tag_112:\n        /* \"#utility.yul\":9469:9473   */\n      0x00\n        /* \"#utility.yul\":9507:9509   */\n      0x20\n        /* \"#utility.yul\":9496:9505   */\n      dup3\n        /* \"#utility.yul\":9492:9510   */\n      add\n        /* \"#utility.yul\":9484:9510   */\n      swap1\n      pop\n        /* \"#utility.yul\":9556:9565   */\n      dup2\n        /* \"#utility.yul\":9550:9554   */\n      dup2\n        /* \"#utility.yul\":9546:9566   */\n      sub\n        /* \"#utility.yul\":9542:9543   */\n      0x00\n        /* \"#utility.yul\":9531:9540   */\n      dup4\n        /* \"#utility.yul\":9527:9544   */\n      add\n        /* \"#utility.yul\":9520:9567   */\n      mstore\n        /* \"#utility.yul\":9584:9715   */\n      tag_352\n        /* \"#utility.yul\":9710:9714   */\n      dup2\n        /* \"#utility.yul\":9584:9715   */\n      tag_215\n      jump\t// in\n    tag_352:\n        /* \"#utility.yul\":9576:9715   */\n      swap1\n      pop\n        /* \"#utility.yul\":9303:9722   */\n      swap2\n      swap1\n      pop\n      jump\t// out\n        /* \"#utility.yul\":9728:10170   */\n    tag_115:\n        /* \"#utility.yul\":9877:9881   */\n      0x00\n        /* \"#utility.yul\":9915:9917   */\n      0x60\n        /* \"#utility.yul\":9904:9913   */\n      dup3\n        /* \"#utility.yul\":9900:9918   */\n      add\n        /* \"#utility.yul\":9892:9918   */\n      swap1\n      pop\n        /* \"#utility.yul\":9928:9999   */\n      tag_354\n        /* \"#utility.yul\":9996:9997   */\n      0x00\n        /* \"#utility.yul\":9985:9994   */\n      dup4\n        /* \"#utility.yul\":9981:9998   */\n      add\n        /* \"#utility.yul\":9972:9978   */\n      dup7\n        /* \"#utility.yul\":9928:9999   */\n      tag_205\n      jump\t// in\n    tag_354:\n        /* \"#utility.yul\":10009:10081   */\n      tag_355\n        /* \"#utility.yul\":10077:10079   */\n      0x20\n        /* \"#utility.yul\":10066:10075   */\n      dup4\n        /* \"#utility.yul\":10062:10080   */\n      add\n        /* \"#utility.yul\":10053:10059   */\n      dup6\n        /* \"#utility.yul\":10009:10081   */\n      tag_205\n      jump\t// in\n    tag_355:\n        /* \"#utility.yul\":10091:10163   */\n      tag_356\n        /* \"#utility.yul\":10159:10161   */\n      0x40\n        /* \"#utility.yul\":10148:10157   */\n      dup4\n        /* \"#utility.yul\":10144:10162   */\n      add\n        /* \"#utility.yul\":10135:10141   */\n      dup5\n        /* \"#utility.yul\":10091:10163   */\n      tag_193\n      jump\t// in\n    tag_356:\n        /* \"#utility.yul\":9728:10170   */\n      swap5\n      swap4\n      pop\n      pop\n      pop\n      pop\n      jump\t// out\n        /* \"#utility.yul\":10176:10266   */\n    tag_216:\n        /* \"#utility.yul\":10210:10217   */\n      0x00\n        /* \"#utility.yul\":10253:10258   */\n      dup2\n        /* \"#utility.yul\":10246:10259   */\n      iszero\n        /* \"#utility.yul\":10239:10260   */\n      iszero\n        /* \"#utility.yul\":10228:10260   */\n      swap1\n      pop\n        /* \"#utility.yul\":10176:10266   */\n      swap2\n      swap1\n      pop\n      jump\t// out\n        /* \"#utility.yul\":10272:10388   */\n    tag_217:\n        /* \"#utility.yul\":10342:10363   */\n      tag_359\n        /* \"#utility.yul\":10357:10362   */\n      dup2\n        /* \"#utility.yul\":10342:10363   */\n      tag_216\n      jump\t// in\n    tag_359:\n        /* \"#utility.yul\":10335:10340   */\n      dup2\n        /* \"#utility.yul\":10332:10364   */\n      eq\n        /* \"#utility.yul\":10322:10382   */\n      tag_360\n      jumpi\n        /* \"#utility.yul\":10378:10379   */\n      0x00\n        /* \"#utility.yul\":10375:10376   */\n      dup1\n        /* \"#utility.yul\":10368:10380   */\n      revert\n        /* \"#utility.yul\":10322:10382   */\n    tag_360:\n        /* \"#utility.yul\":10272:10388   */\n      pop\n      jump\t// out\n        /* \"#utility.yul\":10394:10531   */\n    tag_218:\n        /* \"#utility.yul\":10448:10453   */\n      0x00\n        /* \"#utility.yul\":10479:10485   */\n      dup2\n        /* \"#utility.yul\":10473:10486   */\n      mload\n        /* \"#utility.yul\":10464:10486   */\n      swap1\n      pop\n        /* \"#utility.yul\":10495:10525   */\n      tag_362\n        /* \"#utility.yul\":10519:10524   */\n      dup2\n        /* \"#utility.yul\":10495:10525   */\n      tag_217\n      jump\t// in\n    tag_362:\n        /* \"#utility.yul\":10394:10531   */\n      swap3\n      swap2\n      pop\n      pop\n      jump\t// out\n        /* \"#utility.yul\":10537:10882   */\n    tag_119:\n        /* \"#utility.yul\":10604:10610   */\n      0x00\n        /* \"#utility.yul\":10653:10655   */\n      0x20\n        /* \"#utility.yul\":10641:10650   */\n      dup3\n        /* \"#utility.yul\":10632:10639   */\n      dup5\n        /* \"#utility.yul\":10628:10651   */\n      sub\n        /* \"#utility.yul\":10624:10656   */\n      slt\n        /* \"#utility.yul\":10621:10740   */\n      iszero\n      tag_364\n      jumpi\n        /* \"#utility.yul\":10659:10738   */\n      tag_365\n      tag_188\n      jump\t// in\n    tag_365:\n        /* \"#utility.yul\":10621:10740   */\n    tag_364:\n        /* \"#utility.yul\":10779:10780   */\n      0x00\n        /* \"#utility.yul\":10804:10865   */\n      tag_366\n        /* \"#utility.yul\":10857:10864   */\n      dup5\n        /* \"#utility.yul\":10848:10854   */\n      dup3\n        /* \"#utility.yul\":10837:10846   */\n      dup6\n        /* \"#utility.yul\":10833:10855   */\n      add\n        /* \"#utility.yul\":10804:10865   */\n      tag_218\n      jump\t// in\n    tag_366:\n        /* \"#utility.yul\":10794:10865   */\n      swap2\n      pop\n        /* \"#utility.yul\":10750:10875   */\n      pop\n        /* \"#utility.yul\":10537:10882   */\n      swap3\n      swap2\n      pop\n      pop\n      jump\t// out\n        /* \"#utility.yul\":10888:11053   */\n    tag_219:\n        /* \"#utility.yul\":11028:11045   */\n      0x5472616e73666572206661696c65640000000000000000000000000000000000\n        /* \"#utility.yul\":11024:11025   */\n      0x00\n        /* \"#utility.yul\":11016:11022   */\n      dup3\n        /* \"#utility.yul\":11012:11026   */\n      add\n        /* \"#utility.yul\":11005:11046   */\n      mstore\n        /* \"#utility.yul\":10888:11053   */\n      pop\n      jump\t// out\n        /* \"#utility.yul\":11059:11425   */\n    tag_220:\n        /* \"#utility.yul\":11201:11204   */\n      0x00\n        /* \"#utility.yul\":11222:11289   */\n      tag_369\n        /* \"#utility.yul\":11286:11288   */\n      0x0f\n        /* \"#utility.yul\":11281:11284   */\n      dup4\n        /* \"#utility.yul\":11222:11289   */\n      tag_213\n      jump\t// in\n    tag_369:\n        /* \"#utility.yul\":11215:11289   */\n      swap2\n      pop\n        /* \"#utility.yul\":11298:11391   */\n      tag_370\n        /* \"#utility.yul\":11387:11390   */\n      dup3\n        /* \"#utility.yul\":11298:11391   */\n      tag_219\n      jump\t// in\n    tag_370:\n        /* \"#utility.yul\":11416:11418   */\n      0x20\n        /* \"#utility.yul\":11411:11414   */\n      dup3\n        /* \"#utility.yul\":11407:11419   */\n      add\n        /* \"#utility.yul\":11400:11419   */\n      swap1\n      pop\n        /* \"#utility.yul\":11059:11425   */\n      swap2\n      swap1\n      pop\n      jump\t// out\n        /* \"#utility.yul\":11431:11850   */\n    tag_122:\n        /* \"#utility.yul\":11597:11601   */\n      0x00\n        /* \"#utility.yul\":11635:11637   */\n      0x20\n        /* \"#utility.yul\":11624:11633   */\n      dup3\n        /* \"#utility.yul\":11620:11638   */\n      add\n        /* \"#utility.yul\":11612:11638   */\n      swap1\n      pop\n        /* \"#utility.yul\":11684:11693   */\n      dup2\n        /* \"#utility.yul\":11678:11682   */\n      dup2\n        /* \"#utility.yul\":11674:11694   */\n      sub\n        /* \"#utility.yul\":11670:11671   */\n      0x00\n        /* \"#utility.yul\":11659:11668   */\n      dup4\n        /* \"#utility.yul\":11655:11672   */\n      add\n        /* \"#utility.yul\":11648:11695   */\n      mstore\n        /* \"#utility.yul\":11712:11843   */\n      tag_372\n        /* \"#utility.yul\":11838:11842   */\n      dup2\n        /* \"#utility.yul\":11712:11843   */\n      tag_220\n      jump\t// in\n    tag_372:\n        /* \"#utility.yul\":11704:11843   */\n      swap1\n      pop\n        /* \"#utility.yul\":11431:11850   */\n      swap2\n      swap1\n      pop\n      jump\t// out\n        /* \"#utility.yul\":11856:12188   */\n    tag_129:\n        /* \"#utility.yul\":11977:11981   */\n      0x00\n        /* \"#utility.yul\":12015:12017   */\n      0x40\n        /* \"#utility.yul\":12004:12013   */\n      dup3\n        /* \"#utility.yul\":12000:12018   */\n      add\n        /* \"#utility.yul\":11992:12018   */\n      swap1\n      pop\n        /* \"#utility.yul\":12028:12099   */\n      tag_374\n        /* \"#utility.yul\":12096:12097   */\n      0x00\n        /* \"#utility.yul\":12085:12094   */\n      dup4\n        /* \"#utility.yul\":12081:12098   */\n      add\n        /* \"#utility.yul\":12072:12078   */\n      dup6\n        /* \"#utility.yul\":12028:12099   */\n      tag_205\n      jump\t// in\n    tag_374:\n        /* \"#utility.yul\":12109:12181   */\n      tag_375\n        /* \"#utility.yul\":12177:12179   */\n      0x20\n        /* \"#utility.yul\":12166:12175   */\n      dup4\n        /* \"#utility.yul\":12162:12180   */\n      add\n        /* \"#utility.yul\":12153:12159   */\n      dup5\n        /* \"#utility.yul\":12109:12181   */\n      tag_193\n      jump\t// in\n    tag_375:\n        /* \"#utility.yul\":11856:12188   */\n      swap4\n      swap3\n      pop\n      pop\n      pop\n      jump\t// out\n        /* \"#utility.yul\":12194:12362   */\n    tag_221:\n        /* \"#utility.yul\":12334:12354   */\n      0x50617920616c6c20646562742066697273740000000000000000000000000000\n        /* \"#utility.yul\":12330:12331   */\n      0x00\n        /* \"#utility.yul\":12322:12328   */\n      dup3\n        /* \"#utility.yul\":12318:12332   */\n      add\n        /* \"#utility.yul\":12311:12355   */\n      mstore\n        /* \"#utility.yul\":12194:12362   */\n      pop\n      jump\t// out\n        /* \"#utility.yul\":12368:12734   */\n    tag_222:\n        /* \"#utility.yul\":12510:12513   */\n      0x00\n        /* \"#utility.yul\":12531:12598   */\n      tag_378\n        /* \"#utility.yul\":12595:12597   */\n      0x12\n        /* \"#utility.yul\":12590:12593   */\n      dup4\n        /* \"#utility.yul\":12531:12598   */\n      tag_213\n      jump\t// in\n    tag_378:\n        /* \"#utility.yul\":12524:12598   */\n      swap2\n      pop\n        /* \"#utility.yul\":12607:12700   */\n      tag_379\n        /* \"#utility.yul\":12696:12699   */\n      dup3\n        /* \"#utility.yul\":12607:12700   */\n      tag_221\n      jump\t// in\n    tag_379:\n        /* \"#utility.yul\":12725:12727   */\n      0x20\n        /* \"#utility.yul\":12720:12723   */\n      dup3\n        /* \"#utility.yul\":12716:12728   */\n      add\n        /* \"#utility.yul\":12709:12728   */\n      swap1\n      pop\n        /* \"#utility.yul\":12368:12734   */\n      swap2\n      swap1\n      pop\n      jump\t// out\n        /* \"#utility.yul\":12740:13159   */\n    tag_136:\n        /* \"#utility.yul\":12906:12910   */\n      0x00\n        /* \"#utility.yul\":12944:12946   */\n      0x20\n        /* \"#utility.yul\":12933:12942   */\n      dup3\n        /* \"#utility.yul\":12929:12947   */\n      add\n        /* \"#utility.yul\":12921:12947   */\n      swap1\n      pop\n        /* \"#utility.yul\":12993:13002   */\n      dup2\n        /* \"#utility.yul\":12987:12991   */\n      dup2\n        /* \"#utility.yul\":12983:13003   */\n      sub\n        /* \"#utility.yul\":12979:12980   */\n      0x00\n        /* \"#utility.yul\":12968:12977   */\n      dup4\n        /* \"#utility.yul\":12964:12981   */\n      add\n        /* \"#utility.yul\":12957:13004   */\n      mstore\n        /* \"#utility.yul\":13021:13152   */\n      tag_381\n        /* \"#utility.yul\":13147:13151   */\n      dup2\n        /* \"#utility.yul\":13021:13152   */\n      tag_222\n      jump\t// in\n    tag_381:\n        /* \"#utility.yul\":13013:13152   */\n      swap1\n      pop\n        /* \"#utility.yul\":12740:13159   */\n      swap2\n      swap1\n      pop\n      jump\t// out\n        /* \"#utility.yul\":13165:13336   */\n    tag_223:\n        /* \"#utility.yul\":13305:13328   */\n      0x4e6f7420656e6f75676820636f6c6c61746572616c0000000000000000000000\n        /* \"#utility.yul\":13301:13302   */\n      0x00\n        /* \"#utility.yul\":13293:13299   */\n      dup3\n        /* \"#utility.yul\":13289:13303   */\n      add\n        /* \"#utility.yul\":13282:13329   */\n      mstore\n        /* \"#utility.yul\":13165:13336   */\n      pop\n      jump\t// out\n        /* \"#utility.yul\":13342:13708   */\n    tag_224:\n        /* \"#utility.yul\":13484:13487   */\n      0x00\n        /* \"#utility.yul\":13505:13572   */\n      tag_384\n        /* \"#utility.yul\":13569:13571   */\n      0x15\n        /* \"#utility.yul\":13564:13567   */\n      dup4\n        /* \"#utility.yul\":13505:13572   */\n      tag_213\n      jump\t// in\n    tag_384:\n        /* \"#utility.yul\":13498:13572   */\n      swap2\n      pop\n        /* \"#utility.yul\":13581:13674   */\n      tag_385\n        /* \"#utility.yul\":13670:13673   */\n      dup3\n        /* \"#utility.yul\":13581:13674   */\n      tag_223\n      jump\t// in\n    tag_385:\n        /* \"#utility.yul\":13699:13701   */\n      0x20\n        /* \"#utility.yul\":13694:13697   */\n      dup3\n        /* \"#utility.yul\":13690:13702   */\n      add\n        /* \"#utility.yul\":13683:13702   */\n      swap1\n      pop\n        /* \"#utility.yul\":13342:13708   */\n      swap2\n      swap1\n      pop\n      jump\t// out\n        /* \"#utility.yul\":13714:14133   */\n    tag_139:\n        /* \"#utility.yul\":13880:13884   */\n      0x00\n        /* \"#utility.yul\":13918:13920   */\n      0x20\n        /* \"#utility.yul\":13907:13916   */\n      dup3\n        /* \"#utility.yul\":13903:13921   */\n      add\n        /* \"#utility.yul\":13895:13921   */\n      swap1\n      pop\n        /* \"#utility.yul\":13967:13976   */\n      dup2\n        /* \"#utility.yul\":13961:13965   */\n      dup2\n        /* \"#utility.yul\":13957:13977   */\n      sub\n        /* \"#utility.yul\":13953:13954   */\n      0x00\n        /* \"#utility.yul\":13942:13951   */\n      dup4\n        /* \"#utility.yul\":13938:13955   */\n      add\n        /* \"#utility.yul\":13931:13978   */\n      mstore\n        /* \"#utility.yul\":13995:14126   */\n      tag_387\n        /* \"#utility.yul\":14121:14125   */\n      dup2\n        /* \"#utility.yul\":13995:14126   */\n      tag_224\n      jump\t// in\n    tag_387:\n        /* \"#utility.yul\":13987:14126   */\n      swap1\n      pop\n        /* \"#utility.yul\":13714:14133   */\n      swap2\n      swap1\n      pop\n      jump\t// out\n        /* \"#utility.yul\":14139:14311   */\n    tag_225:\n        /* \"#utility.yul\":14279:14303   */\n      0x4d7573742073656e64204e617469766520546f6b656e00000000000000000000\n        /* \"#utility.yul\":14275:14276   */\n      0x00\n        /* \"#utility.yul\":14267:14273   */\n      dup3\n        /* \"#utility.yul\":14263:14277   */\n      add\n        /* \"#utility.yul\":14256:14304   */\n      mstore\n        /* \"#utility.yul\":14139:14311   */\n      pop\n      jump\t// out\n        /* \"#utility.yul\":14317:14683   */\n    tag_226:\n        /* \"#utility.yul\":14459:14462   */\n      0x00\n        /* \"#utility.yul\":14480:14547   */\n      tag_390\n        /* \"#utility.yul\":14544:14546   */\n      0x16\n        /* \"#utility.yul\":14539:14542   */\n      dup4\n        /* \"#utility.yul\":14480:14547   */\n      tag_213\n      jump\t// in\n    tag_390:\n        /* \"#utility.yul\":14473:14547   */\n      swap2\n      pop\n        /* \"#utility.yul\":14556:14649   */\n      tag_391\n        /* \"#utility.yul\":14645:14648   */\n      dup3\n        /* \"#utility.yul\":14556:14649   */\n      tag_225\n      jump\t// in\n    tag_391:\n        /* \"#utility.yul\":14674:14676   */\n      0x20\n        /* \"#utility.yul\":14669:14672   */\n      dup3\n        /* \"#utility.yul\":14665:14677   */\n      add\n        /* \"#utility.yul\":14658:14677   */\n      swap1\n      pop\n        /* \"#utility.yul\":14317:14683   */\n      swap2\n      swap1\n      pop\n      jump\t// out\n        /* \"#utility.yul\":14689:15108   */\n    tag_146:\n        /* \"#utility.yul\":14855:14859   */\n      0x00\n        /* \"#utility.yul\":14893:14895   */\n      0x20\n        /* \"#utility.yul\":14882:14891   */\n      dup3\n        /* \"#utility.yul\":14878:14896   */\n      add\n        /* \"#utility.yul\":14870:14896   */\n      swap1\n      pop\n        /* \"#utility.yul\":14942:14951   */\n      dup2\n        /* \"#utility.yul\":14936:14940   */\n      dup2\n        /* \"#utility.yul\":14932:14952   */\n      sub\n        /* \"#utility.yul\":14928:14929   */\n      0x00\n        /* \"#utility.yul\":14917:14926   */\n      dup4\n        /* \"#utility.yul\":14913:14930   */\n      add\n        /* \"#utility.yul\":14906:14953   */\n      mstore\n        /* \"#utility.yul\":14970:15101   */\n      tag_393\n        /* \"#utility.yul\":15096:15100   */\n      dup2\n        /* \"#utility.yul\":14970:15101   */\n      tag_226\n      jump\t// in\n    tag_393:\n        /* \"#utility.yul\":14962:15101   */\n      swap1\n      pop\n        /* \"#utility.yul\":14689:15108   */\n      swap2\n      swap1\n      pop\n      jump\t// out\n        /* \"#utility.yul\":15114:15305   */\n    tag_148:\n        /* \"#utility.yul\":15154:15157   */\n      0x00\n        /* \"#utility.yul\":15173:15193   */\n      tag_395\n        /* \"#utility.yul\":15191:15192   */\n      dup3\n        /* \"#utility.yul\":15173:15193   */\n      tag_190\n      jump\t// in\n    tag_395:\n        /* \"#utility.yul\":15168:15193   */\n      swap2\n      pop\n        /* \"#utility.yul\":15207:15227   */\n      tag_396\n        /* \"#utility.yul\":15225:15226   */\n      dup4\n        /* \"#utility.yul\":15207:15227   */\n      tag_190\n      jump\t// in\n    tag_396:\n        /* \"#utility.yul\":15202:15227   */\n      swap3\n      pop\n        /* \"#utility.yul\":15250:15251   */\n      dup3\n        /* \"#utility.yul\":15247:15248   */\n      dup3\n        /* \"#utility.yul\":15243:15252   */\n      add\n        /* \"#utility.yul\":15236:15252   */\n      swap1\n      pop\n        /* \"#utility.yul\":15271:15274   */\n      dup1\n        /* \"#utility.yul\":15268:15269   */\n      dup3\n        /* \"#utility.yul\":15265:15275   */\n      gt\n        /* \"#utility.yul\":15262:15298   */\n      iszero\n      tag_397\n      jumpi\n        /* \"#utility.yul\":15278:15296   */\n      tag_398\n      tag_208\n      jump\t// in\n    tag_398:\n        /* \"#utility.yul\":15262:15298   */\n    tag_397:\n        /* \"#utility.yul\":15114:15305   */\n      swap3\n      swap2\n      pop\n      pop\n      jump\t// out\n        /* \"#utility.yul\":15311:15416   */\n    tag_227:\n        /* \"#utility.yul\":15347:15354   */\n      0x00\n        /* \"#utility.yul\":15387:15409   */\n      0xffffffffffffffffffff\n        /* \"#utility.yul\":15380:15385   */\n      dup3\n        /* \"#utility.yul\":15376:15410   */\n      and\n        /* \"#utility.yul\":15365:15410   */\n      swap1\n      pop\n        /* \"#utility.yul\":15311:15416   */\n      swap2\n      swap1\n      pop\n      jump\t// out\n        /* \"#utility.yul\":15422:15542   */\n    tag_228:\n        /* \"#utility.yul\":15494:15517   */\n      tag_401\n        /* \"#utility.yul\":15511:15516   */\n      dup2\n        /* \"#utility.yul\":15494:15517   */\n      tag_227\n      jump\t// in\n    tag_401:\n        /* \"#utility.yul\":15487:15492   */\n      dup2\n        /* \"#utility.yul\":15484:15518   */\n      eq\n        /* \"#utility.yul\":15474:15536   */\n      tag_402\n      jumpi\n        /* \"#utility.yul\":15532:15533   */\n      0x00\n        /* \"#utility.yul\":15529:15530   */\n      dup1\n        /* \"#utility.yul\":15522:15534   */\n      revert\n        /* \"#utility.yul\":15474:15536   */\n    tag_402:\n        /* \"#utility.yul\":15422:15542   */\n      pop\n      jump\t// out\n        /* \"#utility.yul\":15548:15689   */\n    tag_229:\n        /* \"#utility.yul\":15604:15609   */\n      0x00\n        /* \"#utility.yul\":15635:15641   */\n      dup2\n        /* \"#utility.yul\":15629:15642   */\n      mload\n        /* \"#utility.yul\":15620:15642   */\n      swap1\n      pop\n        /* \"#utility.yul\":15651:15683   */\n      tag_404\n        /* \"#utility.yul\":15677:15682   */\n      dup2\n        /* \"#utility.yul\":15651:15683   */\n      tag_228\n      jump\t// in\n    tag_404:\n        /* \"#utility.yul\":15548:15689   */\n      swap3\n      swap2\n      pop\n      pop\n      jump\t// out\n        /* \"#utility.yul\":15695:15771   */\n    tag_230:\n        /* \"#utility.yul\":15731:15738   */\n      0x00\n        /* \"#utility.yul\":15760:15765   */\n      dup2\n        /* \"#utility.yul\":15749:15765   */\n      swap1\n      pop\n        /* \"#utility.yul\":15695:15771   */\n      swap2\n      swap1\n      pop\n      jump\t// out\n        /* \"#utility.yul\":15777:15897   */\n    tag_231:\n        /* \"#utility.yul\":15849:15872   */\n      tag_407\n        /* \"#utility.yul\":15866:15871   */\n      dup2\n        /* \"#utility.yul\":15849:15872   */\n      tag_230\n      jump\t// in\n    tag_407:\n        /* \"#utility.yul\":15842:15847   */\n      dup2\n        /* \"#utility.yul\":15839:15873   */\n      eq\n        /* \"#utility.yul\":15829:15891   */\n      tag_408\n      jumpi\n        /* \"#utility.yul\":15887:15888   */\n      0x00\n        /* \"#utility.yul\":15884:15885   */\n      dup1\n        /* \"#utility.yul\":15877:15889   */\n      revert\n        /* \"#utility.yul\":15829:15891   */\n    tag_408:\n        /* \"#utility.yul\":15777:15897   */\n      pop\n      jump\t// out\n        /* \"#utility.yul\":15903:16044   */\n    tag_232:\n        /* \"#utility.yul\":15959:15964   */\n      0x00\n        /* \"#utility.yul\":15990:15996   */\n      dup2\n        /* \"#utility.yul\":15984:15997   */\n      mload\n        /* \"#utility.yul\":15975:15997   */\n      swap1\n      pop\n        /* \"#utility.yul\":16006:16038   */\n      tag_410\n        /* \"#utility.yul\":16032:16037   */\n      dup2\n        /* \"#utility.yul\":16006:16038   */\n      tag_231\n      jump\t// in\n    tag_410:\n        /* \"#utility.yul\":15903:16044   */\n      swap3\n      swap2\n      pop\n      pop\n      jump\t// out\n        /* \"#utility.yul\":16050:16193   */\n    tag_233:\n        /* \"#utility.yul\":16107:16112   */\n      0x00\n        /* \"#utility.yul\":16138:16144   */\n      dup2\n        /* \"#utility.yul\":16132:16145   */\n      mload\n        /* \"#utility.yul\":16123:16145   */\n      swap1\n      pop\n        /* \"#utility.yul\":16154:16187   */\n      tag_412\n        /* \"#utility.yul\":16181:16186   */\n      dup2\n        /* \"#utility.yul\":16154:16187   */\n      tag_191\n      jump\t// in\n    tag_412:\n        /* \"#utility.yul\":16050:16193   */\n      swap3\n      swap2\n      pop\n      pop\n      jump\t// out\n        /* \"#utility.yul\":16199:17170   */\n    tag_159:\n        /* \"#utility.yul\":16302:16308   */\n      0x00\n        /* \"#utility.yul\":16310:16316   */\n      dup1\n        /* \"#utility.yul\":16318:16324   */\n      0x00\n        /* \"#utility.yul\":16326:16332   */\n      dup1\n        /* \"#utility.yul\":16334:16340   */\n      0x00\n        /* \"#utility.yul\":16383:16386   */\n      0xa0\n        /* \"#utility.yul\":16371:16380   */\n      dup7\n        /* \"#utility.yul\":16362:16369   */\n      dup9\n        /* \"#utility.yul\":16358:16381   */\n      sub\n        /* \"#utility.yul\":16354:16387   */\n      slt\n        /* \"#utility.yul\":16351:16471   */\n      iszero\n      tag_414\n      jumpi\n        /* \"#utility.yul\":16390:16469   */\n      tag_415\n      tag_188\n      jump\t// in\n    tag_415:\n        /* \"#utility.yul\":16351:16471   */\n    tag_414:\n        /* \"#utility.yul\":16510:16511   */\n      0x00\n        /* \"#utility.yul\":16535:16598   */\n      tag_416\n        /* \"#utility.yul\":16590:16597   */\n      dup9\n        /* \"#utility.yul\":16581:16587   */\n      dup3\n        /* \"#utility.yul\":16570:16579   */\n      dup10\n        /* \"#utility.yul\":16566:16588   */\n      add\n        /* \"#utility.yul\":16535:16598   */\n      tag_229\n      jump\t// in\n    tag_416:\n        /* \"#utility.yul\":16525:16598   */\n      swap6\n      pop\n        /* \"#utility.yul\":16481:16608   */\n      pop\n        /* \"#utility.yul\":16647:16649   */\n      0x20\n        /* \"#utility.yul\":16673:16736   */\n      tag_417\n        /* \"#utility.yul\":16728:16735   */\n      dup9\n        /* \"#utility.yul\":16719:16725   */\n      dup3\n        /* \"#utility.yul\":16708:16717   */\n      dup10\n        /* \"#utility.yul\":16704:16726   */\n      add\n        /* \"#utility.yul\":16673:16736   */\n      tag_232\n      jump\t// in\n    tag_417:\n        /* \"#utility.yul\":16663:16736   */\n      swap5\n      pop\n        /* \"#utility.yul\":16618:16746   */\n      pop\n        /* \"#utility.yul\":16785:16787   */\n      0x40\n        /* \"#utility.yul\":16811:16875   */\n      tag_418\n        /* \"#utility.yul\":16867:16874   */\n      dup9\n        /* \"#utility.yul\":16858:16864   */\n      dup3\n        /* \"#utility.yul\":16847:16856   */\n      dup10\n        /* \"#utility.yul\":16843:16865   */\n      add\n        /* \"#utility.yul\":16811:16875   */\n      tag_233\n      jump\t// in\n    tag_418:\n        /* \"#utility.yul\":16801:16875   */\n      swap4\n      pop\n        /* \"#utility.yul\":16756:16885   */\n      pop\n        /* \"#utility.yul\":16924:16926   */\n      0x60\n        /* \"#utility.yul\":16950:17014   */\n      tag_419\n        /* \"#utility.yul\":17006:17013   */\n      dup9\n        /* \"#utility.yul\":16997:17003   */\n      dup3\n        /* \"#utility.yul\":16986:16995   */\n      dup10\n        /* \"#utility.yul\":16982:17004   */\n      add\n        /* \"#utility.yul\":16950:17014   */\n      tag_233\n      jump\t// in\n    tag_419:\n        /* \"#utility.yul\":16940:17014   */\n      swap3\n      pop\n        /* \"#utility.yul\":16895:17024   */\n      pop\n        /* \"#utility.yul\":17063:17066   */\n      0x80\n        /* \"#utility.yul\":17090:17153   */\n      tag_420\n        /* \"#utility.yul\":17145:17152   */\n      dup9\n        /* \"#utility.yul\":17136:17142   */\n      dup3\n        /* \"#utility.yul\":17125:17134   */\n      dup10\n        /* \"#utility.yul\":17121:17143   */\n      add\n        /* \"#utility.yul\":17090:17153   */\n      tag_229\n      jump\t// in\n    tag_420:\n        /* \"#utility.yul\":17080:17153   */\n      swap2\n      pop\n        /* \"#utility.yul\":17034:17163   */\n      pop\n        /* \"#utility.yul\":16199:17170   */\n      swap3\n      swap6\n      pop\n      swap3\n      swap6\n      swap1\n      swap4\n      pop\n      jump\t// out\n        /* \"#utility.yul\":17176:17349   */\n    tag_234:\n        /* \"#utility.yul\":17316:17341   */\n      0x496e73756666696369656e7420636f6c6c61746572616c000000000000000000\n        /* \"#utility.yul\":17312:17313   */\n      0x00\n        /* \"#utility.yul\":17304:17310   */\n      dup3\n        /* \"#utility.yul\":17300:17314   */\n      add\n        /* \"#utility.yul\":17293:17342   */\n      mstore\n        /* \"#utility.yul\":17176:17349   */\n      pop\n      jump\t// out\n        /* \"#utility.yul\":17355:17721   */\n    tag_235:\n        /* \"#utility.yul\":17497:17500   */\n      0x00\n        /* \"#utility.yul\":17518:17585   */\n      tag_423\n        /* \"#utility.yul\":17582:17584   */\n      0x17\n        /* \"#utility.yul\":17577:17580   */\n      dup4\n        /* \"#utility.yul\":17518:17585   */\n      tag_213\n      jump\t// in\n    tag_423:\n        /* \"#utility.yul\":17511:17585   */\n      swap2\n      pop\n        /* \"#utility.yul\":17594:17687   */\n      tag_424\n        /* \"#utility.yul\":17683:17686   */\n      dup3\n        /* \"#utility.yul\":17594:17687   */\n      tag_234\n      jump\t// in\n    tag_424:\n        /* \"#utility.yul\":17712:17714   */\n      0x20\n        /* \"#utility.yul\":17707:17710   */\n      dup3\n        /* \"#utility.yul\":17703:17715   */\n      add\n        /* \"#utility.yul\":17696:17715   */\n      swap1\n      pop\n        /* \"#utility.yul\":17355:17721   */\n      swap2\n      swap1\n      pop\n      jump\t// out\n        /* \"#utility.yul\":17727:18146   */\n    tag_164:\n        /* \"#utility.yul\":17893:17897   */\n      0x00\n        /* \"#utility.yul\":17931:17933   */\n      0x20\n        /* \"#utility.yul\":17920:17929   */\n      dup3\n        /* \"#utility.yul\":17916:17934   */\n      add\n        /* \"#utility.yul\":17908:17934   */\n      swap1\n      pop\n        /* \"#utility.yul\":17980:17989   */\n      dup2\n        /* \"#utility.yul\":17974:17978   */\n      dup2\n        /* \"#utility.yul\":17970:17990   */\n      sub\n        /* \"#utility.yul\":17966:17967   */\n      0x00\n        /* \"#utility.yul\":17955:17964   */\n      dup4\n        /* \"#utility.yul\":17951:17968   */\n      add\n        /* \"#utility.yul\":17944:17991   */\n      mstore\n        /* \"#utility.yul\":18008:18139   */\n      tag_426\n        /* \"#utility.yul\":18134:18138   */\n      dup2\n        /* \"#utility.yul\":18008:18139   */\n      tag_235\n      jump\t// in\n    tag_426:\n        /* \"#utility.yul\":18000:18139   */\n      swap1\n      pop\n        /* \"#utility.yul\":17727:18146   */\n      swap2\n      swap1\n      pop\n      jump\t// out\n\n    auxdata: 0xa2646970667358221220776c994efa846d6fdbbfe9009cda499b48c62eb0f238228a2241d5dd9dba5d4264736f6c63430008140033\n}\n",
				"bytecode": {
					"linkReferences": {},
					"object": "608060405234801562000010575f80fd5b5060405162001afa38038062001afa83398181016040528101906200003691906200032d565b335f73ffffffffffffffffffffffffffffffffffffffff168173ffffffffffffffffffffffffffffffffffffffff1603620000aa575f6040517f1e4fbdf7000000000000000000000000000000000000000000000000000000008152600401620000a191906200036e565b60405180910390fd5b620000bb816200020760201b60201c565b505f73baa0afa2f390349e0074be787509a098e3044fc890508060015f6101000a81548173ffffffffffffffffffffffffffffffffffffffff021916908373ffffffffffffffffffffffffffffffffffffffff1602179055508160025f6101000a81548173ffffffffffffffffffffffffffffffffffffffff021916908373ffffffffffffffffffffffffffffffffffffffff16021790555060025f9054906101000a900473ffffffffffffffffffffffffffffffffffffffff1673ffffffffffffffffffffffffffffffffffffffff1663313ce5676040518163ffffffff1660e01b8152600401602060405180830381865afa158015620001bf573d5f803e3d5ffd5b505050506040513d601f19601f82011682018060405250810190620001e59190620003c4565b600260146101000a81548160ff021916908360ff1602179055505050620003f4565b5f805f9054906101000a900473ffffffffffffffffffffffffffffffffffffffff169050815f806101000a81548173ffffffffffffffffffffffffffffffffffffffff021916908373ffffffffffffffffffffffffffffffffffffffff1602179055508173ffffffffffffffffffffffffffffffffffffffff168173ffffffffffffffffffffffffffffffffffffffff167f8be0079c531659141344cd1fd0a4f28419497f9722a3daafe3b4186f6b6457e060405160405180910390a35050565b5f80fd5b5f73ffffffffffffffffffffffffffffffffffffffff82169050919050565b5f620002f782620002cc565b9050919050565b6200030981620002eb565b811462000314575f80fd5b50565b5f815190506200032781620002fe565b92915050565b5f60208284031215620003455762000344620002c8565b5b5f620003548482850162000317565b91505092915050565b6200036881620002eb565b82525050565b5f602082019050620003835f8301846200035d565b92915050565b5f60ff82169050919050565b620003a08162000389565b8114620003ab575f80fd5b50565b5f81519050620003be8162000395565b92915050565b5f60208284031215620003dc57620003db620002c8565b5b5f620003eb84828501620003ae565b91505092915050565b6116f880620004025f395ff3fe6080604052600436106100f6575f3560e01c8063741bef1a11610089578063d9e69a0511610058578063d9e69a05146102e1578063e9cbd8221461030b578063f2fde38b14610335578063f571180b1461035d576100fd565b8063741bef1a1461023b5780638da5cb5b146102655780638e15f4731461028f578063c5ebeaec146102b9576100fd565b806357376198116100c557806357376198146101cb5780636112fe2e146101f35780636f7581401461021b578063715018a614610225576100fd565b806305f287fe14610101578063066bff281461013d578063371fd8e6146101795780633b97e856146101a1576100fd565b366100fd57005b5f80fd5b34801561010c575f80fd5b5061012760048036038101906101229190610dc0565b610399565b6040516101349190610dfa565b60405180910390f35b348015610148575f80fd5b50610163600480360381019061015e9190610e6d565b610428565b6040516101709190610dfa565b60405180910390f35b348015610184575f80fd5b5061019f600480360381019061019a9190610dc0565b61043d565b005b3480156101ac575f80fd5b506101b56105f0565b6040516101c29190610eb3565b60405180910390f35b3480156101d6575f80fd5b506101f160048036038101906101ec9190610ecc565b610603565b005b3480156101fe575f80fd5b5061021960048036038101906102149190610dc0565b610692565b005b61022361082b565b005b348015610230575f80fd5b506102396108c2565b005b348015610246575f80fd5b5061024f6108d5565b60405161025c9190610f65565b60405180910390f35b348015610270575f80fd5b506102796108fa565b6040516102869190610f8d565b60405180910390f35b34801561029a575f80fd5b506102a3610921565b6040516102b09190610dfa565b60405180910390f35b3480156102c4575f80fd5b506102df60048036038101906102da9190610dc0565b6109be565b005b3480156102ec575f80fd5b506102f5610b77565b6040516103029190610dfa565b60405180910390f35b348015610316575f80fd5b5061031f610b7c565b60405161032c9190610fc6565b60405180910390f35b348015610340575f80fd5b5061035b60048036038101906103569190610e6d565b610ba1565b005b348015610368575f80fd5b50610383600480360381019061037e9190610e6d565b610c25565b6040516103909190610dfa565b60405180910390f35b5f806103a3610921565b90505f600260149054906101000a900460ff1660ff1660086103c5919061100c565b600a6103d1919061116e565b90505f82670de0b6b3a764000083876103ea91906111b8565b6103f491906111b8565b6103fe9190611226565b90505f606460968361041091906111b8565b61041a9190611226565b905080945050505050919050565b6004602052805f5260405f205f915090505481565b8060045f3373ffffffffffffffffffffffffffffffffffffffff1673ffffffffffffffffffffffffffffffffffffffff1681526020019081526020015f205410156104bd576040517f08c379a00000000000000000000000000000000000000000000000000000000081526004016104b4906112b0565b60405180910390fd5b8060045f3373ffffffffffffffffffffffffffffffffffffffff1673ffffffffffffffffffffffffffffffffffffffff1681526020019081526020015f205f828254610509919061100c565b9250508190555060025f9054906101000a900473ffffffffffffffffffffffffffffffffffffffff1673ffffffffffffffffffffffffffffffffffffffff166323b872dd3330846040518463ffffffff1660e01b815260040161056e939291906112ce565b6020604051808303815f875af115801561058a573d5f803e3d5ffd5b505050506040513d601f19601f820116820180604052508101906105ae9190611338565b6105ed576040517f08c379a00000000000000000000000000000000000000000000000000000000081526004016105e4906113ad565b60405180910390fd5b50565b600260149054906101000a900460ff1681565b61060b610c3a565b8173ffffffffffffffffffffffffffffffffffffffff1663a9059cbb61062f6108fa565b836040518363ffffffff1660e01b815260040161064d9291906113cb565b6020604051808303815f875af1158015610669573d5f803e3d5ffd5b505050506040513d601f19601f8201168201806040525081019061068d9190611338565b505050565b5f60045f3373ffffffffffffffffffffffffffffffffffffffff1673ffffffffffffffffffffffffffffffffffffffff1681526020019081526020015f205414610711576040517f08c379a00000000000000000000000000000000000000000000000000000000081526004016107089061143c565b60405180910390fd5b8060035f3373ffffffffffffffffffffffffffffffffffffffff1673ffffffffffffffffffffffffffffffffffffffff1681526020019081526020015f20541015610791576040517f08c379a0000000000000000000000000000000000000000000000000000000008152600401610788906114a4565b60405180910390fd5b8060035f3373ffffffffffffffffffffffffffffffffffffffff1673ffffffffffffffffffffffffffffffffffffffff1681526020019081526020015f205f8282546107dd919061100c565b925050819055503373ffffffffffffffffffffffffffffffffffffffff166108fc8290811502906040515f60405180830381858888f19350505050158015610827573d5f803e3d5ffd5b5050565b5f341161086d576040517f08c379a00000000000000000000000000000000000000000000000000000000081526004016108649061150c565b60405180910390fd5b3460035f3373ffffffffffffffffffffffffffffffffffffffff1673ffffffffffffffffffffffffffffffffffffffff1681526020019081526020015f205f8282546108b9919061152a565b92505081905550565b6108ca610c3a565b6108d35f610cc1565b565b60015f9054906101000a900473ffffffffffffffffffffffffffffffffffffffff1681565b5f805f9054906101000a900473ffffffffffffffffffffffffffffffffffffffff16905090565b5f8060015f9054906101000a900473ffffffffffffffffffffffffffffffffffffffff1673ffffffffffffffffffffffffffffffffffffffff1663feaf968c6040518163ffffffff1660e01b815260040160a060405180830381865afa15801561098d573d5f803e3d5ffd5b505050506040513d601f19601f820116820180604052508101906109b191906115e3565b5050509150508091505090565b6109c781610399565b60035f3373ffffffffffffffffffffffffffffffffffffffff1673ffffffffffffffffffffffffffffffffffffffff1681526020019081526020015f20541015610a46576040517f08c379a0000000000000000000000000000000000000000000000000000000008152600401610a3d906116a4565b60405180910390fd5b8060045f3373ffffffffffffffffffffffffffffffffffffffff1673ffffffffffffffffffffffffffffffffffffffff1681526020019081526020015f205f828254610a92919061152a565b9250508190555060025f9054906101000a900473ffffffffffffffffffffffffffffffffffffffff1673ffffffffffffffffffffffffffffffffffffffff1663a9059cbb33836040518363ffffffff1660e01b8152600401610af59291906113cb565b6020604051808303815f875af1158015610b11573d5f803e3d5ffd5b505050506040513d601f19601f82011682018060405250810190610b359190611338565b610b74576040517f08c379a0000000000000000000000000000000000000000000000000000000008152600401610b6b906113ad565b60405180910390fd5b50565b609681565b60025f9054906101000a900473ffffffffffffffffffffffffffffffffffffffff1681565b610ba9610c3a565b5f73ffffffffffffffffffffffffffffffffffffffff168173ffffffffffffffffffffffffffffffffffffffff1603610c19575f6040517f1e4fbdf7000000000000000000000000000000000000000000000000000000008152600401610c109190610f8d565b60405180910390fd5b610c2281610cc1565b50565b6003602052805f5260405f205f915090505481565b610c42610d82565b73ffffffffffffffffffffffffffffffffffffffff16610c606108fa565b73ffffffffffffffffffffffffffffffffffffffff1614610cbf57610c83610d82565b6040517f118cdaa7000000000000000000000000000000000000000000000000000000008152600401610cb69190610f8d565b60405180910390fd5b565b5f805f9054906101000a900473ffffffffffffffffffffffffffffffffffffffff169050815f806101000a81548173ffffffffffffffffffffffffffffffffffffffff021916908373ffffffffffffffffffffffffffffffffffffffff1602179055508173ffffffffffffffffffffffffffffffffffffffff168173ffffffffffffffffffffffffffffffffffffffff167f8be0079c531659141344cd1fd0a4f28419497f9722a3daafe3b4186f6b6457e060405160405180910390a35050565b5f33905090565b5f80fd5b5f819050919050565b610d9f81610d8d565b8114610da9575f80fd5b50565b5f81359050610dba81610d96565b92915050565b5f60208284031215610dd557610dd4610d89565b5b5f610de284828501610dac565b91505092915050565b610df481610d8d565b82525050565b5f602082019050610e0d5f830184610deb565b92915050565b5f73ffffffffffffffffffffffffffffffffffffffff82169050919050565b5f610e3c82610e13565b9050919050565b610e4c81610e32565b8114610e56575f80fd5b50565b5f81359050610e6781610e43565b92915050565b5f60208284031215610e8257610e81610d89565b5b5f610e8f84828501610e59565b91505092915050565b5f60ff82169050919050565b610ead81610e98565b82525050565b5f602082019050610ec65f830184610ea4565b92915050565b5f8060408385031215610ee257610ee1610d89565b5b5f610eef85828601610e59565b9250506020610f0085828601610dac565b9150509250929050565b5f819050919050565b5f610f2d610f28610f2384610e13565b610f0a565b610e13565b9050919050565b5f610f3e82610f13565b9050919050565b5f610f4f82610f34565b9050919050565b610f5f81610f45565b82525050565b5f602082019050610f785f830184610f56565b92915050565b610f8781610e32565b82525050565b5f602082019050610fa05f830184610f7e565b92915050565b5f610fb082610f34565b9050919050565b610fc081610fa6565b82525050565b5f602082019050610fd95f830184610fb7565b92915050565b7f4e487b71000000000000000000000000000000000000000000000000000000005f52601160045260245ffd5b5f61101682610d8d565b915061102183610d8d565b925082820390508181111561103957611038610fdf565b5b92915050565b5f8160011c9050919050565b5f808291508390505b6001851115611094578086048111156110705761106f610fdf565b5b600185161561107f5780820291505b808102905061108d8561103f565b9450611054565b94509492505050565b5f826110ac5760019050611167565b816110b9575f9050611167565b81600181146110cf57600281146110d957611108565b6001915050611167565b60ff8411156110eb576110ea610fdf565b5b8360020a91508482111561110257611101610fdf565b5b50611167565b5060208310610133831016604e8410600b841016171561113d5782820a90508381111561113857611137610fdf565b5b611167565b61114a848484600161104b565b9250905081840481111561116157611160610fdf565b5b81810290505b9392505050565b5f61117882610d8d565b915061118383610d8d565b92506111b07fffffffffffffffffffffffffffffffffffffffffffffffffffffffffffffffff848461109d565b905092915050565b5f6111c282610d8d565b91506111cd83610d8d565b92508282026111db81610d8d565b915082820484148315176111f2576111f1610fdf565b5b5092915050565b7f4e487b71000000000000000000000000000000000000000000000000000000005f52601260045260245ffd5b5f61123082610d8d565b915061123b83610d8d565b92508261124b5761124a6111f9565b5b828204905092915050565b5f82825260208201905092915050565b7f546f6f206d7563682072657061796d656e7400000000000000000000000000005f82015250565b5f61129a601283611256565b91506112a582611266565b602082019050919050565b5f6020820190508181035f8301526112c78161128e565b9050919050565b5f6060820190506112e15f830186610f7e565b6112ee6020830185610f7e565b6112fb6040830184610deb565b949350505050565b5f8115159050919050565b61131781611303565b8114611321575f80fd5b50565b5f815190506113328161130e565b92915050565b5f6020828403121561134d5761134c610d89565b5b5f61135a84828501611324565b91505092915050565b7f5472616e73666572206661696c656400000000000000000000000000000000005f82015250565b5f611397600f83611256565b91506113a282611363565b602082019050919050565b5f6020820190508181035f8301526113c48161138b565b9050919050565b5f6040820190506113de5f830185610f7e565b6113eb6020830184610deb565b9392505050565b7f50617920616c6c206465627420666972737400000000000000000000000000005f82015250565b5f611426601283611256565b9150611431826113f2565b602082019050919050565b5f6020820190508181035f8301526114538161141a565b9050919050565b7f4e6f7420656e6f75676820636f6c6c61746572616c00000000000000000000005f82015250565b5f61148e601583611256565b91506114998261145a565b602082019050919050565b5f6020820190508181035f8301526114bb81611482565b9050919050565b7f4d7573742073656e64204e617469766520546f6b656e000000000000000000005f82015250565b5f6114f6601683611256565b9150611501826114c2565b602082019050919050565b5f6020820190508181035f830152611523816114ea565b9050919050565b5f61153482610d8d565b915061153f83610d8d565b925082820190508082111561155757611556610fdf565b5b92915050565b5f69ffffffffffffffffffff82169050919050565b61157b8161155d565b8114611585575f80fd5b50565b5f8151905061159681611572565b92915050565b5f819050919050565b6115ae8161159c565b81146115b8575f80fd5b50565b5f815190506115c9816115a5565b92915050565b5f815190506115dd81610d96565b92915050565b5f805f805f60a086880312156115fc576115fb610d89565b5b5f61160988828901611588565b955050602061161a888289016115bb565b945050604061162b888289016115cf565b935050606061163c888289016115cf565b925050608061164d88828901611588565b9150509295509295909350565b7f496e73756666696369656e7420636f6c6c61746572616c0000000000000000005f82015250565b5f61168e601783611256565b91506116998261165a565b602082019050919050565b5f6020820190508181035f8301526116bb81611682565b905091905056fea2646970667358221220776c994efa846d6fdbbfe9009cda499b48c62eb0f238228a2241d5dd9dba5d4264736f6c63430008140033",
					"opcodes": "PUSH1 0x80 PUSH1 0x40 MSTORE CALLVALUE DUP1 ISZERO PUSH3 0x10 JUMPI PUSH0 DUP1 REVERT JUMPDEST POP PUSH1 0x40 MLOAD PUSH3 0x1AFA CODESIZE SUB DUP1 PUSH3 0x1AFA DUP4 CODECOPY DUP2 DUP2 ADD PUSH1 0x40 MSTORE DUP2 ADD SWAP1 PUSH3 0x36 SWAP2 SWAP1 PUSH3 0x32D JUMP JUMPDEST CALLER PUSH0 PUSH20 0xFFFFFFFFFFFFFFFFFFFFFFFFFFFFFFFFFFFFFFFF AND DUP2 PUSH20 0xFFFFFFFFFFFFFFFFFFFFFFFFFFFFFFFFFFFFFFFF AND SUB PUSH3 0xAA JUMPI PUSH0 PUSH1 0x40 MLOAD PUSH32 0x1E4FBDF700000000000000000000000000000000000000000000000000000000 DUP2 MSTORE PUSH1 0x4 ADD PUSH3 0xA1 SWAP2 SWAP1 PUSH3 0x36E JUMP JUMPDEST PUSH1 0x40 MLOAD DUP1 SWAP2 SUB SWAP1 REVERT JUMPDEST PUSH3 0xBB DUP2 PUSH3 0x207 PUSH1 0x20 SHL PUSH1 0x20 SHR JUMP JUMPDEST POP PUSH0 PUSH20 0xBAA0AFA2F390349E0074BE787509A098E3044FC8 SWAP1 POP DUP1 PUSH1 0x1 PUSH0 PUSH2 0x100 EXP DUP2 SLOAD DUP2 PUSH20 0xFFFFFFFFFFFFFFFFFFFFFFFFFFFFFFFFFFFFFFFF MUL NOT AND SWAP1 DUP4 PUSH20 0xFFFFFFFFFFFFFFFFFFFFFFFFFFFFFFFFFFFFFFFF AND MUL OR SWAP1 SSTORE POP DUP2 PUSH1 0x2 PUSH0 PUSH2 0x100 EXP DUP2 SLOAD DUP2 PUSH20 0xFFFFFFFFFFFFFFFFFFFFFFFFFFFFFFFFFFFFFFFF MUL NOT AND SWAP1 DUP4 PUSH20 0xFFFFFFFFFFFFFFFFFFFFFFFFFFFFFFFFFFFFFFFF AND MUL OR SWAP1 SSTORE POP PUSH1 0x2 PUSH0 SWAP1 SLOAD SWAP1 PUSH2 0x100 EXP SWAP1 DIV PUSH20 0xFFFFFFFFFFFFFFFFFFFFFFFFFFFFFFFFFFFFFFFF AND PUSH20 0xFFFFFFFFFFFFFFFFFFFFFFFFFFFFFFFFFFFFFFFF AND PUSH4 0x313CE567 PUSH1 0x40 MLOAD DUP2 PUSH4 0xFFFFFFFF AND PUSH1 0xE0 SHL DUP2 MSTORE PUSH1 0x4 ADD PUSH1 0x20 PUSH1 0x40 MLOAD DUP1 DUP4 SUB DUP2 DUP7 GAS STATICCALL ISZERO DUP1 ISZERO PUSH3 0x1BF JUMPI RETURNDATASIZE PUSH0 DUP1 RETURNDATACOPY RETURNDATASIZE PUSH0 REVERT JUMPDEST POP POP POP POP PUSH1 0x40 MLOAD RETURNDATASIZE PUSH1 0x1F NOT PUSH1 0x1F DUP3 ADD AND DUP3 ADD DUP1 PUSH1 0x40 MSTORE POP DUP2 ADD SWAP1 PUSH3 0x1E5 SWAP2 SWAP1 PUSH3 0x3C4 JUMP JUMPDEST PUSH1 0x2 PUSH1 0x14 PUSH2 0x100 EXP DUP2 SLOAD DUP2 PUSH1 0xFF MUL NOT AND SWAP1 DUP4 PUSH1 0xFF AND MUL OR SWAP1 SSTORE POP POP POP PUSH3 0x3F4 JUMP JUMPDEST PUSH0 DUP1 PUSH0 SWAP1 SLOAD SWAP1 PUSH2 0x100 EXP SWAP1 DIV PUSH20 0xFFFFFFFFFFFFFFFFFFFFFFFFFFFFFFFFFFFFFFFF AND SWAP1 POP DUP2 PUSH0 DUP1 PUSH2 0x100 EXP DUP2 SLOAD DUP2 PUSH20 0xFFFFFFFFFFFFFFFFFFFFFFFFFFFFFFFFFFFFFFFF MUL NOT AND SWAP1 DUP4 PUSH20 0xFFFFFFFFFFFFFFFFFFFFFFFFFFFFFFFFFFFFFFFF AND MUL OR SWAP1 SSTORE POP DUP2 PUSH20 0xFFFFFFFFFFFFFFFFFFFFFFFFFFFFFFFFFFFFFFFF AND DUP2 PUSH20 0xFFFFFFFFFFFFFFFFFFFFFFFFFFFFFFFFFFFFFFFF AND PUSH32 0x8BE0079C531659141344CD1FD0A4F28419497F9722A3DAAFE3B4186F6B6457E0 PUSH1 0x40 MLOAD PUSH1 0x40 MLOAD DUP1 SWAP2 SUB SWAP1 LOG3 POP POP JUMP JUMPDEST PUSH0 DUP1 REVERT JUMPDEST PUSH0 PUSH20 0xFFFFFFFFFFFFFFFFFFFFFFFFFFFFFFFFFFFFFFFF DUP3 AND SWAP1 POP SWAP2 SWAP1 POP JUMP JUMPDEST PUSH0 PUSH3 0x2F7 DUP3 PUSH3 0x2CC JUMP JUMPDEST SWAP1 POP SWAP2 SWAP1 POP JUMP JUMPDEST PUSH3 0x309 DUP2 PUSH3 0x2EB JUMP JUMPDEST DUP2 EQ PUSH3 0x314 JUMPI PUSH0 DUP1 REVERT JUMPDEST POP JUMP JUMPDEST PUSH0 DUP2 MLOAD SWAP1 POP PUSH3 0x327 DUP2 PUSH3 0x2FE JUMP JUMPDEST SWAP3 SWAP2 POP POP JUMP JUMPDEST PUSH0 PUSH1 0x20 DUP3 DUP5 SUB SLT ISZERO PUSH3 0x345 JUMPI PUSH3 0x344 PUSH3 0x2C8 JUMP JUMPDEST JUMPDEST PUSH0 PUSH3 0x354 DUP5 DUP3 DUP6 ADD PUSH3 0x317 JUMP JUMPDEST SWAP2 POP POP SWAP3 SWAP2 POP POP JUMP JUMPDEST PUSH3 0x368 DUP2 PUSH3 0x2EB JUMP JUMPDEST DUP3 MSTORE POP POP JUMP JUMPDEST PUSH0 PUSH1 0x20 DUP3 ADD SWAP1 POP PUSH3 0x383 PUSH0 DUP4 ADD DUP5 PUSH3 0x35D JUMP JUMPDEST SWAP3 SWAP2 POP POP JUMP JUMPDEST PUSH0 PUSH1 0xFF DUP3 AND SWAP1 POP SWAP2 SWAP1 POP JUMP JUMPDEST PUSH3 0x3A0 DUP2 PUSH3 0x389 JUMP JUMPDEST DUP2 EQ PUSH3 0x3AB JUMPI PUSH0 DUP1 REVERT JUMPDEST POP JUMP JUMPDEST PUSH0 DUP2 MLOAD SWAP1 POP PUSH3 0x3BE DUP2 PUSH3 0x395 JUMP JUMPDEST SWAP3 SWAP2 POP POP JUMP JUMPDEST PUSH0 PUSH1 0x20 DUP3 DUP5 SUB SLT ISZERO PUSH3 0x3DC JUMPI PUSH3 0x3DB PUSH3 0x2C8 JUMP JUMPDEST JUMPDEST PUSH0 PUSH3 0x3EB DUP5 DUP3 DUP6 ADD PUSH3 0x3AE JUMP JUMPDEST SWAP2 POP POP SWAP3 SWAP2 POP POP JUMP JUMPDEST PUSH2 0x16F8 DUP1 PUSH3 0x402 PUSH0 CODECOPY PUSH0 RETURN INVALID PUSH1 0x80 PUSH1 0x40 MSTORE PUSH1 0x4 CALLDATASIZE LT PUSH2 0xF6 JUMPI PUSH0 CALLDATALOAD PUSH1 0xE0 SHR DUP1 PUSH4 0x741BEF1A GT PUSH2 0x89 JUMPI DUP1 PUSH4 0xD9E69A05 GT PUSH2 0x58 JUMPI DUP1 PUSH4 0xD9E69A05 EQ PUSH2 0x2E1 JUMPI DUP1 PUSH4 0xE9CBD822 EQ PUSH2 0x30B JUMPI DUP1 PUSH4 0xF2FDE38B EQ PUSH2 0x335 JUMPI DUP1 PUSH4 0xF571180B EQ PUSH2 0x35D JUMPI PUSH2 0xFD JUMP JUMPDEST DUP1 PUSH4 0x741BEF1A EQ PUSH2 0x23B JUMPI DUP1 PUSH4 0x8DA5CB5B EQ PUSH2 0x265 JUMPI DUP1 PUSH4 0x8E15F473 EQ PUSH2 0x28F JUMPI DUP1 PUSH4 0xC5EBEAEC EQ PUSH2 0x2B9 JUMPI PUSH2 0xFD JUMP JUMPDEST DUP1 PUSH4 0x57376198 GT PUSH2 0xC5 JUMPI DUP1 PUSH4 0x57376198 EQ PUSH2 0x1CB JUMPI DUP1 PUSH4 0x6112FE2E EQ PUSH2 0x1F3 JUMPI DUP1 PUSH4 0x6F758140 EQ PUSH2 0x21B JUMPI DUP1 PUSH4 0x715018A6 EQ PUSH2 0x225 JUMPI PUSH2 0xFD JUMP JUMPDEST DUP1 PUSH4 0x5F287FE EQ PUSH2 0x101 JUMPI DUP1 PUSH4 0x66BFF28 EQ PUSH2 0x13D JUMPI DUP1 PUSH4 0x371FD8E6 EQ PUSH2 0x179 JUMPI DUP1 PUSH4 0x3B97E856 EQ PUSH2 0x1A1 JUMPI PUSH2 0xFD JUMP JUMPDEST CALLDATASIZE PUSH2 0xFD JUMPI STOP JUMPDEST PUSH0 DUP1 REVERT JUMPDEST CALLVALUE DUP1 ISZERO PUSH2 0x10C JUMPI PUSH0 DUP1 REVERT JUMPDEST POP PUSH2 0x127 PUSH1 0x4 DUP1 CALLDATASIZE SUB DUP2 ADD SWAP1 PUSH2 0x122 SWAP2 SWAP1 PUSH2 0xDC0 JUMP JUMPDEST PUSH2 0x399 JUMP JUMPDEST PUSH1 0x40 MLOAD PUSH2 0x134 SWAP2 SWAP1 PUSH2 0xDFA JUMP JUMPDEST PUSH1 0x40 MLOAD DUP1 SWAP2 SUB SWAP1 RETURN JUMPDEST CALLVALUE DUP1 ISZERO PUSH2 0x148 JUMPI PUSH0 DUP1 REVERT JUMPDEST POP PUSH2 0x163 PUSH1 0x4 DUP1 CALLDATASIZE SUB DUP2 ADD SWAP1 PUSH2 0x15E SWAP2 SWAP1 PUSH2 0xE6D JUMP JUMPDEST PUSH2 0x428 JUMP JUMPDEST PUSH1 0x40 MLOAD PUSH2 0x170 SWAP2 SWAP1 PUSH2 0xDFA JUMP JUMPDEST PUSH1 0x40 MLOAD DUP1 SWAP2 SUB SWAP1 RETURN JUMPDEST CALLVALUE DUP1 ISZERO PUSH2 0x184 JUMPI PUSH0 DUP1 REVERT JUMPDEST POP PUSH2 0x19F PUSH1 0x4 DUP1 CALLDATASIZE SUB DUP2 ADD SWAP1 PUSH2 0x19A SWAP2 SWAP1 PUSH2 0xDC0 JUMP JUMPDEST PUSH2 0x43D JUMP JUMPDEST STOP JUMPDEST CALLVALUE DUP1 ISZERO PUSH2 0x1AC JUMPI PUSH0 DUP1 REVERT JUMPDEST POP PUSH2 0x1B5 PUSH2 0x5F0 JUMP JUMPDEST PUSH1 0x40 MLOAD PUSH2 0x1C2 SWAP2 SWAP1 PUSH2 0xEB3 JUMP JUMPDEST PUSH1 0x40 MLOAD DUP1 SWAP2 SUB SWAP1 RETURN JUMPDEST CALLVALUE DUP1 ISZERO PUSH2 0x1D6 JUMPI PUSH0 DUP1 REVERT JUMPDEST POP PUSH2 0x1F1 PUSH1 0x4 DUP1 CALLDATASIZE SUB DUP2 ADD SWAP1 PUSH2 0x1EC SWAP2 SWAP1 PUSH2 0xECC JUMP JUMPDEST PUSH2 0x603 JUMP JUMPDEST STOP JUMPDEST CALLVALUE DUP1 ISZERO PUSH2 0x1FE JUMPI PUSH0 DUP1 REVERT JUMPDEST POP PUSH2 0x219 PUSH1 0x4 DUP1 CALLDATASIZE SUB DUP2 ADD SWAP1 PUSH2 0x214 SWAP2 SWAP1 PUSH2 0xDC0 JUMP JUMPDEST PUSH2 0x692 JUMP JUMPDEST STOP JUMPDEST PUSH2 0x223 PUSH2 0x82B JUMP JUMPDEST STOP JUMPDEST CALLVALUE DUP1 ISZERO PUSH2 0x230 JUMPI PUSH0 DUP1 REVERT JUMPDEST POP PUSH2 0x239 PUSH2 0x8C2 JUMP JUMPDEST STOP JUMPDEST CALLVALUE DUP1 ISZERO PUSH2 0x246 JUMPI PUSH0 DUP1 REVERT JUMPDEST POP PUSH2 0x24F PUSH2 0x8D5 JUMP JUMPDEST PUSH1 0x40 MLOAD PUSH2 0x25C SWAP2 SWAP1 PUSH2 0xF65 JUMP JUMPDEST PUSH1 0x40 MLOAD DUP1 SWAP2 SUB SWAP1 RETURN JUMPDEST CALLVALUE DUP1 ISZERO PUSH2 0x270 JUMPI PUSH0 DUP1 REVERT JUMPDEST POP PUSH2 0x279 PUSH2 0x8FA JUMP JUMPDEST PUSH1 0x40 MLOAD PUSH2 0x286 SWAP2 SWAP1 PUSH2 0xF8D JUMP JUMPDEST PUSH1 0x40 MLOAD DUP1 SWAP2 SUB SWAP1 RETURN JUMPDEST CALLVALUE DUP1 ISZERO PUSH2 0x29A JUMPI PUSH0 DUP1 REVERT JUMPDEST POP PUSH2 0x2A3 PUSH2 0x921 JUMP JUMPDEST PUSH1 0x40 MLOAD PUSH2 0x2B0 SWAP2 SWAP1 PUSH2 0xDFA JUMP JUMPDEST PUSH1 0x40 MLOAD DUP1 SWAP2 SUB SWAP1 RETURN JUMPDEST CALLVALUE DUP1 ISZERO PUSH2 0x2C4 JUMPI PUSH0 DUP1 REVERT JUMPDEST POP PUSH2 0x2DF PUSH1 0x4 DUP1 CALLDATASIZE SUB DUP2 ADD SWAP1 PUSH2 0x2DA SWAP2 SWAP1 PUSH2 0xDC0 JUMP JUMPDEST PUSH2 0x9BE JUMP JUMPDEST STOP JUMPDEST CALLVALUE DUP1 ISZERO PUSH2 0x2EC JUMPI PUSH0 DUP1 REVERT JUMPDEST POP PUSH2 0x2F5 PUSH2 0xB77 JUMP JUMPDEST PUSH1 0x40 MLOAD PUSH2 0x302 SWAP2 SWAP1 PUSH2 0xDFA JUMP JUMPDEST PUSH1 0x40 MLOAD DUP1 SWAP2 SUB SWAP1 RETURN JUMPDEST CALLVALUE DUP1 ISZERO PUSH2 0x316 JUMPI PUSH0 DUP1 REVERT JUMPDEST POP PUSH2 0x31F PUSH2 0xB7C JUMP JUMPDEST PUSH1 0x40 MLOAD PUSH2 0x32C SWAP2 SWAP1 PUSH2 0xFC6 JUMP JUMPDEST PUSH1 0x40 MLOAD DUP1 SWAP2 SUB SWAP1 RETURN JUMPDEST CALLVALUE DUP1 ISZERO PUSH2 0x340 JUMPI PUSH0 DUP1 REVERT JUMPDEST POP PUSH2 0x35B PUSH1 0x4 DUP1 CALLDATASIZE SUB DUP2 ADD SWAP1 PUSH2 0x356 SWAP2 SWAP1 PUSH2 0xE6D JUMP JUMPDEST PUSH2 0xBA1 JUMP JUMPDEST STOP JUMPDEST CALLVALUE DUP1 ISZERO PUSH2 0x368 JUMPI PUSH0 DUP1 REVERT JUMPDEST POP PUSH2 0x383 PUSH1 0x4 DUP1 CALLDATASIZE SUB DUP2 ADD SWAP1 PUSH2 0x37E SWAP2 SWAP1 PUSH2 0xE6D JUMP JUMPDEST PUSH2 0xC25 JUMP JUMPDEST PUSH1 0x40 MLOAD PUSH2 0x390 SWAP2 SWAP1 PUSH2 0xDFA JUMP JUMPDEST PUSH1 0x40 MLOAD DUP1 SWAP2 SUB SWAP1 RETURN JUMPDEST PUSH0 DUP1 PUSH2 0x3A3 PUSH2 0x921 JUMP JUMPDEST SWAP1 POP PUSH0 PUSH1 0x2 PUSH1 0x14 SWAP1 SLOAD SWAP1 PUSH2 0x100 EXP SWAP1 DIV PUSH1 0xFF AND PUSH1 0xFF AND PUSH1 0x8 PUSH2 0x3C5 SWAP2 SWAP1 PUSH2 0x100C JUMP JUMPDEST PUSH1 0xA PUSH2 0x3D1 SWAP2 SWAP1 PUSH2 0x116E JUMP JUMPDEST SWAP1 POP PUSH0 DUP3 PUSH8 0xDE0B6B3A7640000 DUP4 DUP8 PUSH2 0x3EA SWAP2 SWAP1 PUSH2 0x11B8 JUMP JUMPDEST PUSH2 0x3F4 SWAP2 SWAP1 PUSH2 0x11B8 JUMP JUMPDEST PUSH2 0x3FE SWAP2 SWAP1 PUSH2 0x1226 JUMP JUMPDEST SWAP1 POP PUSH0 PUSH1 0x64 PUSH1 0x96 DUP4 PUSH2 0x410 SWAP2 SWAP1 PUSH2 0x11B8 JUMP JUMPDEST PUSH2 0x41A SWAP2 SWAP1 PUSH2 0x1226 JUMP JUMPDEST SWAP1 POP DUP1 SWAP5 POP POP POP POP POP SWAP2 SWAP1 POP JUMP JUMPDEST PUSH1 0x4 PUSH1 0x20 MSTORE DUP1 PUSH0 MSTORE PUSH1 0x40 PUSH0 KECCAK256 PUSH0 SWAP2 POP SWAP1 POP SLOAD DUP2 JUMP JUMPDEST DUP1 PUSH1 0x4 PUSH0 CALLER PUSH20 0xFFFFFFFFFFFFFFFFFFFFFFFFFFFFFFFFFFFFFFFF AND PUSH20 0xFFFFFFFFFFFFFFFFFFFFFFFFFFFFFFFFFFFFFFFF AND DUP2 MSTORE PUSH1 0x20 ADD SWAP1 DUP2 MSTORE PUSH1 0x20 ADD PUSH0 KECCAK256 SLOAD LT ISZERO PUSH2 0x4BD JUMPI PUSH1 0x40 MLOAD PUSH32 0x8C379A000000000000000000000000000000000000000000000000000000000 DUP2 MSTORE PUSH1 0x4 ADD PUSH2 0x4B4 SWAP1 PUSH2 0x12B0 JUMP JUMPDEST PUSH1 0x40 MLOAD DUP1 SWAP2 SUB SWAP1 REVERT JUMPDEST DUP1 PUSH1 0x4 PUSH0 CALLER PUSH20 0xFFFFFFFFFFFFFFFFFFFFFFFFFFFFFFFFFFFFFFFF AND PUSH20 0xFFFFFFFFFFFFFFFFFFFFFFFFFFFFFFFFFFFFFFFF AND DUP2 MSTORE PUSH1 0x20 ADD SWAP1 DUP2 MSTORE PUSH1 0x20 ADD PUSH0 KECCAK256 PUSH0 DUP3 DUP3 SLOAD PUSH2 0x509 SWAP2 SWAP1 PUSH2 0x100C JUMP JUMPDEST SWAP3 POP POP DUP2 SWAP1 SSTORE POP PUSH1 0x2 PUSH0 SWAP1 SLOAD SWAP1 PUSH2 0x100 EXP SWAP1 DIV PUSH20 0xFFFFFFFFFFFFFFFFFFFFFFFFFFFFFFFFFFFFFFFF AND PUSH20 0xFFFFFFFFFFFFFFFFFFFFFFFFFFFFFFFFFFFFFFFF AND PUSH4 0x23B872DD CALLER ADDRESS DUP5 PUSH1 0x40 MLOAD DUP5 PUSH4 0xFFFFFFFF AND PUSH1 0xE0 SHL DUP2 MSTORE PUSH1 0x4 ADD PUSH2 0x56E SWAP4 SWAP3 SWAP2 SWAP1 PUSH2 0x12CE JUMP JUMPDEST PUSH1 0x20 PUSH1 0x40 MLOAD DUP1 DUP4 SUB DUP2 PUSH0 DUP8 GAS CALL ISZERO DUP1 ISZERO PUSH2 0x58A JUMPI RETURNDATASIZE PUSH0 DUP1 RETURNDATACOPY RETURNDATASIZE PUSH0 REVERT JUMPDEST POP POP POP POP PUSH1 0x40 MLOAD RETURNDATASIZE PUSH1 0x1F NOT PUSH1 0x1F DUP3 ADD AND DUP3 ADD DUP1 PUSH1 0x40 MSTORE POP DUP2 ADD SWAP1 PUSH2 0x5AE SWAP2 SWAP1 PUSH2 0x1338 JUMP JUMPDEST PUSH2 0x5ED JUMPI PUSH1 0x40 MLOAD PUSH32 0x8C379A000000000000000000000000000000000000000000000000000000000 DUP2 MSTORE PUSH1 0x4 ADD PUSH2 0x5E4 SWAP1 PUSH2 0x13AD JUMP JUMPDEST PUSH1 0x40 MLOAD DUP1 SWAP2 SUB SWAP1 REVERT JUMPDEST POP JUMP JUMPDEST PUSH1 0x2 PUSH1 0x14 SWAP1 SLOAD SWAP1 PUSH2 0x100 EXP SWAP1 DIV PUSH1 0xFF AND DUP2 JUMP JUMPDEST PUSH2 0x60B PUSH2 0xC3A JUMP JUMPDEST DUP2 PUSH20 0xFFFFFFFFFFFFFFFFFFFFFFFFFFFFFFFFFFFFFFFF AND PUSH4 0xA9059CBB PUSH2 0x62F PUSH2 0x8FA JUMP JUMPDEST DUP4 PUSH1 0x40 MLOAD DUP4 PUSH4 0xFFFFFFFF AND PUSH1 0xE0 SHL DUP2 MSTORE PUSH1 0x4 ADD PUSH2 0x64D SWAP3 SWAP2 SWAP1 PUSH2 0x13CB JUMP JUMPDEST PUSH1 0x20 PUSH1 0x40 MLOAD DUP1 DUP4 SUB DUP2 PUSH0 DUP8 GAS CALL ISZERO DUP1 ISZERO PUSH2 0x669 JUMPI RETURNDATASIZE PUSH0 DUP1 RETURNDATACOPY RETURNDATASIZE PUSH0 REVERT JUMPDEST POP POP POP POP PUSH1 0x40 MLOAD RETURNDATASIZE PUSH1 0x1F NOT PUSH1 0x1F DUP3 ADD AND DUP3 ADD DUP1 PUSH1 0x40 MSTORE POP DUP2 ADD SWAP1 PUSH2 0x68D SWAP2 SWAP1 PUSH2 0x1338 JUMP JUMPDEST POP POP POP JUMP JUMPDEST PUSH0 PUSH1 0x4 PUSH0 CALLER PUSH20 0xFFFFFFFFFFFFFFFFFFFFFFFFFFFFFFFFFFFFFFFF AND PUSH20 0xFFFFFFFFFFFFFFFFFFFFFFFFFFFFFFFFFFFFFFFF AND DUP2 MSTORE PUSH1 0x20 ADD SWAP1 DUP2 MSTORE PUSH1 0x20 ADD PUSH0 KECCAK256 SLOAD EQ PUSH2 0x711 JUMPI PUSH1 0x40 MLOAD PUSH32 0x8C379A000000000000000000000000000000000000000000000000000000000 DUP2 MSTORE PUSH1 0x4 ADD PUSH2 0x708 SWAP1 PUSH2 0x143C JUMP JUMPDEST PUSH1 0x40 MLOAD DUP1 SWAP2 SUB SWAP1 REVERT JUMPDEST DUP1 PUSH1 0x3 PUSH0 CALLER PUSH20 0xFFFFFFFFFFFFFFFFFFFFFFFFFFFFFFFFFFFFFFFF AND PUSH20 0xFFFFFFFFFFFFFFFFFFFFFFFFFFFFFFFFFFFFFFFF AND DUP2 MSTORE PUSH1 0x20 ADD SWAP1 DUP2 MSTORE PUSH1 0x20 ADD PUSH0 KECCAK256 SLOAD LT ISZERO PUSH2 0x791 JUMPI PUSH1 0x40 MLOAD PUSH32 0x8C379A000000000000000000000000000000000000000000000000000000000 DUP2 MSTORE PUSH1 0x4 ADD PUSH2 0x788 SWAP1 PUSH2 0x14A4 JUMP JUMPDEST PUSH1 0x40 MLOAD DUP1 SWAP2 SUB SWAP1 REVERT JUMPDEST DUP1 PUSH1 0x3 PUSH0 CALLER PUSH20 0xFFFFFFFFFFFFFFFFFFFFFFFFFFFFFFFFFFFFFFFF AND PUSH20 0xFFFFFFFFFFFFFFFFFFFFFFFFFFFFFFFFFFFFFFFF AND DUP2 MSTORE PUSH1 0x20 ADD SWAP1 DUP2 MSTORE PUSH1 0x20 ADD PUSH0 KECCAK256 PUSH0 DUP3 DUP3 SLOAD PUSH2 0x7DD SWAP2 SWAP1 PUSH2 0x100C JUMP JUMPDEST SWAP3 POP POP DUP2 SWAP1 SSTORE POP CALLER PUSH20 0xFFFFFFFFFFFFFFFFFFFFFFFFFFFFFFFFFFFFFFFF AND PUSH2 0x8FC DUP3 SWAP1 DUP2 ISZERO MUL SWAP1 PUSH1 0x40 MLOAD PUSH0 PUSH1 0x40 MLOAD DUP1 DUP4 SUB DUP2 DUP6 DUP9 DUP9 CALL SWAP4 POP POP POP POP ISZERO DUP1 ISZERO PUSH2 0x827 JUMPI RETURNDATASIZE PUSH0 DUP1 RETURNDATACOPY RETURNDATASIZE PUSH0 REVERT JUMPDEST POP POP JUMP JUMPDEST PUSH0 CALLVALUE GT PUSH2 0x86D JUMPI PUSH1 0x40 MLOAD PUSH32 0x8C379A000000000000000000000000000000000000000000000000000000000 DUP2 MSTORE PUSH1 0x4 ADD PUSH2 0x864 SWAP1 PUSH2 0x150C JUMP JUMPDEST PUSH1 0x40 MLOAD DUP1 SWAP2 SUB SWAP1 REVERT JUMPDEST CALLVALUE PUSH1 0x3 PUSH0 CALLER PUSH20 0xFFFFFFFFFFFFFFFFFFFFFFFFFFFFFFFFFFFFFFFF AND PUSH20 0xFFFFFFFFFFFFFFFFFFFFFFFFFFFFFFFFFFFFFFFF AND DUP2 MSTORE PUSH1 0x20 ADD SWAP1 DUP2 MSTORE PUSH1 0x20 ADD PUSH0 KECCAK256 PUSH0 DUP3 DUP3 SLOAD PUSH2 0x8B9 SWAP2 SWAP1 PUSH2 0x152A JUMP JUMPDEST SWAP3 POP POP DUP2 SWAP1 SSTORE POP JUMP JUMPDEST PUSH2 0x8CA PUSH2 0xC3A JUMP JUMPDEST PUSH2 0x8D3 PUSH0 PUSH2 0xCC1 JUMP JUMPDEST JUMP JUMPDEST PUSH1 0x1 PUSH0 SWAP1 SLOAD SWAP1 PUSH2 0x100 EXP SWAP1 DIV PUSH20 0xFFFFFFFFFFFFFFFFFFFFFFFFFFFFFFFFFFFFFFFF AND DUP2 JUMP JUMPDEST PUSH0 DUP1 PUSH0 SWAP1 SLOAD SWAP1 PUSH2 0x100 EXP SWAP1 DIV PUSH20 0xFFFFFFFFFFFFFFFFFFFFFFFFFFFFFFFFFFFFFFFF AND SWAP1 POP SWAP1 JUMP JUMPDEST PUSH0 DUP1 PUSH1 0x1 PUSH0 SWAP1 SLOAD SWAP1 PUSH2 0x100 EXP SWAP1 DIV PUSH20 0xFFFFFFFFFFFFFFFFFFFFFFFFFFFFFFFFFFFFFFFF AND PUSH20 0xFFFFFFFFFFFFFFFFFFFFFFFFFFFFFFFFFFFFFFFF AND PUSH4 0xFEAF968C PUSH1 0x40 MLOAD DUP2 PUSH4 0xFFFFFFFF AND PUSH1 0xE0 SHL DUP2 MSTORE PUSH1 0x4 ADD PUSH1 0xA0 PUSH1 0x40 MLOAD DUP1 DUP4 SUB DUP2 DUP7 GAS STATICCALL ISZERO DUP1 ISZERO PUSH2 0x98D JUMPI RETURNDATASIZE PUSH0 DUP1 RETURNDATACOPY RETURNDATASIZE PUSH0 REVERT JUMPDEST POP POP POP POP PUSH1 0x40 MLOAD RETURNDATASIZE PUSH1 0x1F NOT PUSH1 0x1F DUP3 ADD AND DUP3 ADD DUP1 PUSH1 0x40 MSTORE POP DUP2 ADD SWAP1 PUSH2 0x9B1 SWAP2 SWAP1 PUSH2 0x15E3 JUMP JUMPDEST POP POP POP SWAP2 POP POP DUP1 SWAP2 POP POP SWAP1 JUMP JUMPDEST PUSH2 0x9C7 DUP2 PUSH2 0x399 JUMP JUMPDEST PUSH1 0x3 PUSH0 CALLER PUSH20 0xFFFFFFFFFFFFFFFFFFFFFFFFFFFFFFFFFFFFFFFF AND PUSH20 0xFFFFFFFFFFFFFFFFFFFFFFFFFFFFFFFFFFFFFFFF AND DUP2 MSTORE PUSH1 0x20 ADD SWAP1 DUP2 MSTORE PUSH1 0x20 ADD PUSH0 KECCAK256 SLOAD LT ISZERO PUSH2 0xA46 JUMPI PUSH1 0x40 MLOAD PUSH32 0x8C379A000000000000000000000000000000000000000000000000000000000 DUP2 MSTORE PUSH1 0x4 ADD PUSH2 0xA3D SWAP1 PUSH2 0x16A4 JUMP JUMPDEST PUSH1 0x40 MLOAD DUP1 SWAP2 SUB SWAP1 REVERT JUMPDEST DUP1 PUSH1 0x4 PUSH0 CALLER PUSH20 0xFFFFFFFFFFFFFFFFFFFFFFFFFFFFFFFFFFFFFFFF AND PUSH20 0xFFFFFFFFFFFFFFFFFFFFFFFFFFFFFFFFFFFFFFFF AND DUP2 MSTORE PUSH1 0x20 ADD SWAP1 DUP2 MSTORE PUSH1 0x20 ADD PUSH0 KECCAK256 PUSH0 DUP3 DUP3 SLOAD PUSH2 0xA92 SWAP2 SWAP1 PUSH2 0x152A JUMP JUMPDEST SWAP3 POP POP DUP2 SWAP1 SSTORE POP PUSH1 0x2 PUSH0 SWAP1 SLOAD SWAP1 PUSH2 0x100 EXP SWAP1 DIV PUSH20 0xFFFFFFFFFFFFFFFFFFFFFFFFFFFFFFFFFFFFFFFF AND PUSH20 0xFFFFFFFFFFFFFFFFFFFFFFFFFFFFFFFFFFFFFFFF AND PUSH4 0xA9059CBB CALLER DUP4 PUSH1 0x40 MLOAD DUP4 PUSH4 0xFFFFFFFF AND PUSH1 0xE0 SHL DUP2 MSTORE PUSH1 0x4 ADD PUSH2 0xAF5 SWAP3 SWAP2 SWAP1 PUSH2 0x13CB JUMP JUMPDEST PUSH1 0x20 PUSH1 0x40 MLOAD DUP1 DUP4 SUB DUP2 PUSH0 DUP8 GAS CALL ISZERO DUP1 ISZERO PUSH2 0xB11 JUMPI RETURNDATASIZE PUSH0 DUP1 RETURNDATACOPY RETURNDATASIZE PUSH0 REVERT JUMPDEST POP POP POP POP PUSH1 0x40 MLOAD RETURNDATASIZE PUSH1 0x1F NOT PUSH1 0x1F DUP3 ADD AND DUP3 ADD DUP1 PUSH1 0x40 MSTORE POP DUP2 ADD SWAP1 PUSH2 0xB35 SWAP2 SWAP1 PUSH2 0x1338 JUMP JUMPDEST PUSH2 0xB74 JUMPI PUSH1 0x40 MLOAD PUSH32 0x8C379A000000000000000000000000000000000000000000000000000000000 DUP2 MSTORE PUSH1 0x4 ADD PUSH2 0xB6B SWAP1 PUSH2 0x13AD JUMP JUMPDEST PUSH1 0x40 MLOAD DUP1 SWAP2 SUB SWAP1 REVERT JUMPDEST POP JUMP JUMPDEST PUSH1 0x96 DUP2 JUMP JUMPDEST PUSH1 0x2 PUSH0 SWAP1 SLOAD SWAP1 PUSH2 0x100 EXP SWAP1 DIV PUSH20 0xFFFFFFFFFFFFFFFFFFFFFFFFFFFFFFFFFFFFFFFF AND DUP2 JUMP JUMPDEST PUSH2 0xBA9 PUSH2 0xC3A JUMP JUMPDEST PUSH0 PUSH20 0xFFFFFFFFFFFFFFFFFFFFFFFFFFFFFFFFFFFFFFFF AND DUP2 PUSH20 0xFFFFFFFFFFFFFFFFFFFFFFFFFFFFFFFFFFFFFFFF AND SUB PUSH2 0xC19 JUMPI PUSH0 PUSH1 0x40 MLOAD PUSH32 0x1E4FBDF700000000000000000000000000000000000000000000000000000000 DUP2 MSTORE PUSH1 0x4 ADD PUSH2 0xC10 SWAP2 SWAP1 PUSH2 0xF8D JUMP JUMPDEST PUSH1 0x40 MLOAD DUP1 SWAP2 SUB SWAP1 REVERT JUMPDEST PUSH2 0xC22 DUP2 PUSH2 0xCC1 JUMP JUMPDEST POP JUMP JUMPDEST PUSH1 0x3 PUSH1 0x20 MSTORE DUP1 PUSH0 MSTORE PUSH1 0x40 PUSH0 KECCAK256 PUSH0 SWAP2 POP SWAP1 POP SLOAD DUP2 JUMP JUMPDEST PUSH2 0xC42 PUSH2 0xD82 JUMP JUMPDEST PUSH20 0xFFFFFFFFFFFFFFFFFFFFFFFFFFFFFFFFFFFFFFFF AND PUSH2 0xC60 PUSH2 0x8FA JUMP JUMPDEST PUSH20 0xFFFFFFFFFFFFFFFFFFFFFFFFFFFFFFFFFFFFFFFF AND EQ PUSH2 0xCBF JUMPI PUSH2 0xC83 PUSH2 0xD82 JUMP JUMPDEST PUSH1 0x40 MLOAD PUSH32 0x118CDAA700000000000000000000000000000000000000000000000000000000 DUP2 MSTORE PUSH1 0x4 ADD PUSH2 0xCB6 SWAP2 SWAP1 PUSH2 0xF8D JUMP JUMPDEST PUSH1 0x40 MLOAD DUP1 SWAP2 SUB SWAP1 REVERT JUMPDEST JUMP JUMPDEST PUSH0 DUP1 PUSH0 SWAP1 SLOAD SWAP1 PUSH2 0x100 EXP SWAP1 DIV PUSH20 0xFFFFFFFFFFFFFFFFFFFFFFFFFFFFFFFFFFFFFFFF AND SWAP1 POP DUP2 PUSH0 DUP1 PUSH2 0x100 EXP DUP2 SLOAD DUP2 PUSH20 0xFFFFFFFFFFFFFFFFFFFFFFFFFFFFFFFFFFFFFFFF MUL NOT AND SWAP1 DUP4 PUSH20 0xFFFFFFFFFFFFFFFFFFFFFFFFFFFFFFFFFFFFFFFF AND MUL OR SWAP1 SSTORE POP DUP2 PUSH20 0xFFFFFFFFFFFFFFFFFFFFFFFFFFFFFFFFFFFFFFFF AND DUP2 PUSH20 0xFFFFFFFFFFFFFFFFFFFFFFFFFFFFFFFFFFFFFFFF AND PUSH32 0x8BE0079C531659141344CD1FD0A4F28419497F9722A3DAAFE3B4186F6B6457E0 PUSH1 0x40 MLOAD PUSH1 0x40 MLOAD DUP1 SWAP2 SUB SWAP1 LOG3 POP POP JUMP JUMPDEST PUSH0 CALLER SWAP1 POP SWAP1 JUMP JUMPDEST PUSH0 DUP1 REVERT JUMPDEST PUSH0 DUP2 SWAP1 POP SWAP2 SWAP1 POP JUMP JUMPDEST PUSH2 0xD9F DUP2 PUSH2 0xD8D JUMP JUMPDEST DUP2 EQ PUSH2 0xDA9 JUMPI PUSH0 DUP1 REVERT JUMPDEST POP JUMP JUMPDEST PUSH0 DUP2 CALLDATALOAD SWAP1 POP PUSH2 0xDBA DUP2 PUSH2 0xD96 JUMP JUMPDEST SWAP3 SWAP2 POP POP JUMP JUMPDEST PUSH0 PUSH1 0x20 DUP3 DUP5 SUB SLT ISZERO PUSH2 0xDD5 JUMPI PUSH2 0xDD4 PUSH2 0xD89 JUMP JUMPDEST JUMPDEST PUSH0 PUSH2 0xDE2 DUP5 DUP3 DUP6 ADD PUSH2 0xDAC JUMP JUMPDEST SWAP2 POP POP SWAP3 SWAP2 POP POP JUMP JUMPDEST PUSH2 0xDF4 DUP2 PUSH2 0xD8D JUMP JUMPDEST DUP3 MSTORE POP POP JUMP JUMPDEST PUSH0 PUSH1 0x20 DUP3 ADD SWAP1 POP PUSH2 0xE0D PUSH0 DUP4 ADD DUP5 PUSH2 0xDEB JUMP JUMPDEST SWAP3 SWAP2 POP POP JUMP JUMPDEST PUSH0 PUSH20 0xFFFFFFFFFFFFFFFFFFFFFFFFFFFFFFFFFFFFFFFF DUP3 AND SWAP1 POP SWAP2 SWAP1 POP JUMP JUMPDEST PUSH0 PUSH2 0xE3C DUP3 PUSH2 0xE13 JUMP JUMPDEST SWAP1 POP SWAP2 SWAP1 POP JUMP JUMPDEST PUSH2 0xE4C DUP2 PUSH2 0xE32 JUMP JUMPDEST DUP2 EQ PUSH2 0xE56 JUMPI PUSH0 DUP1 REVERT JUMPDEST POP JUMP JUMPDEST PUSH0 DUP2 CALLDATALOAD SWAP1 POP PUSH2 0xE67 DUP2 PUSH2 0xE43 JUMP JUMPDEST SWAP3 SWAP2 POP POP JUMP JUMPDEST PUSH0 PUSH1 0x20 DUP3 DUP5 SUB SLT ISZERO PUSH2 0xE82 JUMPI PUSH2 0xE81 PUSH2 0xD89 JUMP JUMPDEST JUMPDEST PUSH0 PUSH2 0xE8F DUP5 DUP3 DUP6 ADD PUSH2 0xE59 JUMP JUMPDEST SWAP2 POP POP SWAP3 SWAP2 POP POP JUMP JUMPDEST PUSH0 PUSH1 0xFF DUP3 AND SWAP1 POP SWAP2 SWAP1 POP JUMP JUMPDEST PUSH2 0xEAD DUP2 PUSH2 0xE98 JUMP JUMPDEST DUP3 MSTORE POP POP JUMP JUMPDEST PUSH0 PUSH1 0x20 DUP3 ADD SWAP1 POP PUSH2 0xEC6 PUSH0 DUP4 ADD DUP5 PUSH2 0xEA4 JUMP JUMPDEST SWAP3 SWAP2 POP POP JUMP JUMPDEST PUSH0 DUP1 PUSH1 0x40 DUP4 DUP6 SUB SLT ISZERO PUSH2 0xEE2 JUMPI PUSH2 0xEE1 PUSH2 0xD89 JUMP JUMPDEST JUMPDEST PUSH0 PUSH2 0xEEF DUP6 DUP3 DUP7 ADD PUSH2 0xE59 JUMP JUMPDEST SWAP3 POP POP PUSH1 0x20 PUSH2 0xF00 DUP6 DUP3 DUP7 ADD PUSH2 0xDAC JUMP JUMPDEST SWAP2 POP POP SWAP3 POP SWAP3 SWAP1 POP JUMP JUMPDEST PUSH0 DUP2 SWAP1 POP SWAP2 SWAP1 POP JUMP JUMPDEST PUSH0 PUSH2 0xF2D PUSH2 0xF28 PUSH2 0xF23 DUP5 PUSH2 0xE13 JUMP JUMPDEST PUSH2 0xF0A JUMP JUMPDEST PUSH2 0xE13 JUMP JUMPDEST SWAP1 POP SWAP2 SWAP1 POP JUMP JUMPDEST PUSH0 PUSH2 0xF3E DUP3 PUSH2 0xF13 JUMP JUMPDEST SWAP1 POP SWAP2 SWAP1 POP JUMP JUMPDEST PUSH0 PUSH2 0xF4F DUP3 PUSH2 0xF34 JUMP JUMPDEST SWAP1 POP SWAP2 SWAP1 POP JUMP JUMPDEST PUSH2 0xF5F DUP2 PUSH2 0xF45 JUMP JUMPDEST DUP3 MSTORE POP POP JUMP JUMPDEST PUSH0 PUSH1 0x20 DUP3 ADD SWAP1 POP PUSH2 0xF78 PUSH0 DUP4 ADD DUP5 PUSH2 0xF56 JUMP JUMPDEST SWAP3 SWAP2 POP POP JUMP JUMPDEST PUSH2 0xF87 DUP2 PUSH2 0xE32 JUMP JUMPDEST DUP3 MSTORE POP POP JUMP JUMPDEST PUSH0 PUSH1 0x20 DUP3 ADD SWAP1 POP PUSH2 0xFA0 PUSH0 DUP4 ADD DUP5 PUSH2 0xF7E JUMP JUMPDEST SWAP3 SWAP2 POP POP JUMP JUMPDEST PUSH0 PUSH2 0xFB0 DUP3 PUSH2 0xF34 JUMP JUMPDEST SWAP1 POP SWAP2 SWAP1 POP JUMP JUMPDEST PUSH2 0xFC0 DUP2 PUSH2 0xFA6 JUMP JUMPDEST DUP3 MSTORE POP POP JUMP JUMPDEST PUSH0 PUSH1 0x20 DUP3 ADD SWAP1 POP PUSH2 0xFD9 PUSH0 DUP4 ADD DUP5 PUSH2 0xFB7 JUMP JUMPDEST SWAP3 SWAP2 POP POP JUMP JUMPDEST PUSH32 0x4E487B7100000000000000000000000000000000000000000000000000000000 PUSH0 MSTORE PUSH1 0x11 PUSH1 0x4 MSTORE PUSH1 0x24 PUSH0 REVERT JUMPDEST PUSH0 PUSH2 0x1016 DUP3 PUSH2 0xD8D JUMP JUMPDEST SWAP2 POP PUSH2 0x1021 DUP4 PUSH2 0xD8D JUMP JUMPDEST SWAP3 POP DUP3 DUP3 SUB SWAP1 POP DUP2 DUP2 GT ISZERO PUSH2 0x1039 JUMPI PUSH2 0x1038 PUSH2 0xFDF JUMP JUMPDEST JUMPDEST SWAP3 SWAP2 POP POP JUMP JUMPDEST PUSH0 DUP2 PUSH1 0x1 SHR SWAP1 POP SWAP2 SWAP1 POP JUMP JUMPDEST PUSH0 DUP1 DUP3 SWAP2 POP DUP4 SWAP1 POP JUMPDEST PUSH1 0x1 DUP6 GT ISZERO PUSH2 0x1094 JUMPI DUP1 DUP7 DIV DUP2 GT ISZERO PUSH2 0x1070 JUMPI PUSH2 0x106F PUSH2 0xFDF JUMP JUMPDEST JUMPDEST PUSH1 0x1 DUP6 AND ISZERO PUSH2 0x107F JUMPI DUP1 DUP3 MUL SWAP2 POP JUMPDEST DUP1 DUP2 MUL SWAP1 POP PUSH2 0x108D DUP6 PUSH2 0x103F JUMP JUMPDEST SWAP5 POP PUSH2 0x1054 JUMP JUMPDEST SWAP5 POP SWAP5 SWAP3 POP POP POP JUMP JUMPDEST PUSH0 DUP3 PUSH2 0x10AC JUMPI PUSH1 0x1 SWAP1 POP PUSH2 0x1167 JUMP JUMPDEST DUP2 PUSH2 0x10B9 JUMPI PUSH0 SWAP1 POP PUSH2 0x1167 JUMP JUMPDEST DUP2 PUSH1 0x1 DUP2 EQ PUSH2 0x10CF JUMPI PUSH1 0x2 DUP2 EQ PUSH2 0x10D9 JUMPI PUSH2 0x1108 JUMP JUMPDEST PUSH1 0x1 SWAP2 POP POP PUSH2 0x1167 JUMP JUMPDEST PUSH1 0xFF DUP5 GT ISZERO PUSH2 0x10EB JUMPI PUSH2 0x10EA PUSH2 0xFDF JUMP JUMPDEST JUMPDEST DUP4 PUSH1 0x2 EXP SWAP2 POP DUP5 DUP3 GT ISZERO PUSH2 0x1102 JUMPI PUSH2 0x1101 PUSH2 0xFDF JUMP JUMPDEST JUMPDEST POP PUSH2 0x1167 JUMP JUMPDEST POP PUSH1 0x20 DUP4 LT PUSH2 0x133 DUP4 LT AND PUSH1 0x4E DUP5 LT PUSH1 0xB DUP5 LT AND OR ISZERO PUSH2 0x113D JUMPI DUP3 DUP3 EXP SWAP1 POP DUP4 DUP2 GT ISZERO PUSH2 0x1138 JUMPI PUSH2 0x1137 PUSH2 0xFDF JUMP JUMPDEST JUMPDEST PUSH2 0x1167 JUMP JUMPDEST PUSH2 0x114A DUP5 DUP5 DUP5 PUSH1 0x1 PUSH2 0x104B JUMP JUMPDEST SWAP3 POP SWAP1 POP DUP2 DUP5 DIV DUP2 GT ISZERO PUSH2 0x1161 JUMPI PUSH2 0x1160 PUSH2 0xFDF JUMP JUMPDEST JUMPDEST DUP2 DUP2 MUL SWAP1 POP JUMPDEST SWAP4 SWAP3 POP POP POP JUMP JUMPDEST PUSH0 PUSH2 0x1178 DUP3 PUSH2 0xD8D JUMP JUMPDEST SWAP2 POP PUSH2 0x1183 DUP4 PUSH2 0xD8D JUMP JUMPDEST SWAP3 POP PUSH2 0x11B0 PUSH32 0xFFFFFFFFFFFFFFFFFFFFFFFFFFFFFFFFFFFFFFFFFFFFFFFFFFFFFFFFFFFFFFFF DUP5 DUP5 PUSH2 0x109D JUMP JUMPDEST SWAP1 POP SWAP3 SWAP2 POP POP JUMP JUMPDEST PUSH0 PUSH2 0x11C2 DUP3 PUSH2 0xD8D JUMP JUMPDEST SWAP2 POP PUSH2 0x11CD DUP4 PUSH2 0xD8D JUMP JUMPDEST SWAP3 POP DUP3 DUP3 MUL PUSH2 0x11DB DUP2 PUSH2 0xD8D JUMP JUMPDEST SWAP2 POP DUP3 DUP3 DIV DUP5 EQ DUP4 ISZERO OR PUSH2 0x11F2 JUMPI PUSH2 0x11F1 PUSH2 0xFDF JUMP JUMPDEST JUMPDEST POP SWAP3 SWAP2 POP POP JUMP JUMPDEST PUSH32 0x4E487B7100000000000000000000000000000000000000000000000000000000 PUSH0 MSTORE PUSH1 0x12 PUSH1 0x4 MSTORE PUSH1 0x24 PUSH0 REVERT JUMPDEST PUSH0 PUSH2 0x1230 DUP3 PUSH2 0xD8D JUMP JUMPDEST SWAP2 POP PUSH2 0x123B DUP4 PUSH2 0xD8D JUMP JUMPDEST SWAP3 POP DUP3 PUSH2 0x124B JUMPI PUSH2 0x124A PUSH2 0x11F9 JUMP JUMPDEST JUMPDEST DUP3 DUP3 DIV SWAP1 POP SWAP3 SWAP2 POP POP JUMP JUMPDEST PUSH0 DUP3 DUP3 MSTORE PUSH1 0x20 DUP3 ADD SWAP1 POP SWAP3 SWAP2 POP POP JUMP JUMPDEST PUSH32 0x546F6F206D7563682072657061796D656E740000000000000000000000000000 PUSH0 DUP3 ADD MSTORE POP JUMP JUMPDEST PUSH0 PUSH2 0x129A PUSH1 0x12 DUP4 PUSH2 0x1256 JUMP JUMPDEST SWAP2 POP PUSH2 0x12A5 DUP3 PUSH2 0x1266 JUMP JUMPDEST PUSH1 0x20 DUP3 ADD SWAP1 POP SWAP2 SWAP1 POP JUMP JUMPDEST PUSH0 PUSH1 0x20 DUP3 ADD SWAP1 POP DUP2 DUP2 SUB PUSH0 DUP4 ADD MSTORE PUSH2 0x12C7 DUP2 PUSH2 0x128E JUMP JUMPDEST SWAP1 POP SWAP2 SWAP1 POP JUMP JUMPDEST PUSH0 PUSH1 0x60 DUP3 ADD SWAP1 POP PUSH2 0x12E1 PUSH0 DUP4 ADD DUP7 PUSH2 0xF7E JUMP JUMPDEST PUSH2 0x12EE PUSH1 0x20 DUP4 ADD DUP6 PUSH2 0xF7E JUMP JUMPDEST PUSH2 0x12FB PUSH1 0x40 DUP4 ADD DUP5 PUSH2 0xDEB JUMP JUMPDEST SWAP5 SWAP4 POP POP POP POP JUMP JUMPDEST PUSH0 DUP2 ISZERO ISZERO SWAP1 POP SWAP2 SWAP1 POP JUMP JUMPDEST PUSH2 0x1317 DUP2 PUSH2 0x1303 JUMP JUMPDEST DUP2 EQ PUSH2 0x1321 JUMPI PUSH0 DUP1 REVERT JUMPDEST POP JUMP JUMPDEST PUSH0 DUP2 MLOAD SWAP1 POP PUSH2 0x1332 DUP2 PUSH2 0x130E JUMP JUMPDEST SWAP3 SWAP2 POP POP JUMP JUMPDEST PUSH0 PUSH1 0x20 DUP3 DUP5 SUB SLT ISZERO PUSH2 0x134D JUMPI PUSH2 0x134C PUSH2 0xD89 JUMP JUMPDEST JUMPDEST PUSH0 PUSH2 0x135A DUP5 DUP3 DUP6 ADD PUSH2 0x1324 JUMP JUMPDEST SWAP2 POP POP SWAP3 SWAP2 POP POP JUMP JUMPDEST PUSH32 0x5472616E73666572206661696C65640000000000000000000000000000000000 PUSH0 DUP3 ADD MSTORE POP JUMP JUMPDEST PUSH0 PUSH2 0x1397 PUSH1 0xF DUP4 PUSH2 0x1256 JUMP JUMPDEST SWAP2 POP PUSH2 0x13A2 DUP3 PUSH2 0x1363 JUMP JUMPDEST PUSH1 0x20 DUP3 ADD SWAP1 POP SWAP2 SWAP1 POP JUMP JUMPDEST PUSH0 PUSH1 0x20 DUP3 ADD SWAP1 POP DUP2 DUP2 SUB PUSH0 DUP4 ADD MSTORE PUSH2 0x13C4 DUP2 PUSH2 0x138B JUMP JUMPDEST SWAP1 POP SWAP2 SWAP1 POP JUMP JUMPDEST PUSH0 PUSH1 0x40 DUP3 ADD SWAP1 POP PUSH2 0x13DE PUSH0 DUP4 ADD DUP6 PUSH2 0xF7E JUMP JUMPDEST PUSH2 0x13EB PUSH1 0x20 DUP4 ADD DUP5 PUSH2 0xDEB JUMP JUMPDEST SWAP4 SWAP3 POP POP POP JUMP JUMPDEST PUSH32 0x50617920616C6C20646562742066697273740000000000000000000000000000 PUSH0 DUP3 ADD MSTORE POP JUMP JUMPDEST PUSH0 PUSH2 0x1426 PUSH1 0x12 DUP4 PUSH2 0x1256 JUMP JUMPDEST SWAP2 POP PUSH2 0x1431 DUP3 PUSH2 0x13F2 JUMP JUMPDEST PUSH1 0x20 DUP3 ADD SWAP1 POP SWAP2 SWAP1 POP JUMP JUMPDEST PUSH0 PUSH1 0x20 DUP3 ADD SWAP1 POP DUP2 DUP2 SUB PUSH0 DUP4 ADD MSTORE PUSH2 0x1453 DUP2 PUSH2 0x141A JUMP JUMPDEST SWAP1 POP SWAP2 SWAP1 POP JUMP JUMPDEST PUSH32 0x4E6F7420656E6F75676820636F6C6C61746572616C0000000000000000000000 PUSH0 DUP3 ADD MSTORE POP JUMP JUMPDEST PUSH0 PUSH2 0x148E PUSH1 0x15 DUP4 PUSH2 0x1256 JUMP JUMPDEST SWAP2 POP PUSH2 0x1499 DUP3 PUSH2 0x145A JUMP JUMPDEST PUSH1 0x20 DUP3 ADD SWAP1 POP SWAP2 SWAP1 POP JUMP JUMPDEST PUSH0 PUSH1 0x20 DUP3 ADD SWAP1 POP DUP2 DUP2 SUB PUSH0 DUP4 ADD MSTORE PUSH2 0x14BB DUP2 PUSH2 0x1482 JUMP JUMPDEST SWAP1 POP SWAP2 SWAP1 POP JUMP JUMPDEST PUSH32 0x4D7573742073656E64204E617469766520546F6B656E00000000000000000000 PUSH0 DUP3 ADD MSTORE POP JUMP JUMPDEST PUSH0 PUSH2 0x14F6 PUSH1 0x16 DUP4 PUSH2 0x1256 JUMP JUMPDEST SWAP2 POP PUSH2 0x1501 DUP3 PUSH2 0x14C2 JUMP JUMPDEST PUSH1 0x20 DUP3 ADD SWAP1 POP SWAP2 SWAP1 POP JUMP JUMPDEST PUSH0 PUSH1 0x20 DUP3 ADD SWAP1 POP DUP2 DUP2 SUB PUSH0 DUP4 ADD MSTORE PUSH2 0x1523 DUP2 PUSH2 0x14EA JUMP JUMPDEST SWAP1 POP SWAP2 SWAP1 POP JUMP JUMPDEST PUSH0 PUSH2 0x1534 DUP3 PUSH2 0xD8D JUMP JUMPDEST SWAP2 POP PUSH2 0x153F DUP4 PUSH2 0xD8D JUMP JUMPDEST SWAP3 POP DUP3 DUP3 ADD SWAP1 POP DUP1 DUP3 GT ISZERO PUSH2 0x1557 JUMPI PUSH2 0x1556 PUSH2 0xFDF JUMP JUMPDEST JUMPDEST SWAP3 SWAP2 POP POP JUMP JUMPDEST PUSH0 PUSH10 0xFFFFFFFFFFFFFFFFFFFF DUP3 AND SWAP1 POP SWAP2 SWAP1 POP JUMP JUMPDEST PUSH2 0x157B DUP2 PUSH2 0x155D JUMP JUMPDEST DUP2 EQ PUSH2 0x1585 JUMPI PUSH0 DUP1 REVERT JUMPDEST POP JUMP JUMPDEST PUSH0 DUP2 MLOAD SWAP1 POP PUSH2 0x1596 DUP2 PUSH2 0x1572 JUMP JUMPDEST SWAP3 SWAP2 POP POP JUMP JUMPDEST PUSH0 DUP2 SWAP1 POP SWAP2 SWAP1 POP JUMP JUMPDEST PUSH2 0x15AE DUP2 PUSH2 0x159C JUMP JUMPDEST DUP2 EQ PUSH2 0x15B8 JUMPI PUSH0 DUP1 REVERT JUMPDEST POP JUMP JUMPDEST PUSH0 DUP2 MLOAD SWAP1 POP PUSH2 0x15C9 DUP2 PUSH2 0x15A5 JUMP JUMPDEST SWAP3 SWAP2 POP POP JUMP JUMPDEST PUSH0 DUP2 MLOAD SWAP1 POP PUSH2 0x15DD DUP2 PUSH2 0xD96 JUMP JUMPDEST SWAP3 SWAP2 POP POP JUMP JUMPDEST PUSH0 DUP1 PUSH0 DUP1 PUSH0 PUSH1 0xA0 DUP7 DUP9 SUB SLT ISZERO PUSH2 0x15FC JUMPI PUSH2 0x15FB PUSH2 0xD89 JUMP JUMPDEST JUMPDEST PUSH0 PUSH2 0x1609 DUP9 DUP3 DUP10 ADD PUSH2 0x1588 JUMP JUMPDEST SWAP6 POP POP PUSH1 0x20 PUSH2 0x161A DUP9 DUP3 DUP10 ADD PUSH2 0x15BB JUMP JUMPDEST SWAP5 POP POP PUSH1 0x40 PUSH2 0x162B DUP9 DUP3 DUP10 ADD PUSH2 0x15CF JUMP JUMPDEST SWAP4 POP POP PUSH1 0x60 PUSH2 0x163C DUP9 DUP3 DUP10 ADD PUSH2 0x15CF JUMP JUMPDEST SWAP3 POP POP PUSH1 0x80 PUSH2 0x164D DUP9 DUP3 DUP10 ADD PUSH2 0x1588 JUMP JUMPDEST SWAP2 POP POP SWAP3 SWAP6 POP SWAP3 SWAP6 SWAP1 SWAP4 POP JUMP JUMPDEST PUSH32 0x496E73756666696369656E7420636F6C6C61746572616C000000000000000000 PUSH0 DUP3 ADD MSTORE POP JUMP JUMPDEST PUSH0 PUSH2 0x168E PUSH1 0x17 DUP4 PUSH2 0x1256 JUMP JUMPDEST SWAP2 POP PUSH2 0x1699 DUP3 PUSH2 0x165A JUMP JUMPDEST PUSH1 0x20 DUP3 ADD SWAP1 POP SWAP2 SWAP1 POP JUMP JUMPDEST PUSH0 PUSH1 0x20 DUP3 ADD SWAP1 POP DUP2 DUP2 SUB PUSH0 DUP4 ADD MSTORE PUSH2 0x16BB DUP2 PUSH2 0x1682 JUMP JUMPDEST SWAP1 POP SWAP2 SWAP1 POP JUMP INVALID LOG2 PUSH5 0x6970667358 0x22 SLT KECCAK256 PUSH24 0x6C994EFA846D6FDBBFE9009CDA499B48C62EB0F238228A22 COINBASE 0xD5 0xDD SWAP14 0xBA 0x5D TIMESTAMP PUSH5 0x736F6C6343 STOP ADDMOD EQ STOP CALLER "
				},
				"gasEstimates": {
					"creation": {
						"codeDepositCost": "1176000",
						"executionCost": "infinite",
						"totalCost": "infinite"
					},
					"external": {
						"COLLATERAL_RATIO()": "347",
						"borrow(uint256)": "infinite",
						"collateralNative(address)": "2890",
						"debtStableCoin(address)": "2848",
						"depositCollateral()": "infinite",
						"getLatestPrice()": "infinite",
						"minimumCollateral(uint256)": "infinite",
						"owner()": "2560",
						"priceFeed()": "infinite",
						"renounceOwnership()": "infinite",
						"repay(uint256)": "infinite",
						"rescueTokens(address,uint256)": "infinite",
						"stablecoin()": "infinite",
						"tokenDecimals()": "2607",
						"transferOwnership(address)": "infinite",
						"withdrawCollateral(uint256)": "infinite"
					}
				},
				"methodIdentifiers": {
					"COLLATERAL_RATIO()": "d9e69a05",
					"borrow(uint256)": "c5ebeaec",
					"collateralNative(address)": "f571180b",
					"debtStableCoin(address)": "066bff28",
					"depositCollateral()": "6f758140",
					"getLatestPrice()": "8e15f473",
					"minimumCollateral(uint256)": "05f287fe",
					"owner()": "8da5cb5b",
					"priceFeed()": "741bef1a",
					"renounceOwnership()": "715018a6",
					"repay(uint256)": "371fd8e6",
					"rescueTokens(address,uint256)": "57376198",
					"stablecoin()": "e9cbd822",
					"tokenDecimals()": "3b97e856",
					"transferOwnership(address)": "f2fde38b",
					"withdrawCollateral(uint256)": "6112fe2e"
				}
			},
			"storageLayout": {
				"storage": [
					{
						"astId": 54,
						"contract": "DeFiLending.sol:SimpleLending",
						"label": "_owner",
						"offset": 0,
						"slot": "0",
						"type": "t_address"
					},
					{
						"astId": 274,
						"contract": "DeFiLending.sol:SimpleLending",
						"label": "priceFeed",
						"offset": 0,
						"slot": "1",
						"type": "t_contract(AggregatorV3Interface)45"
					},
					{
						"astId": 277,
						"contract": "DeFiLending.sol:SimpleLending",
						"label": "stablecoin",
						"offset": 0,
						"slot": "2",
						"type": "t_contract(TokenInterface)269"
					},
					{
						"astId": 285,
						"contract": "DeFiLending.sol:SimpleLending",
						"label": "tokenDecimals",
						"offset": 20,
						"slot": "2",
						"type": "t_uint8"
					},
					{
						"astId": 289,
						"contract": "DeFiLending.sol:SimpleLending",
						"label": "collateralNative",
						"offset": 0,
						"slot": "3",
						"type": "t_mapping(t_address,t_uint256)"
					},
					{
						"astId": 293,
						"contract": "DeFiLending.sol:SimpleLending",
						"label": "debtStableCoin",
						"offset": 0,
						"slot": "4",
						"type": "t_mapping(t_address,t_uint256)"
					}
				],
				"types": {
					"t_address": {
						"encoding": "inplace",
						"label": "address",
						"numberOfBytes": "20"
					},
					"t_contract(AggregatorV3Interface)45": {
						"encoding": "inplace",
						"label": "contract AggregatorV3Interface",
						"numberOfBytes": "20"
					},
					"t_contract(TokenInterface)269": {
						"encoding": "inplace",
						"label": "contract TokenInterface",
						"numberOfBytes": "20"
					},
					"t_mapping(t_address,t_uint256)": {
						"encoding": "mapping",
						"key": "t_address",
						"label": "mapping(address => uint256)",
						"numberOfBytes": "32",
						"value": "t_uint256"
					},
					"t_uint256": {
						"encoding": "inplace",
						"label": "uint256",
						"numberOfBytes": "32"
					},
					"t_uint8": {
						"encoding": "inplace",
						"label": "uint8",
						"numberOfBytes": "1"
					}
				}
			},
			"userdoc": {
				"kind": "user",
				"methods": {
					"borrow(uint256)": {
						"notice": "Borrow stablecoin against Collateral"
					},
					"depositCollateral()": {
						"notice": "Deposit Native token as collateral"
					},
					"getLatestPrice()": {
						"notice": "Get latest Native Token / USD price from Chainlink Data Feeds"
					},
					"minimumCollateral(uint256)": {
						"notice": "Calculate the minimum native tokens as collateral to borrow the amount"
					},
					"repay(uint256)": {
						"notice": "Repay loan"
					},
					"withdrawCollateral(uint256)": {
						"notice": "Withdraw Collateral (only if loan is repaid)"
					}
				},
				"version": 1
			}
		}
	}
}